{
  "contractName": "ArtPatronData",
  "abi": [
    {
      "constant": true,
      "inputs": [
        {
          "name": "",
          "type": "address"
        }
      ],
      "name": "ownedItemsCount",
      "outputs": [
        {
          "name": "",
          "type": "uint256"
        }
      ],
      "payable": false,
      "stateMutability": "view",
      "type": "function"
    },
    {
      "constant": true,
      "inputs": [],
      "name": "GetItemsLength",
      "outputs": [
        {
          "name": "",
          "type": "uint256"
        }
      ],
      "payable": false,
      "stateMutability": "view",
      "type": "function"
    },
    {
      "constant": true,
      "inputs": [],
      "name": "GetAuthorsLength",
      "outputs": [
        {
          "name": "",
          "type": "uint256"
        }
      ],
      "payable": false,
      "stateMutability": "view",
      "type": "function"
    },
    {
      "constant": true,
      "inputs": [],
      "name": "GetMuseumsLength",
      "outputs": [
        {
          "name": "",
          "type": "uint256"
        }
      ],
      "payable": false,
      "stateMutability": "view",
      "type": "function"
    },
    {
      "constant": true,
      "inputs": [
        {
          "name": "_itemId",
          "type": "uint256"
        }
      ],
      "name": "GetItemData",
      "outputs": [
        {
          "name": "name",
          "type": "string"
        },
        {
          "name": "id",
          "type": "uint256"
        },
        {
          "name": "authorId",
          "type": "uint256"
        },
        {
          "name": "museumId",
          "type": "uint256"
        },
        {
          "name": "creationDate",
          "type": "uint256"
        },
        {
          "name": "currentBid",
          "type": "uint256"
        },
        {
          "name": "marketDate",
          "type": "uint256"
        },
        {
          "name": "patronAddress",
          "type": "address"
        }
      ],
      "payable": false,
      "stateMutability": "view",
      "type": "function"
    },
    {
      "constant": true,
      "inputs": [
        {
          "name": "_authorId",
          "type": "uint256"
        }
      ],
      "name": "GetAuthorData",
      "outputs": [
        {
          "name": "name",
          "type": "string"
        },
        {
          "name": "id",
          "type": "uint256"
        },
        {
          "name": "birthDate",
          "type": "uint256"
        }
      ],
      "payable": false,
      "stateMutability": "view",
      "type": "function"
    },
    {
      "constant": true,
      "inputs": [
        {
          "name": "_museumId",
          "type": "uint256"
        }
      ],
      "name": "GetMuseumData",
      "outputs": [
        {
          "name": "name",
          "type": "string"
        },
        {
          "name": "id",
          "type": "uint256"
        },
        {
          "name": "countryId",
          "type": "uint256"
        }
      ],
      "payable": false,
      "stateMutability": "view",
      "type": "function"
    }
  ],
  "bytecode": "0x608060405234801561001057600080fd5b5061075f806100206000396000f300608060405260043610610083576000357c0100000000000000000000000000000000000000000000000000000000900463ffffffff1680631d3cd083146100885780631f548556146100b35780633fde0f53146101b65780639147be0f146101e157806399ace50c1461020c578063c4d4c15014610263578063e5ee34f714610317575b600080fd5b34801561009457600080fd5b5061009d6103cb565b6040518082815260200191505060405180910390f35b3480156100bf57600080fd5b506100de600480360381019080803590602001909291905050506103d8565b60405180806020018981526020018881526020018781526020018681526020018581526020018481526020018373ffffffffffffffffffffffffffffffffffffffff1673ffffffffffffffffffffffffffffffffffffffff16815260200182810382528a818151815260200191508051906020019080838360005b83811015610174578082015181840152602081019050610159565b50505050905090810190601f1680156101a15780820380516001836020036101000a031916815260200191505b50995050505050505050505060405180910390f35b3480156101c257600080fd5b506101cb610514565b6040518082815260200191505060405180910390f35b3480156101ed57600080fd5b506101f6610520565b6040518082815260200191505060405180910390f35b34801561021857600080fd5b5061024d600480360381019080803573ffffffffffffffffffffffffffffffffffffffff16906020019092919050505061052d565b6040518082815260200191505060405180910390f35b34801561026f57600080fd5b5061028e60048036038101908080359060200190929190505050610545565b6040518080602001848152602001838152602001828103825285818151815260200191508051906020019080838360005b838110156102da5780820151818401526020810190506102bf565b50505050905090810190601f1680156103075780820380516001836020036101000a031916815260200191505b5094505050505060405180910390f35b34801561032357600080fd5b5061034260048036038101908080359060200190929190505050610645565b6040518080602001848152602001838152602001828103825285818151815260200191508051906020019080838360005b8381101561038e578082015181840152602081019050610373565b50505050905090810190601f1680156103bb5780820380516001836020036101000a031916815260200191505b5094505050505060405180910390f35b6000600180549050905090565b6060600080600080600080600080896000805490501115156103f957600080fd5b60008a81548110151561040857fe5b90600052602060002090600802019050806000018054600181600116156101000203166002900480601f0160208091040260200160405190810160405280929190818152602001828054600181600116156101000203166002900480156104b05780601f10610485576101008083540402835291602001916104b0565b820191906000526020600020905b81548152906001019060200180831161049357829003601f168201915b505050505098508060010154975080600201549650806003015495508060040154945080600501549350806006015492508060070160009054906101000a900473ffffffffffffffffffffffffffffffffffffffff16915050919395975091939597565b60008080549050905090565b6000600280549050905090565b60036020528060005260406000206000915090505481565b606060008060008460028054905011151561055f57600080fd5b60028581548110151561056e57fe5b90600052602060002090600302019050806000018054600181600116156101000203166002900480601f0160208091040260200160405190810160405280929190818152602001828054600181600116156101000203166002900480156106165780601f106105eb57610100808354040283529160200191610616565b820191906000526020600020905b8154815290600101906020018083116105f957829003601f168201915b50505050509350806001015492508060020160009054906101000a900461ffff1661ffff169150509193909250565b606060008060008460018054905011151561065f57600080fd5b60018581548110151561066e57fe5b90600052602060002090600302019050806000018054600181600116156101000203166002900480601f0160208091040260200160405190810160405280929190818152602001828054600181600116156101000203166002900480156107165780601f106106eb57610100808354040283529160200191610716565b820191906000526020600020905b8154815290600101906020018083116106f957829003601f168201915b5050505050935080600101549250806002015491505091939092505600a165627a7a723058209d3dc5f9784238b8f653ea711c4d3f0641a6a4b7b745b0e37abd5237ca44b2390029",
  "source": "pragma solidity ^0.4.21;\n\n/** @title Art Patron Data constract\n* @dev Holds data of all Items, Authors and Museums\n* @dev Data is stored in arrays\n* @dev There is no write access in this contract\n*/\ncontract ArtPatronData {\n    struct Item {\n        string name;            // Name of an item eg: \"Mona Lisa\"\n        uint id;                // Index of an item in items array\n        uint authorId;          // Index of an author in authors array\n        uint museumId;          // Index of a museum in museums array\n        uint creationDate;      // Date of item's creation\n        uint currentBid;        // Price current patron payed\n        uint marketDate;        // Date when item will be tradeable\n        address patronAddress;  // Adress of current patron\n    }\n\n    struct Author {\n        string name;        // Author's name\n        uint id;            // Index of an author in authors array\n        uint birthDate;     // Birth date of an author\n    }\n\n    struct Museum {\n        string name;        // Museum's name\n        uint id;            // Index of a museum in museums array\n        uint16 countryId;   // Numerical index of a country museum resides in\n    }\n\n    Item[] internal items;\n    Author[] internal authors;\n    Museum[] internal museums;\n\n    mapping (address => uint) public ownedItemsCount;\n\n    /**\n    * @dev Returns length of items array\n    */\n    function GetItemsLength() external view returns (uint) {\n        return items.length;\n    }\n\n    /**\n    * @dev Returns length of authors array\n    */\n    function GetAuthorsLength() external view returns(uint) {\n        return authors.length;\n    }\n\n    /**\n    * @dev Returns length of museums array\n    */\n    function GetMuseumsLength() external view returns(uint) {\n        return museums.length;\n    }\n\n    /**\n    * @dev Data of a single item\n    * @param _itemId Index of an item in items array\n    * @return Tuple with item's data (use contractUtils.js to convert to js object)\n    */\n    function GetItemData(uint _itemId) external view\n        returns (\n            string name,\n            uint id,\n            uint authorId,\n            uint museumId,\n            uint creationDate,\n            uint currentBid,\n            uint marketDate,\n            address patronAddress\n        )\n    {\n        require(items.length > _itemId);\n        Item storage item = items[_itemId];\n\n        name = item.name;\n        id = item.id;\n        authorId = item.authorId;\n        museumId = item.museumId;\n        creationDate = item.creationDate;\n        currentBid = item.currentBid;\n        marketDate = item.marketDate;\n        patronAddress = item.patronAddress;\n    }\n\n    /**\n    * @dev Data of a single author\n    * @param _authorId Index of an author in authors array\n    * @return Tuple with author's data (use contractUtils.js to convert to js object)\n    */\n    function GetAuthorData(uint _authorId) external view\n        returns (\n            string name,\n            uint id,\n            uint birthDate\n        )\n    {\n        require(authors.length > _authorId);\n        Author storage author = authors[_authorId];\n\n        name = author.name;\n        id = author.id;\n        birthDate = author.birthDate;\n    }\n\n    /**\n    * @dev Data of a single item\n    * @param _museumId Index of an museum in museums array\n    * @return Tuple with museum's data (use contractUtils.js to convert to js object)\n    */\n    function GetMuseumData(uint _museumId) external view\n        returns (\n            string name,\n            uint id,\n            uint countryId\n        )\n    {\n        require(museums.length > _museumId);\n        Museum storage museum = museums[_museumId];\n\n        name = museum.name;\n        id = museum.id;\n        countryId = museum.countryId;\n    }\n}\n",
  "sourcePath": "/mnt/c/projects/artpatron/ethereum/contracts/ArtPatronData.sol",
  "compiler": {
    "name": "solc",
    "version": "0.4.23+commit.124ca40d.Emscripten.clang"
  },
  "schemaVersion": "2.0.0",
  "updatedAt": "2018-05-21T06:09:18.292Z"
}