{
  "contractName": "ArtPatron",
  "abi": [
    {
      "constant": true,
      "inputs": [
        {
          "name": "_id",
          "type": "uint256"
        }
      ],
      "name": "GetHolderCountryId",
      "outputs": [
        {
          "name": "",
          "type": "uint16"
        }
      ],
      "payable": false,
      "stateMutability": "view",
      "type": "function"
    },
    {
      "constant": true,
      "inputs": [
        {
          "name": "_id",
          "type": "uint256"
        }
      ],
      "name": "GetItemAuthorId",
      "outputs": [
        {
          "name": "",
          "type": "uint256"
        }
      ],
      "payable": false,
      "stateMutability": "view",
      "type": "function"
    },
    {
      "constant": true,
      "inputs": [
        {
          "name": "_id",
          "type": "uint256"
        }
      ],
      "name": "GetAuthorName",
      "outputs": [
        {
          "name": "",
          "type": "string"
        }
      ],
      "payable": false,
      "stateMutability": "view",
      "type": "function"
    },
    {
      "constant": true,
      "inputs": [],
      "name": "GetAuthorsLength",
      "outputs": [
        {
          "name": "",
          "type": "uint256"
        }
      ],
      "payable": false,
      "stateMutability": "view",
      "type": "function"
    },
    {
      "constant": true,
      "inputs": [
        {
          "name": "_id",
          "type": "uint256"
        }
      ],
      "name": "GetItemCreationDate",
      "outputs": [
        {
          "name": "",
          "type": "uint256"
        }
      ],
      "payable": false,
      "stateMutability": "view",
      "type": "function"
    },
    {
      "constant": true,
      "inputs": [
        {
          "name": "_id",
          "type": "uint256"
        }
      ],
      "name": "GetAuthorBirthDate",
      "outputs": [
        {
          "name": "",
          "type": "uint256"
        }
      ],
      "payable": false,
      "stateMutability": "view",
      "type": "function"
    },
    {
      "constant": true,
      "inputs": [],
      "name": "GetItemsLength",
      "outputs": [
        {
          "name": "",
          "type": "uint256"
        }
      ],
      "payable": false,
      "stateMutability": "view",
      "type": "function"
    },
    {
      "constant": false,
      "inputs": [
        {
          "name": "_itemId",
          "type": "uint256"
        },
        {
          "name": "_newHolderId",
          "type": "uint256"
        }
      ],
      "name": "ChangeItemHolder",
      "outputs": [],
      "payable": false,
      "stateMutability": "nonpayable",
      "type": "function"
    },
    {
      "constant": true,
      "inputs": [
        {
          "name": "_id",
          "type": "uint256"
        }
      ],
      "name": "GetHolderName",
      "outputs": [
        {
          "name": "",
          "type": "string"
        }
      ],
      "payable": false,
      "stateMutability": "view",
      "type": "function"
    },
    {
      "constant": false,
      "inputs": [
        {
          "name": "_name",
          "type": "string"
        },
        {
          "name": "_countryId",
          "type": "uint16"
        }
      ],
      "name": "AddHolder",
      "outputs": [],
      "payable": false,
      "stateMutability": "nonpayable",
      "type": "function"
    },
    {
      "constant": true,
      "inputs": [
        {
          "name": "_id",
          "type": "uint256"
        }
      ],
      "name": "GetItemCurrentBid",
      "outputs": [
        {
          "name": "",
          "type": "uint256"
        }
      ],
      "payable": false,
      "stateMutability": "view",
      "type": "function"
    },
    {
      "constant": true,
      "inputs": [],
      "name": "GetHoldersLength",
      "outputs": [
        {
          "name": "",
          "type": "uint256"
        }
      ],
      "payable": false,
      "stateMutability": "view",
      "type": "function"
    },
    {
      "constant": false,
      "inputs": [
        {
          "name": "_name",
          "type": "string"
        },
        {
          "name": "_creationDate",
          "type": "uint256"
        },
        {
          "name": "_authorId",
          "type": "uint256"
        },
        {
          "name": "_holderId",
          "type": "uint256"
        }
      ],
      "name": "AddItem",
      "outputs": [],
      "payable": false,
      "stateMutability": "nonpayable",
      "type": "function"
    },
    {
      "constant": true,
      "inputs": [
        {
          "name": "_id",
          "type": "uint256"
        }
      ],
      "name": "GetItemTabletDueDate",
      "outputs": [
        {
          "name": "",
          "type": "uint256"
        }
      ],
      "payable": false,
      "stateMutability": "view",
      "type": "function"
    },
    {
      "constant": true,
      "inputs": [],
      "name": "owner",
      "outputs": [
        {
          "name": "",
          "type": "address"
        }
      ],
      "payable": false,
      "stateMutability": "view",
      "type": "function"
    },
    {
      "constant": false,
      "inputs": [
        {
          "name": "_name",
          "type": "string"
        },
        {
          "name": "_birthDate",
          "type": "uint256"
        }
      ],
      "name": "AddAuthor",
      "outputs": [],
      "payable": false,
      "stateMutability": "nonpayable",
      "type": "function"
    },
    {
      "constant": true,
      "inputs": [
        {
          "name": "_id",
          "type": "uint256"
        }
      ],
      "name": "GetItemHolderId",
      "outputs": [
        {
          "name": "",
          "type": "uint256"
        }
      ],
      "payable": false,
      "stateMutability": "view",
      "type": "function"
    },
    {
      "constant": true,
      "inputs": [
        {
          "name": "_id",
          "type": "uint256"
        }
      ],
      "name": "GetItemTitle",
      "outputs": [
        {
          "name": "",
          "type": "string"
        }
      ],
      "payable": false,
      "stateMutability": "view",
      "type": "function"
    },
    {
      "constant": false,
      "inputs": [
        {
          "name": "newOwner",
          "type": "address"
        }
      ],
      "name": "transferOwnership",
      "outputs": [],
      "payable": false,
      "stateMutability": "nonpayable",
      "type": "function"
    },
    {
      "constant": true,
      "inputs": [
        {
          "name": "_id",
          "type": "uint256"
        }
      ],
      "name": "GetItemPatronAddress",
      "outputs": [
        {
          "name": "",
          "type": "address"
        }
      ],
      "payable": false,
      "stateMutability": "view",
      "type": "function"
    },
    {
      "anonymous": false,
      "inputs": [
        {
          "indexed": true,
          "name": "previousOwner",
          "type": "address"
        },
        {
          "indexed": true,
          "name": "newOwner",
          "type": "address"
        }
      ],
      "name": "OwnershipTransferred",
      "type": "event"
    },
    {
      "constant": false,
      "inputs": [],
      "name": "constructor",
      "outputs": [],
      "payable": false,
      "stateMutability": "nonpayable",
      "type": "function"
    }
  ],
  "bytecode": "0x606060405233600560006101000a81548173ffffffffffffffffffffffffffffffffffffffff021916908373ffffffffffffffffffffffffffffffffffffffff160217905550611915806100546000396000f30060606040526004361061011d576000357c0100000000000000000000000000000000000000000000000000000000900463ffffffff168063058d8fe71461012257806311d5d1041461016157806313d385f8146101985780631d3cd08314610234578063233f06e71461025d578063390a7ced146102945780633fde0f53146102cb57806345e1a2da146102f45780634f0b4e7a1461032057806353946e5d146103bc5780635755b252146103f757806359d602471461042e5780636cd227e31461045757806381bda3fe146104a05780638da5cb5b146104d757806390fa17bb1461052c5780639730a9e11461054157806398d7b8d714610578578063cbe47693146105af578063f2fde38b1461064b578063f4b4006c14610684575b600080fd5b341561012d57600080fd5b61014360048080359060200190919050506106e7565b604051808261ffff1661ffff16815260200191505060405180910390f35b341561016c57600080fd5b610182600480803590602001909190505061071f565b6040518082815260200191505060405180910390f35b34156101a357600080fd5b6101b96004808035906020019091905050610748565b6040518080602001828103825283818151815260200191508051906020019080838360005b838110156101f95780820151818401526020810190506101de565b50505050905090810190601f1680156102265780820380516001836020036101000a031916815260200191505b509250505060405180910390f35b341561023f57600080fd5b610247610810565b6040518082815260200191505060405180910390f35b341561026857600080fd5b61027e600480803590602001909190505061081d565b6040518082815260200191505060405180910390f35b341561029f57600080fd5b6102b56004808035906020019091905050610846565b6040518082815260200191505060405180910390f35b34156102d657600080fd5b6102de610870565b6040518082815260200191505060405180910390f35b34156102ff57600080fd5b61031e600480803590602001909190803590602001909190505061087c565b005b341561032b57600080fd5b6103416004808035906020019091905050610901565b6040518080602001828103825283818151815260200191508051906020019080838360005b83811015610381578082015181840152602081019050610366565b50505050905090810190601f1680156103ae5780820380516001836020036101000a031916815260200191505b509250505060405180910390f35b34156103c757600080fd5b6103f56004808035906020019082018035906020019190919290803561ffff169060200190919050506109c9565b005b341561040257600080fd5b6104186004808035906020019091905050610ae1565b6040518082815260200191505060405180910390f35b341561043957600080fd5b610441610b0a565b6040518082815260200191505060405180910390f35b341561046257600080fd5b61049e60048080359060200190820180359060200191909192908035906020019091908035906020019091908035906020019091905050610b17565b005b34156104ab57600080fd5b6104c16004808035906020019091905050610cfa565b6040518082815260200191505060405180910390f35b34156104e257600080fd5b6104ea610d23565b604051808273ffffffffffffffffffffffffffffffffffffffff1673ffffffffffffffffffffffffffffffffffffffff16815260200191505060405180910390f35b341561053757600080fd5b61053f610d49565b005b341561054c57600080fd5b610576600480803590602001908201803590602001919091929080359060200190919050506112c4565b005b341561058357600080fd5b61059960048080359060200190919050506113bf565b6040518082815260200191505060405180910390f35b34156105ba57600080fd5b6105d060048080359060200190919050506113e8565b6040518080602001828103825283818151815260200191508051906020019080838360005b838110156106105780820151818401526020810190506105f5565b50505050905090810190601f16801561063d5780820380516001836020036101000a031916815260200191505b509250505060405180910390f35b341561065657600080fd5b610682600480803573ffffffffffffffffffffffffffffffffffffffff169060200190919050506114b0565b005b341561068f57600080fd5b6106a56004808035906020019091905050611608565b604051808273ffffffffffffffffffffffffffffffffffffffff1673ffffffffffffffffffffffffffffffffffffffff16815260200191505060405180910390f35b60006002828154811015156106f857fe5b906000526020600020906002020160010160009054906101000a900461ffff169050919050565b6000808281548110151561072f57fe5b9060005260206000209060080201600101549050919050565b610750611651565b60018281548110151561075f57fe5b90600052602060002090600202016000018054600181600116156101000203166002900480601f0160208091040260200160405190810160405280929190818152602001828054600181600116156101000203166002900480156108045780601f106107d957610100808354040283529160200191610804565b820191906000526020600020905b8154815290600101906020018083116107e757829003601f168201915b50505050509050919050565b6000600180549050905090565b6000808281548110151561082d57fe5b9060005260206000209060080201600301549050919050565b600060018281548110151561085757fe5b9060005260206000209060020201600101549050919050565b60008080549050905090565b600560009054906101000a900473ffffffffffffffffffffffffffffffffffffffff1673ffffffffffffffffffffffffffffffffffffffff163373ffffffffffffffffffffffffffffffffffffffff161415156108d857600080fd5b806000838154811015156108e857fe5b9060005260206000209060080201600201819055505050565b610909611651565b60028281548110151561091857fe5b90600052602060002090600202016000018054600181600116156101000203166002900480601f0160208091040260200160405190810160405280929190818152602001828054600181600116156101000203166002900480156109bd5780601f10610992576101008083540402835291602001916109bd565b820191906000526020600020905b8154815290600101906020018083116109a057829003601f168201915b50505050509050919050565b600560009054906101000a900473ffffffffffffffffffffffffffffffffffffffff1673ffffffffffffffffffffffffffffffffffffffff163373ffffffffffffffffffffffffffffffffffffffff16141515610a2557600080fd5b60028054806001018281610a399190611665565b91600052602060002090600202016000604080519081016040528087878080601f01602080910402602001604051908101604052809392919081815260200183838082843782019150505050505081526020018561ffff1681525090919091506000820151816000019080519060200190610ab5929190611697565b5060208201518160010160006101000a81548161ffff021916908361ffff160217905550505050505050565b60008082815481101515610af157fe5b9060005260206000209060080201600401549050919050565b6000600280549050905090565b600560009054906101000a900473ffffffffffffffffffffffffffffffffffffffff1673ffffffffffffffffffffffffffffffffffffffff163373ffffffffffffffffffffffffffffffffffffffff16141515610b7357600080fd5b81600180549050111515610b8657600080fd5b80600280549050111515610b9957600080fd5b60008054806001018281610bad9190611717565b916000526020600020906008020160006101006040519081016040528089898080601f0160208091040260200160405190810160405280939291908181526020018383808284378201915050505050508152602001868152602001858152602001878152602001670de0b6b3a764000081526020016000815260200160008152602001600073ffffffffffffffffffffffffffffffffffffffff1681525090919091506000820151816000019080519060200190610c6c929190611697565b506020820151816001015560408201518160020155606082015181600301556080820151816004015560a0820151816005015560c0820151816006015560e08201518160070160006101000a81548173ffffffffffffffffffffffffffffffffffffffff021916908373ffffffffffffffffffffffffffffffffffffffff1602179055505050505050505050565b60008082815481101515610d0a57fe5b9060005260206000209060080201600601549050919050565b600560009054906101000a900473ffffffffffffffffffffffffffffffffffffffff1681565b60018054806001018281610d5d9190611749565b9160005260206000209060020201600060408051908101604052806040805190810160405280600581526020017f4d6f6e65740000000000000000000000000000000000000000000000000000008152508152602001600081525090919091506000820151816000019080519060200190610dd9929190611697565b506020820151816001015550505060028054806001018281610dfb9190611665565b9160005260206000209060020201600060408051908101604052806040805190810160405280601581526020017f54726574796b6f76736b6179612047616c6c65727900000000000000000000008152508152602001600761ffff1681525090919091506000820151816000019080519060200190610e7b929190611697565b5060208201518160010160006101000a81548161ffff021916908361ffff16021790555050505060008054806001018281610eb69190611717565b91600052602060002090600802016000610100604051908101604052806040805190810160405280600681526020017f4974656d203100000000000000000000000000000000000000000000000000008152508152602001600081526020016000815260200160008152602001670de0b6b3a764000081526020016000815260200160008152602001600073ffffffffffffffffffffffffffffffffffffffff1681525090919091506000820151816000019080519060200190610f7b929190611697565b506020820151816001015560408201518160020155606082015181600301556080820151816004015560a0820151816005015560c0820151816006015560e08201518160070160006101000a81548173ffffffffffffffffffffffffffffffffffffffff021916908373ffffffffffffffffffffffffffffffffffffffff160217905550505050600080548060010182816110169190611717565b91600052602060002090600802016000610100604051908101604052806040805190810160405280600681526020017f4974656d203200000000000000000000000000000000000000000000000000008152508152602001600081526020016000815260200160008152602001670de0b6b3a764000081526020016000815260200160008152602001600073ffffffffffffffffffffffffffffffffffffffff16815250909190915060008201518160000190805190602001906110db929190611697565b506020820151816001015560408201518160020155606082015181600301556080820151816004015560a0820151816005015560c0820151816006015560e08201518160070160006101000a81548173ffffffffffffffffffffffffffffffffffffffff021916908373ffffffffffffffffffffffffffffffffffffffff160217905550505050600080548060010182816111769190611717565b91600052602060002090600802016000610100604051908101604052806040805190810160405280600681526020017f4974656d203300000000000000000000000000000000000000000000000000008152508152602001600081526020016000815260200160008152602001670de0b6b3a764000081526020016000815260200160008152602001600073ffffffffffffffffffffffffffffffffffffffff168152509091909150600082015181600001908051906020019061123b929190611697565b506020820151816001015560408201518160020155606082015181600301556080820151816004015560a0820151816005015560c0820151816006015560e08201518160070160006101000a81548173ffffffffffffffffffffffffffffffffffffffff021916908373ffffffffffffffffffffffffffffffffffffffff160217905550505050565b600560009054906101000a900473ffffffffffffffffffffffffffffffffffffffff1673ffffffffffffffffffffffffffffffffffffffff163373ffffffffffffffffffffffffffffffffffffffff1614151561132057600080fd5b600180548060010182816113349190611749565b91600052602060002090600202016000604080519081016040528087878080601f016020809104026020016040519081016040528093929190818152602001838380828437820191505050505050815260200185815250909190915060008201518160000190805190602001906113ac929190611697565b5060208201518160010155505050505050565b600080828154811015156113cf57fe5b9060005260206000209060080201600201549050919050565b6113f0611651565b6000828154811015156113ff57fe5b90600052602060002090600802016000018054600181600116156101000203166002900480601f0160208091040260200160405190810160405280929190818152602001828054600181600116156101000203166002900480156114a45780601f10611479576101008083540402835291602001916114a4565b820191906000526020600020905b81548152906001019060200180831161148757829003601f168201915b50505050509050919050565b600560009054906101000a900473ffffffffffffffffffffffffffffffffffffffff1673ffffffffffffffffffffffffffffffffffffffff163373ffffffffffffffffffffffffffffffffffffffff1614151561150c57600080fd5b600073ffffffffffffffffffffffffffffffffffffffff168173ffffffffffffffffffffffffffffffffffffffff161415151561154857600080fd5b8073ffffffffffffffffffffffffffffffffffffffff16600560009054906101000a900473ffffffffffffffffffffffffffffffffffffffff1673ffffffffffffffffffffffffffffffffffffffff167f8be0079c531659141344cd1fd0a4f28419497f9722a3daafe3b4186f6b6457e060405160405180910390a380600560006101000a81548173ffffffffffffffffffffffffffffffffffffffff021916908373ffffffffffffffffffffffffffffffffffffffff16021790555050565b6000808281548110151561161857fe5b906000526020600020906008020160070160009054906101000a900473ffffffffffffffffffffffffffffffffffffffff169050919050565b602060405190810160405280600081525090565b81548183558181151161169257600202816002028360005260206000209182019101611691919061177b565b5b505050565b828054600181600116156101000203166002900490600052602060002090601f016020900481019282601f106116d857805160ff1916838001178555611706565b82800160010185558215611706579182015b828111156117055782518255916020019190600101906116ea565b5b50905061171391906117bf565b5090565b8154818355818115116117445760080281600802836000526020600020918201910161174391906117e4565b5b505050565b81548183558181151161177657600202816002028360005260206000209182019101611775919061186a565b5b505050565b6117bc91905b808211156117b8576000808201600061179a91906118a1565b6001820160006101000a81549061ffff021916905550600201611781565b5090565b90565b6117e191905b808211156117dd5760008160009055506001016117c5565b5090565b90565b61186791905b80821115611863576000808201600061180391906118a1565b6001820160009055600282016000905560038201600090556004820160009055600582016000905560068201600090556007820160006101000a81549073ffffffffffffffffffffffffffffffffffffffff0219169055506008016117ea565b5090565b90565b61189e91905b8082111561189a576000808201600061188991906118a1565b600182016000905550600201611870565b5090565b90565b50805460018160011615610100020316600290046000825580601f106118c757506118e6565b601f0160209004906000526020600020908101906118e591906117bf565b5b505600a165627a7a72305820eef79ad02b4d07125be055433b6eaf93a1f62f8445f832a21e3c9382ad4f93f60029",
  "source": "pragma solidity ^0.4.18;\n\nimport \"./ArtPatronManagement.sol\";\n\ncontract ArtPatron is ArtPatronManagement {\n    function constructor() public {\n\n        // TODO: remove this code as it is intended for test only\n        authors.push(Author(\"Monet\", 0));\n        holders.push(Holder(\"Tretykovskaya Gallery\", 7));\n        items.push(Item(\"Item 1\", 0, 0, 0, 1 ether, 0, 0, 0));\n        items.push(Item(\"Item 2\", 0, 0, 0, 1 ether, 0, 0, 0));\n        items.push(Item(\"Item 3\", 0, 0, 0, 1 ether, 0, 0, 0));\n    }\n}\n",
  "sourcePath": "/home/shamsfk/projects/artpatron/ethereum/contracts/ArtPatron.sol",
  "compiler": {
    "name": "solc",
    "version": "0.4.21+commit.dfe3193c.Emscripten.clang"
  },
  "schemaVersion": "2.0.0",
  "updatedAt": "2018-04-23T08:09:59.937Z"
}