{
  "contractName": "ArtPatronManagement",
  "abi": [
    {
      "constant": true,
      "inputs": [],
      "name": "GetAuthorsLength",
      "outputs": [
        {
          "name": "",
          "type": "uint256"
        }
      ],
      "payable": false,
      "stateMutability": "view",
      "type": "function"
    },
    {
      "constant": true,
      "inputs": [
        {
          "name": "_itemId",
          "type": "uint256"
        }
      ],
      "name": "GetItemData",
      "outputs": [
        {
          "name": "title",
          "type": "string"
        },
        {
          "name": "authorId",
          "type": "uint256"
        },
        {
          "name": "holderId",
          "type": "uint256"
        },
        {
          "name": "creationDate",
          "type": "uint256"
        },
        {
          "name": "currentBid",
          "type": "uint256"
        },
        {
          "name": "tabletDueDate",
          "type": "uint256"
        },
        {
          "name": "patronAddress",
          "type": "address"
        }
      ],
      "payable": false,
      "stateMutability": "view",
      "type": "function"
    },
    {
      "constant": true,
      "inputs": [],
      "name": "GetItemsLength",
      "outputs": [
        {
          "name": "",
          "type": "uint256"
        }
      ],
      "payable": false,
      "stateMutability": "view",
      "type": "function"
    },
    {
      "constant": true,
      "inputs": [],
      "name": "GetHoldersLength",
      "outputs": [
        {
          "name": "",
          "type": "uint256"
        }
      ],
      "payable": false,
      "stateMutability": "view",
      "type": "function"
    },
    {
      "constant": true,
      "inputs": [],
      "name": "owner",
      "outputs": [
        {
          "name": "",
          "type": "address"
        }
      ],
      "payable": false,
      "stateMutability": "view",
      "type": "function"
    },
    {
      "constant": true,
      "inputs": [
        {
          "name": "_authorId",
          "type": "uint256"
        }
      ],
      "name": "GetAuthorData",
      "outputs": [
        {
          "name": "name",
          "type": "string"
        },
        {
          "name": "birthDate",
          "type": "uint256"
        }
      ],
      "payable": false,
      "stateMutability": "view",
      "type": "function"
    },
    {
      "constant": true,
      "inputs": [
        {
          "name": "_holderId",
          "type": "uint256"
        }
      ],
      "name": "GetHolderData",
      "outputs": [
        {
          "name": "name",
          "type": "string"
        },
        {
          "name": "countryId",
          "type": "uint256"
        }
      ],
      "payable": false,
      "stateMutability": "view",
      "type": "function"
    },
    {
      "constant": false,
      "inputs": [
        {
          "name": "newOwner",
          "type": "address"
        }
      ],
      "name": "transferOwnership",
      "outputs": [],
      "payable": false,
      "stateMutability": "nonpayable",
      "type": "function"
    },
    {
      "anonymous": false,
      "inputs": [
        {
          "indexed": true,
          "name": "previousOwner",
          "type": "address"
        },
        {
          "indexed": true,
          "name": "newOwner",
          "type": "address"
        }
      ],
      "name": "OwnershipTransferred",
      "type": "event"
    },
    {
      "constant": false,
      "inputs": [
        {
          "name": "_name",
          "type": "string"
        },
        {
          "name": "_creationDate",
          "type": "uint256"
        },
        {
          "name": "_authorId",
          "type": "uint256"
        },
        {
          "name": "_holderId",
          "type": "uint256"
        }
      ],
      "name": "AddItem",
      "outputs": [],
      "payable": false,
      "stateMutability": "nonpayable",
      "type": "function"
    },
    {
      "constant": false,
      "inputs": [
        {
          "name": "_name",
          "type": "string"
        },
        {
          "name": "_birthDate",
          "type": "uint256"
        }
      ],
      "name": "AddAuthor",
      "outputs": [],
      "payable": false,
      "stateMutability": "nonpayable",
      "type": "function"
    },
    {
      "constant": false,
      "inputs": [
        {
          "name": "_name",
          "type": "string"
        },
        {
          "name": "_countryId",
          "type": "uint16"
        }
      ],
      "name": "AddHolder",
      "outputs": [],
      "payable": false,
      "stateMutability": "nonpayable",
      "type": "function"
    },
    {
      "constant": false,
      "inputs": [
        {
          "name": "_itemId",
          "type": "uint256"
        },
        {
          "name": "_newHolderId",
          "type": "uint256"
        }
      ],
      "name": "ChangeItemHolder",
      "outputs": [],
      "payable": false,
      "stateMutability": "nonpayable",
      "type": "function"
    }
  ],
  "bytecode": "0x606060405233600560006101000a81548173ffffffffffffffffffffffffffffffffffffffff021916908373ffffffffffffffffffffffffffffffffffffffff1602179055506110ce806100546000396000f3006060604052600436106100ba576000357c0100000000000000000000000000000000000000000000000000000000900463ffffffff1680631d3cd083146100bf5780631f548556146100e85780633fde0f53146101da57806345e1a2da1461020357806353946e5d1461022f57806359d602471461026a5780636cd227e3146102935780638da5cb5b146102dc5780639730a9e114610331578063e5ee34f714610368578063eec4f7c91461040b578063f2fde38b146104ae575b600080fd5b34156100ca57600080fd5b6100d26104e7565b6040518082815260200191505060405180910390f35b34156100f357600080fd5b61010960048080359060200190919050506104f4565b60405180806020018881526020018781526020018681526020018581526020018481526020018373ffffffffffffffffffffffffffffffffffffffff1673ffffffffffffffffffffffffffffffffffffffff168152602001828103825289818151815260200191508051906020019080838360005b8381101561019957808201518184015260208101905061017e565b50505050905090810190601f1680156101c65780820380516001836020036101000a031916815260200191505b509850505050505050505060405180910390f35b34156101e557600080fd5b6101ed61062e565b6040518082815260200191505060405180910390f35b341561020e57600080fd5b61022d600480803590602001909190803590602001909190505061063a565b005b341561023a57600080fd5b6102686004808035906020019082018035906020019190919290803561ffff169060200190919050506106bf565b005b341561027557600080fd5b61027d6107d7565b6040518082815260200191505060405180910390f35b341561029e57600080fd5b6102da600480803590602001908201803590602001919091929080359060200190919080359060200190919080359060200190919050506107e4565b005b34156102e757600080fd5b6102ef6109b5565b604051808273ffffffffffffffffffffffffffffffffffffffff1673ffffffffffffffffffffffffffffffffffffffff16815260200191505060405180910390f35b341561033c57600080fd5b610366600480803590602001908201803590602001919091929080359060200190919050506109db565b005b341561037357600080fd5b6103896004808035906020019091905050610ad6565b6040518080602001838152602001828103825284818151815260200191508051906020019080838360005b838110156103cf5780820151818401526020810190506103b4565b50505050905090810190601f1680156103fc5780820380516001836020036101000a031916815260200191505b50935050505060405180910390f35b341561041657600080fd5b61042c6004808035906020019091905050610bbf565b6040518080602001838152602001828103825284818151815260200191508051906020019080838360005b83811015610472578082015181840152602081019050610457565b50505050905090810190601f16801561049f5780820380516001836020036101000a031916815260200191505b50935050505060405180910390f35b34156104b957600080fd5b6104e5600480803573ffffffffffffffffffffffffffffffffffffffff16906020019091905050610cba565b005b6000600180549050905090565b6104fc610e12565b60008060008060008060008860008054905011151561051a57600080fd5b60008981548110151561052957fe5b90600052602060002090600702019050806000018054600181600116156101000203166002900480601f0160208091040260200160405190810160405280929190818152602001828054600181600116156101000203166002900480156105d15780601f106105a6576101008083540402835291602001916105d1565b820191906000526020600020905b8154815290600101906020018083116105b457829003601f168201915b5050505050975080600101549650806002015495508060030154945080600401549350806005015492508060060160009054906101000a900473ffffffffffffffffffffffffffffffffffffffff16915050919395979092949650565b60008080549050905090565b600560009054906101000a900473ffffffffffffffffffffffffffffffffffffffff1673ffffffffffffffffffffffffffffffffffffffff163373ffffffffffffffffffffffffffffffffffffffff1614151561069657600080fd5b806000838154811015156106a657fe5b9060005260206000209060070201600201819055505050565b600560009054906101000a900473ffffffffffffffffffffffffffffffffffffffff1673ffffffffffffffffffffffffffffffffffffffff163373ffffffffffffffffffffffffffffffffffffffff1614151561071b57600080fd5b6002805480600101828161072f9190610e26565b91600052602060002090600202016000604080519081016040528087878080601f01602080910402602001604051908101604052809392919081815260200183838082843782019150505050505081526020018561ffff16815250909190915060008201518160000190805190602001906107ab929190610e58565b5060208201518160010160006101000a81548161ffff021916908361ffff160217905550505050505050565b6000600280549050905090565b600560009054906101000a900473ffffffffffffffffffffffffffffffffffffffff1673ffffffffffffffffffffffffffffffffffffffff163373ffffffffffffffffffffffffffffffffffffffff1614151561084057600080fd5b8160018054905011151561085357600080fd5b8060028054905011151561086657600080fd5b6000805480600101828161087a9190610ed8565b9160005260206000209060070201600060e06040519081016040528089898080601f0160208091040260200160405190810160405280939291908181526020018383808284378201915050505050508152602001868152602001858152602001878152602001670de0b6b3a7640000815260200160008152602001600073ffffffffffffffffffffffffffffffffffffffff1681525090919091506000820151816000019080519060200190610931929190610e58565b506020820151816001015560408201518160020155606082015181600301556080820151816004015560a0820151816005015560c08201518160060160006101000a81548173ffffffffffffffffffffffffffffffffffffffff021916908373ffffffffffffffffffffffffffffffffffffffff1602179055505050505050505050565b600560009054906101000a900473ffffffffffffffffffffffffffffffffffffffff1681565b600560009054906101000a900473ffffffffffffffffffffffffffffffffffffffff1673ffffffffffffffffffffffffffffffffffffffff163373ffffffffffffffffffffffffffffffffffffffff16141515610a3757600080fd5b60018054806001018281610a4b9190610f0a565b91600052602060002090600202016000604080519081016040528087878080601f01602080910402602001604051908101604052809392919081815260200183838082843782019150505050505081526020018581525090919091506000820151816000019080519060200190610ac3929190610e58565b5060208201518160010155505050505050565b610ade610e12565b60008083600180549050111515610af457600080fd5b600184815481101515610b0357fe5b90600052602060002090600202019050806000018054600181600116156101000203166002900480601f016020809104026020016040519081016040528092919081815260200182805460018160011615610100020316600290048015610bab5780601f10610b8057610100808354040283529160200191610bab565b820191906000526020600020905b815481529060010190602001808311610b8e57829003601f168201915b505050505092508060010154915050915091565b610bc7610e12565b60008083600280549050111515610bdd57600080fd5b600284815481101515610bec57fe5b90600052602060002090600202019050806000018054600181600116156101000203166002900480601f016020809104026020016040519081016040528092919081815260200182805460018160011615610100020316600290048015610c945780601f10610c6957610100808354040283529160200191610c94565b820191906000526020600020905b815481529060010190602001808311610c7757829003601f168201915b505050505092508060010160009054906101000a900461ffff1661ffff16915050915091565b600560009054906101000a900473ffffffffffffffffffffffffffffffffffffffff1673ffffffffffffffffffffffffffffffffffffffff163373ffffffffffffffffffffffffffffffffffffffff16141515610d1657600080fd5b600073ffffffffffffffffffffffffffffffffffffffff168173ffffffffffffffffffffffffffffffffffffffff1614151515610d5257600080fd5b8073ffffffffffffffffffffffffffffffffffffffff16600560009054906101000a900473ffffffffffffffffffffffffffffffffffffffff1673ffffffffffffffffffffffffffffffffffffffff167f8be0079c531659141344cd1fd0a4f28419497f9722a3daafe3b4186f6b6457e060405160405180910390a380600560006101000a81548173ffffffffffffffffffffffffffffffffffffffff021916908373ffffffffffffffffffffffffffffffffffffffff16021790555050565b602060405190810160405280600081525090565b815481835581811511610e5357600202816002028360005260206000209182019101610e529190610f3c565b5b505050565b828054600181600116156101000203166002900490600052602060002090601f016020900481019282601f10610e9957805160ff1916838001178555610ec7565b82800160010185558215610ec7579182015b82811115610ec6578251825591602001919060010190610eab565b5b509050610ed49190610f80565b5090565b815481835581811511610f0557600702816007028360005260206000209182019101610f049190610fa5565b5b505050565b815481835581811511610f3757600202816002028360005260206000209182019101610f369190611023565b5b505050565b610f7d91905b80821115610f795760008082016000610f5b919061105a565b6001820160006101000a81549061ffff021916905550600201610f42565b5090565b90565b610fa291905b80821115610f9e576000816000905550600101610f86565b5090565b90565b61102091905b8082111561101c5760008082016000610fc4919061105a565b600182016000905560028201600090556003820160009055600482016000905560058201600090556006820160006101000a81549073ffffffffffffffffffffffffffffffffffffffff021916905550600701610fab565b5090565b90565b61105791905b808211156110535760008082016000611042919061105a565b600182016000905550600201611029565b5090565b90565b50805460018160011615610100020316600290046000825580601f10611080575061109f565b601f01602090049060005260206000209081019061109e9190610f80565b5b505600a165627a7a72305820cd2879ef5f20bd634fd9e7b2877fcc0be6b1c8849147717ac9e4de21158b53e90029",
  "source": "pragma solidity ^0.4.18;\n\nimport \"./ArtPatronData.sol\";\nimport \"../../node_modules/zeppelin-solidity/contracts/ownership/Ownable.sol\";\n\ncontract ArtPatronManagement is ArtPatronData, Ownable {\n    function AddItem(\n        string _name,\n        uint _creationDate,\n        uint _authorId,\n        uint _holderId\n    )\n        external onlyOwner\n    {\n        require(authors.length > _authorId);\n        require(holders.length > _holderId);\n\n        items.push(Item(\n            _name,\n            _authorId,\n            _holderId,\n            _creationDate,\n            1 ether,\n            0,\n            0\n        ));\n    }\n\n    function AddAuthor(string _name, uint _birthDate)\n        external onlyOwner\n    {\n        authors.push(Author(_name, _birthDate));\n    }\n\n    function AddHolder(string _name, uint16 _countryId)\n        external onlyOwner\n    {\n        holders.push(Holder(_name, _countryId));\n    }\n\n    function ChangeItemHolder(uint _itemId, uint _newHolderId)\n        external onlyOwner\n    {\n        items[_itemId].holderId = _newHolderId;\n    }\n}\n",
  "sourcePath": "/home/shamsfk/projects/artpatron/ethereum/contracts/ArtPatronManagement.sol",
  "compiler": {
    "name": "solc",
    "version": "0.4.21+commit.dfe3193c.Emscripten.clang"
  },
  "schemaVersion": "2.0.0",
  "updatedAt": "2018-04-23T18:43:58.121Z"
}