{
  "contractName": "ArtPatron",
  "abi": [
    {
      "constant": true,
      "inputs": [],
      "name": "totalPayments",
      "outputs": [
        {
          "name": "",
          "type": "uint256"
        }
      ],
      "payable": false,
      "stateMutability": "view",
      "type": "function"
    },
    {
      "constant": true,
      "inputs": [],
      "name": "GetAuthorsLength",
      "outputs": [
        {
          "name": "",
          "type": "uint256"
        }
      ],
      "payable": false,
      "stateMutability": "view",
      "type": "function"
    },
    {
      "constant": true,
      "inputs": [
        {
          "name": "_itemId",
          "type": "uint256"
        }
      ],
      "name": "GetItemData",
      "outputs": [
        {
          "name": "name",
          "type": "string"
        },
        {
          "name": "id",
          "type": "uint256"
        },
        {
          "name": "authorId",
          "type": "uint256"
        },
        {
          "name": "holderId",
          "type": "uint256"
        },
        {
          "name": "creationDate",
          "type": "uint256"
        },
        {
          "name": "currentBid",
          "type": "uint256"
        },
        {
          "name": "marketDate",
          "type": "uint256"
        },
        {
          "name": "patronAddress",
          "type": "address"
        }
      ],
      "payable": false,
      "stateMutability": "view",
      "type": "function"
    },
    {
      "constant": true,
      "inputs": [
        {
          "name": "_itemId",
          "type": "uint256"
        }
      ],
      "name": "GetPatronshipPrice",
      "outputs": [
        {
          "name": "",
          "type": "uint256"
        }
      ],
      "payable": false,
      "stateMutability": "view",
      "type": "function"
    },
    {
      "constant": false,
      "inputs": [
        {
          "name": "ca",
          "type": "address"
        }
      ],
      "name": "SetCollectorAddress",
      "outputs": [],
      "payable": false,
      "stateMutability": "nonpayable",
      "type": "function"
    },
    {
      "constant": true,
      "inputs": [],
      "name": "GetItemsLength",
      "outputs": [
        {
          "name": "",
          "type": "uint256"
        }
      ],
      "payable": false,
      "stateMutability": "view",
      "type": "function"
    },
    {
      "constant": false,
      "inputs": [
        {
          "name": "_itemId",
          "type": "uint256"
        },
        {
          "name": "_newHolderId",
          "type": "uint256"
        }
      ],
      "name": "ChangeItemHolder",
      "outputs": [],
      "payable": false,
      "stateMutability": "nonpayable",
      "type": "function"
    },
    {
      "constant": false,
      "inputs": [
        {
          "name": "_name",
          "type": "string"
        },
        {
          "name": "_countryId",
          "type": "uint16"
        }
      ],
      "name": "AddHolder",
      "outputs": [],
      "payable": false,
      "stateMutability": "nonpayable",
      "type": "function"
    },
    {
      "constant": true,
      "inputs": [],
      "name": "GetHoldersLength",
      "outputs": [
        {
          "name": "",
          "type": "uint256"
        }
      ],
      "payable": false,
      "stateMutability": "view",
      "type": "function"
    },
    {
      "constant": false,
      "inputs": [],
      "name": "withdrawPayments",
      "outputs": [],
      "payable": false,
      "stateMutability": "nonpayable",
      "type": "function"
    },
    {
      "constant": true,
      "inputs": [],
      "name": "owner",
      "outputs": [
        {
          "name": "",
          "type": "address"
        }
      ],
      "payable": false,
      "stateMutability": "view",
      "type": "function"
    },
    {
      "constant": false,
      "inputs": [
        {
          "name": "_name",
          "type": "string"
        },
        {
          "name": "_birthDate",
          "type": "uint256"
        }
      ],
      "name": "AddAuthor",
      "outputs": [],
      "payable": false,
      "stateMutability": "nonpayable",
      "type": "function"
    },
    {
      "constant": true,
      "inputs": [],
      "name": "linkToWebsite",
      "outputs": [
        {
          "name": "",
          "type": "string"
        }
      ],
      "payable": false,
      "stateMutability": "view",
      "type": "function"
    },
    {
      "constant": true,
      "inputs": [],
      "name": "collectorAddress",
      "outputs": [
        {
          "name": "",
          "type": "address"
        }
      ],
      "payable": false,
      "stateMutability": "view",
      "type": "function"
    },
    {
      "constant": true,
      "inputs": [
        {
          "name": "_itemId",
          "type": "uint256"
        }
      ],
      "name": "GetPatronshipReward",
      "outputs": [
        {
          "name": "",
          "type": "uint256"
        }
      ],
      "payable": false,
      "stateMutability": "view",
      "type": "function"
    },
    {
      "constant": false,
      "inputs": [
        {
          "name": "_name",
          "type": "string"
        },
        {
          "name": "_creationDate",
          "type": "uint256"
        },
        {
          "name": "_marketDate",
          "type": "uint256"
        },
        {
          "name": "_authorId",
          "type": "uint256"
        },
        {
          "name": "_holderId",
          "type": "uint256"
        }
      ],
      "name": "AddItem",
      "outputs": [],
      "payable": false,
      "stateMutability": "nonpayable",
      "type": "function"
    },
    {
      "constant": true,
      "inputs": [
        {
          "name": "",
          "type": "address"
        }
      ],
      "name": "payments",
      "outputs": [
        {
          "name": "",
          "type": "uint256"
        }
      ],
      "payable": false,
      "stateMutability": "view",
      "type": "function"
    },
    {
      "constant": true,
      "inputs": [
        {
          "name": "_authorId",
          "type": "uint256"
        }
      ],
      "name": "GetAuthorData",
      "outputs": [
        {
          "name": "name",
          "type": "string"
        },
        {
          "name": "id",
          "type": "uint256"
        },
        {
          "name": "birthDate",
          "type": "uint256"
        }
      ],
      "payable": false,
      "stateMutability": "view",
      "type": "function"
    },
    {
      "constant": false,
      "inputs": [
        {
          "name": "_itemId",
          "type": "uint256"
        }
      ],
      "name": "BuyPatronship",
      "outputs": [],
      "payable": true,
      "stateMutability": "payable",
      "type": "function"
    },
    {
      "constant": true,
      "inputs": [
        {
          "name": "_holderId",
          "type": "uint256"
        }
      ],
      "name": "GetHolderData",
      "outputs": [
        {
          "name": "name",
          "type": "string"
        },
        {
          "name": "id",
          "type": "uint256"
        },
        {
          "name": "countryId",
          "type": "uint256"
        }
      ],
      "payable": false,
      "stateMutability": "view",
      "type": "function"
    },
    {
      "constant": false,
      "inputs": [
        {
          "name": "newOwner",
          "type": "address"
        }
      ],
      "name": "transferOwnership",
      "outputs": [],
      "payable": false,
      "stateMutability": "nonpayable",
      "type": "function"
    },
    {
      "anonymous": false,
      "inputs": [
        {
          "indexed": false,
          "name": "itemId",
          "type": "uint256"
        }
      ],
      "name": "PatronshipBought",
      "type": "event"
    },
    {
      "anonymous": false,
      "inputs": [
        {
          "indexed": false,
          "name": "itemId",
          "type": "uint256"
        }
      ],
      "name": "ItemAdded",
      "type": "event"
    },
    {
      "anonymous": false,
      "inputs": [
        {
          "indexed": false,
          "name": "authorId",
          "type": "uint256"
        }
      ],
      "name": "AuthorAdded",
      "type": "event"
    },
    {
      "anonymous": false,
      "inputs": [
        {
          "indexed": false,
          "name": "holderId",
          "type": "uint256"
        }
      ],
      "name": "HolderAdded",
      "type": "event"
    },
    {
      "anonymous": false,
      "inputs": [
        {
          "indexed": false,
          "name": "itemId",
          "type": "uint256"
        }
      ],
      "name": "ItemHolderChanged",
      "type": "event"
    },
    {
      "anonymous": false,
      "inputs": [
        {
          "indexed": true,
          "name": "previousOwner",
          "type": "address"
        },
        {
          "indexed": true,
          "name": "newOwner",
          "type": "address"
        }
      ],
      "name": "OwnershipTransferred",
      "type": "event"
    }
  ],
  "bytecode": "0x60606040526040805190810160405280601c81526020017f68747470733a2f2f617274706174726f6e2e666f756e646174696f6e00000000815250600790805190602001906200005192919062000099565b5033600360006101000a81548173ffffffffffffffffffffffffffffffffffffffff021916908373ffffffffffffffffffffffffffffffffffffffff16021790555062000148565b828054600181600116156101000203166002900490600052602060002090601f016020900481019282601f10620000dc57805160ff19168380011785556200010d565b828001600101855582156200010d579182015b828111156200010c578251825591602001919060010190620000ef565b5b5090506200011c919062000120565b5090565b6200014591905b808211156200014157600081600090555060010162000127565b5090565b90565b611bf580620001586000396000f30060606040526004361061011c576000357c0100000000000000000000000000000000000000000000000000000000900463ffffffff1680625b4487146101215780631d3cd0831461014a5780631f5485561461017357806322bda10c1461026c5780633b9424a7146102a35780633fde0f53146102dc57806345e1a2da1461030557806353946e5d1461033157806359d602471461039b5780636103d70b146103c45780638da5cb5b146103d95780639730a9e11461042e578063a955c22914610494578063c973c2e314610522578063d042ba0414610577578063d7d42e8b146105ae578063e2982c211461062f578063e5ee34f71461067c578063ec4e70f114610726578063eec4f7c91461073e578063f2fde38b146107e8575b600080fd5b341561012c57600080fd5b610134610821565b6040518082815260200191505060405180910390f35b341561015557600080fd5b61015d610827565b6040518082815260200191505060405180910390f35b341561017e57600080fd5b6101946004808035906020019091905050610834565b60405180806020018981526020018881526020018781526020018681526020018581526020018481526020018373ffffffffffffffffffffffffffffffffffffffff1673ffffffffffffffffffffffffffffffffffffffff16815260200182810382528a818151815260200191508051906020019080838360005b8381101561022a57808201518184015260208101905061020f565b50505050905090810190601f1680156102575780820380516001836020036101000a031916815260200191505b50995050505050505050505060405180910390f35b341561027757600080fd5b61028d6004808035906020019091905050610976565b6040518082815260200191505060405180910390f35b34156102ae57600080fd5b6102da600480803573ffffffffffffffffffffffffffffffffffffffff169060200190919050506109b1565b005b34156102e757600080fd5b6102ef610a77565b6040518082815260200191505060405180910390f35b341561031057600080fd5b61032f6004808035906020019091908035906020019091905050610a83565b005b341561033c57600080fd5b610399600480803590602001908201803590602001908080601f0160208091040260200160405190810160405280939291908181526020018383808284378201915050505050509190803561ffff16906020019091905050610b3f565b005b34156103a657600080fd5b6103ae610c8c565b6040518082815260200191505060405180910390f35b34156103cf57600080fd5b6103d7610c99565b005b34156103e457600080fd5b6103ec610dbb565b604051808273ffffffffffffffffffffffffffffffffffffffff1673ffffffffffffffffffffffffffffffffffffffff16815260200191505060405180910390f35b341561043957600080fd5b610492600480803590602001908201803590602001908080601f01602080910402602001604051908101604052809392919081815260200183838082843782019150505050505091908035906020019091905050610de1565b005b341561049f57600080fd5b6104a7610f0f565b6040518080602001828103825283818151815260200191508051906020019080838360005b838110156104e75780820151818401526020810190506104cc565b50505050905090810190601f1680156105145780820380516001836020036101000a031916815260200191505b509250505060405180910390f35b341561052d57600080fd5b610535610fad565b604051808273ffffffffffffffffffffffffffffffffffffffff1673ffffffffffffffffffffffffffffffffffffffff16815260200191505060405180910390f35b341561058257600080fd5b6105986004808035906020019091905050610fd3565b6040518082815260200191505060405180910390f35b34156105b957600080fd5b61062d600480803590602001908201803590602001908080601f0160208091040260200160405190810160405280939291908181526020018383808284378201915050505050509190803590602001909190803590602001909190803590602001909190803590602001909190505061100e565b005b341561063a57600080fd5b610666600480803573ffffffffffffffffffffffffffffffffffffffff16906020019091905050611214565b6040518082815260200191505060405180910390f35b341561068757600080fd5b61069d600480803590602001909190505061122c565b6040518080602001848152602001838152602001828103825285818151815260200191508051906020019080838360005b838110156106e95780820151818401526020810190506106ce565b50505050905090810190601f1680156107165780820380516001836020036101000a031916815260200191505b5094505050505060405180910390f35b61073c6004808035906020019091905050611320565b005b341561074957600080fd5b61075f60048080359060200190919050506115da565b6040518080602001848152602001838152602001828103825285818151815260200191508051906020019080838360005b838110156107ab578082015181840152602081019050610790565b50505050905090810190601f1680156107d85780820380516001836020036101000a031916815260200191505b5094505050505060405180910390f35b34156107f357600080fd5b61081f600480803573ffffffffffffffffffffffffffffffffffffffff169060200190919050506116e0565b005b60065481565b6000600180549050905090565b61083c611921565b6000806000806000806000808960008054905011151561085b57600080fd5b60008a81548110151561086a57fe5b90600052602060002090600802019050806000018054600181600116156101000203166002900480601f0160208091040260200160405190810160405280929190818152602001828054600181600116156101000203166002900480156109125780601f106108e757610100808354040283529160200191610912565b820191906000526020600020905b8154815290600101906020018083116108f557829003601f168201915b505050505098508060010154975080600201549650806003015495508060040154945080600501549350806006015492508060070160009054906101000a900473ffffffffffffffffffffffffffffffffffffffff16915050919395975091939597565b6000612710613a9860008481548110151561098d57fe5b906000526020600020906008020160050154028115156109a957fe5b049050919050565b600360009054906101000a900473ffffffffffffffffffffffffffffffffffffffff1673ffffffffffffffffffffffffffffffffffffffff163373ffffffffffffffffffffffffffffffffffffffff16141515610a0d57600080fd5b60008173ffffffffffffffffffffffffffffffffffffffff1614151515610a3357600080fd5b80600460006101000a81548173ffffffffffffffffffffffffffffffffffffffff021916908373ffffffffffffffffffffffffffffffffffffffff16021790555050565b60008080549050905090565b600360009054906101000a900473ffffffffffffffffffffffffffffffffffffffff1673ffffffffffffffffffffffffffffffffffffffff163373ffffffffffffffffffffffffffffffffffffffff16141515610adf57600080fd5b80600083815481101515610aef57fe5b9060005260206000209060080201600301819055507fc80b2a507461bdf13f90d6e4cabec254fea31d19046a6ab6aaae2006586ee6f1826040518082815260200191505060405180910390a15050565b600360009054906101000a900473ffffffffffffffffffffffffffffffffffffffff1673ffffffffffffffffffffffffffffffffffffffff163373ffffffffffffffffffffffffffffffffffffffff16141515610b9b57600080fd5b60008251111515610bab57600080fd5b60028054806001018281610bbf9190611935565b9160005260206000209060030201600060606040519081016040528086815260200160016002805490500381526020018561ffff1681525090919091506000820151816000019080519060200190610c18929190611967565b506020820151816001015560408201518160020160006101000a81548161ffff021916908361ffff1602179055505050507fe3b761f18b620ece6fcdb14fa29a98a03ee065f25358cae0c3eddd0d26e7850d6001600280549050036040518082815260200191505060405180910390a15050565b6000600280549050905090565b600080339150600560008373ffffffffffffffffffffffffffffffffffffffff1673ffffffffffffffffffffffffffffffffffffffff16815260200190815260200160002054905060008114151515610cf157600080fd5b803073ffffffffffffffffffffffffffffffffffffffff163110151515610d1757600080fd5b610d2c8160065461183890919063ffffffff16565b6006819055506000600560008473ffffffffffffffffffffffffffffffffffffffff1673ffffffffffffffffffffffffffffffffffffffff168152602001908152602001600020819055508173ffffffffffffffffffffffffffffffffffffffff166108fc829081150290604051600060405180830381858888f193505050501515610db757600080fd5b5050565b600360009054906101000a900473ffffffffffffffffffffffffffffffffffffffff1681565b600360009054906101000a900473ffffffffffffffffffffffffffffffffffffffff1673ffffffffffffffffffffffffffffffffffffffff163373ffffffffffffffffffffffffffffffffffffffff16141515610e3d57600080fd5b60008251111515610e4d57600080fd5b60018054806001018281610e6191906119e7565b91600052602060002090600302016000606060405190810160405280868152602001600180805490500381526020018581525090919091506000820151816000019080519060200190610eb5929190611967565b5060208201518160010155604082015181600201555050507f893b6c60166e13bdcaac5ed8b58be564952549481dc61e31e3ae20c1d0d7e29260018080549050036040518082815260200191505060405180910390a15050565b60078054600181600116156101000203166002900480601f016020809104026020016040519081016040528092919081815260200182805460018160011615610100020316600290048015610fa55780601f10610f7a57610100808354040283529160200191610fa5565b820191906000526020600020905b815481529060010190602001808311610f8857829003601f168201915b505050505081565b600460009054906101000a900473ffffffffffffffffffffffffffffffffffffffff1681565b60006127106136b0600084815481101515610fea57fe5b9060005260206000209060080201600501540281151561100657fe5b049050919050565b600360009054906101000a900473ffffffffffffffffffffffffffffffffffffffff1673ffffffffffffffffffffffffffffffffffffffff163373ffffffffffffffffffffffffffffffffffffffff1614151561106a57600080fd5b8160018054905011151561107d57600080fd5b8060028054905011151561109057600080fd5b600085511115156110a057600080fd5b600080548060010182816110b49190611a19565b91600052602060002090600802016000610100604051908101604052808981526020016001600080549050038152602001868152602001858152602001888152602001670de0b6b3a76400008152602001878152602001600073ffffffffffffffffffffffffffffffffffffffff1681525090919091506000820151816000019080519060200190611147929190611967565b506020820151816001015560408201518160020155606082015181600301556080820151816004015560a0820151816005015560c0820151816006015560e08201518160070160006101000a81548173ffffffffffffffffffffffffffffffffffffffff021916908373ffffffffffffffffffffffffffffffffffffffff1602179055505050507f186760a37e06b130959978c68b5c592841caf4f64de1dc960b2c54cf454ca9dd6001600080549050036040518082815260200191505060405180910390a15050505050565b60056020528060005260406000206000915090505481565b611234611921565b60008060008460018054905011151561124c57600080fd5b60018581548110151561125b57fe5b90600052602060002090600302019050806000018054600181600116156101000203166002900480601f0160208091040260200160405190810160405280929190818152602001828054600181600116156101000203166002900480156113035780601f106112d857610100808354040283529160200191611303565b820191906000526020600020905b8154815290600101906020018083116112e657829003601f168201915b505050505093508060010154925080600201549150509193909250565b600080600080600460009054906101000a900473ffffffffffffffffffffffffffffffffffffffff1673ffffffffffffffffffffffffffffffffffffffff161415151561136c57600080fd5b6000805490508410151561137f57600080fd5b60008481548110151561138e57fe5b906000526020600020906008020192503073ffffffffffffffffffffffffffffffffffffffff166322bda10c856040518263ffffffff167c010000000000000000000000000000000000000000000000000000000002815260040180828152602001915050602060405180830381600087803b151561140c57600080fd5b5af1151561141957600080fd5b5050506040518051905091503073ffffffffffffffffffffffffffffffffffffffff1663d042ba04856040518263ffffffff167c010000000000000000000000000000000000000000000000000000000002815260040180828152602001915050602060405180830381600087803b151561149357600080fd5b5af115156114a057600080fd5b50505060405180519050905081341115156114ba57600080fd5b8260070160009054906101000a900473ffffffffffffffffffffffffffffffffffffffff1673ffffffffffffffffffffffffffffffffffffffff163373ffffffffffffffffffffffffffffffffffffffff161415151561151957600080fd5b6115233382611851565b611551600460009054906101000a900473ffffffffffffffffffffffffffffffffffffffff16828403611851565b348360050181905550338360070160006101000a81548173ffffffffffffffffffffffffffffffffffffffff021916908373ffffffffffffffffffffffffffffffffffffffff1602179055507f95567913a139a9810a3eb0de6a4244ece143e6b527268952cd3800672d93158d846040518082815260200191505060405180910390a150505050565b6115e2611921565b6000806000846002805490501115156115fa57600080fd5b60028581548110151561160957fe5b90600052602060002090600302019050806000018054600181600116156101000203166002900480601f0160208091040260200160405190810160405280929190818152602001828054600181600116156101000203166002900480156116b15780601f10611686576101008083540402835291602001916116b1565b820191906000526020600020905b81548152906001019060200180831161169457829003601f168201915b50505050509350806001015492508060020160009054906101000a900461ffff1661ffff169150509193909250565b600360009054906101000a900473ffffffffffffffffffffffffffffffffffffffff1673ffffffffffffffffffffffffffffffffffffffff163373ffffffffffffffffffffffffffffffffffffffff1614151561173c57600080fd5b600073ffffffffffffffffffffffffffffffffffffffff168173ffffffffffffffffffffffffffffffffffffffff161415151561177857600080fd5b8073ffffffffffffffffffffffffffffffffffffffff16600360009054906101000a900473ffffffffffffffffffffffffffffffffffffffff1673ffffffffffffffffffffffffffffffffffffffff167f8be0079c531659141344cd1fd0a4f28419497f9722a3daafe3b4186f6b6457e060405160405180910390a380600360006101000a81548173ffffffffffffffffffffffffffffffffffffffff021916908373ffffffffffffffffffffffffffffffffffffffff16021790555050565b600082821115151561184657fe5b818303905092915050565b6118a381600560008573ffffffffffffffffffffffffffffffffffffffff1673ffffffffffffffffffffffffffffffffffffffff1681526020019081526020016000205461190590919063ffffffff16565b600560008473ffffffffffffffffffffffffffffffffffffffff1673ffffffffffffffffffffffffffffffffffffffff168152602001908152602001600020819055506118fb8160065461190590919063ffffffff16565b6006819055505050565b6000818301905082811015151561191857fe5b80905092915050565b602060405190810160405280600081525090565b815481835581811511611962576003028160030283600052602060002091820191016119619190611a4b565b5b505050565b828054600181600116156101000203166002900490600052602060002090601f016020900481019282601f106119a857805160ff19168380011785556119d6565b828001600101855582156119d6579182015b828111156119d55782518255916020019190600101906119ba565b5b5090506119e39190611a97565b5090565b815481835581811511611a1457600302816003028360005260206000209182019101611a139190611abc565b5b505050565b815481835581811511611a4657600802816008028360005260206000209182019101611a459190611afb565b5b505050565b611a9491905b80821115611a905760008082016000611a6a9190611b81565b60018201600090556002820160006101000a81549061ffff021916905550600301611a51565b5090565b90565b611ab991905b80821115611ab5576000816000905550600101611a9d565b5090565b90565b611af891905b80821115611af45760008082016000611adb9190611b81565b6001820160009055600282016000905550600301611ac2565b5090565b90565b611b7e91905b80821115611b7a5760008082016000611b1a9190611b81565b6001820160009055600282016000905560038201600090556004820160009055600582016000905560068201600090556007820160006101000a81549073ffffffffffffffffffffffffffffffffffffffff021916905550600801611b01565b5090565b90565b50805460018160011615610100020316600290046000825580601f10611ba75750611bc6565b601f016020900490600052602060002090810190611bc59190611a97565b5b505600a165627a7a7230582088efea70d4dbc667c808aed190810482f31a4dc78916053234fabfa94bb2ecb20029",
  "source": "pragma solidity ^0.4.21;\n\nimport \"./ArtPatronMarket.sol\";\n\ncontract ArtPatron is ArtPatronMarket {\n    string public linkToWebsite = \"https://artpatron.foundation\";\n}\n",
  "sourcePath": "/home/shamsfk/projects/artpatron/ethereum/contracts/ArtPatron.sol",
  "compiler": {
    "name": "solc",
    "version": "0.4.21+commit.dfe3193c.Emscripten.clang"
  },
  "schemaVersion": "2.0.0",
  "updatedAt": "2018-05-17T14:53:55.563Z"
}