{
  "contractName": "ArtPatronManagement",
  "abi": [
    {
      "constant": true,
      "inputs": [
        {
          "name": "_id",
          "type": "uint256"
        }
      ],
      "name": "GetHolderCountryId",
      "outputs": [
        {
          "name": "",
          "type": "uint16"
        }
      ],
      "payable": false,
      "stateMutability": "view",
      "type": "function"
    },
    {
      "constant": true,
      "inputs": [
        {
          "name": "_id",
          "type": "uint256"
        }
      ],
      "name": "GetItemAuthorId",
      "outputs": [
        {
          "name": "",
          "type": "uint256"
        }
      ],
      "payable": false,
      "stateMutability": "view",
      "type": "function"
    },
    {
      "constant": true,
      "inputs": [
        {
          "name": "_id",
          "type": "uint256"
        }
      ],
      "name": "GetAuthorName",
      "outputs": [
        {
          "name": "",
          "type": "string"
        }
      ],
      "payable": false,
      "stateMutability": "view",
      "type": "function"
    },
    {
      "constant": true,
      "inputs": [],
      "name": "GetAuthorsLength",
      "outputs": [
        {
          "name": "",
          "type": "uint256"
        }
      ],
      "payable": false,
      "stateMutability": "view",
      "type": "function"
    },
    {
      "constant": true,
      "inputs": [
        {
          "name": "_id",
          "type": "uint256"
        }
      ],
      "name": "GetItemCreationDate",
      "outputs": [
        {
          "name": "",
          "type": "uint256"
        }
      ],
      "payable": false,
      "stateMutability": "view",
      "type": "function"
    },
    {
      "constant": true,
      "inputs": [
        {
          "name": "_id",
          "type": "uint256"
        }
      ],
      "name": "GetAuthorBirthDate",
      "outputs": [
        {
          "name": "",
          "type": "uint256"
        }
      ],
      "payable": false,
      "stateMutability": "view",
      "type": "function"
    },
    {
      "constant": true,
      "inputs": [],
      "name": "GetItemsLength",
      "outputs": [
        {
          "name": "",
          "type": "uint256"
        }
      ],
      "payable": false,
      "stateMutability": "view",
      "type": "function"
    },
    {
      "constant": true,
      "inputs": [
        {
          "name": "_id",
          "type": "uint256"
        }
      ],
      "name": "GetHolderName",
      "outputs": [
        {
          "name": "",
          "type": "string"
        }
      ],
      "payable": false,
      "stateMutability": "view",
      "type": "function"
    },
    {
      "constant": true,
      "inputs": [
        {
          "name": "_id",
          "type": "uint256"
        }
      ],
      "name": "GetItemCurrentBid",
      "outputs": [
        {
          "name": "",
          "type": "uint256"
        }
      ],
      "payable": false,
      "stateMutability": "view",
      "type": "function"
    },
    {
      "constant": true,
      "inputs": [],
      "name": "GetHoldersLength",
      "outputs": [
        {
          "name": "",
          "type": "uint256"
        }
      ],
      "payable": false,
      "stateMutability": "view",
      "type": "function"
    },
    {
      "constant": true,
      "inputs": [
        {
          "name": "_id",
          "type": "uint256"
        }
      ],
      "name": "GetItemTabletDueDate",
      "outputs": [
        {
          "name": "",
          "type": "uint256"
        }
      ],
      "payable": false,
      "stateMutability": "view",
      "type": "function"
    },
    {
      "constant": true,
      "inputs": [],
      "name": "owner",
      "outputs": [
        {
          "name": "",
          "type": "address"
        }
      ],
      "payable": false,
      "stateMutability": "view",
      "type": "function"
    },
    {
      "constant": true,
      "inputs": [
        {
          "name": "_id",
          "type": "uint256"
        }
      ],
      "name": "GetItemHolderId",
      "outputs": [
        {
          "name": "",
          "type": "uint256"
        }
      ],
      "payable": false,
      "stateMutability": "view",
      "type": "function"
    },
    {
      "constant": true,
      "inputs": [
        {
          "name": "_id",
          "type": "uint256"
        }
      ],
      "name": "GetItemTitle",
      "outputs": [
        {
          "name": "",
          "type": "string"
        }
      ],
      "payable": false,
      "stateMutability": "view",
      "type": "function"
    },
    {
      "constant": false,
      "inputs": [
        {
          "name": "newOwner",
          "type": "address"
        }
      ],
      "name": "transferOwnership",
      "outputs": [],
      "payable": false,
      "stateMutability": "nonpayable",
      "type": "function"
    },
    {
      "constant": true,
      "inputs": [
        {
          "name": "_id",
          "type": "uint256"
        }
      ],
      "name": "GetItemPatronAddress",
      "outputs": [
        {
          "name": "",
          "type": "address"
        }
      ],
      "payable": false,
      "stateMutability": "view",
      "type": "function"
    },
    {
      "anonymous": false,
      "inputs": [
        {
          "indexed": true,
          "name": "previousOwner",
          "type": "address"
        },
        {
          "indexed": true,
          "name": "newOwner",
          "type": "address"
        }
      ],
      "name": "OwnershipTransferred",
      "type": "event"
    },
    {
      "constant": false,
      "inputs": [
        {
          "name": "_name",
          "type": "string"
        },
        {
          "name": "_creationDate",
          "type": "uint256"
        },
        {
          "name": "_authorId",
          "type": "uint256"
        },
        {
          "name": "_holderId",
          "type": "uint256"
        }
      ],
      "name": "AddItem",
      "outputs": [],
      "payable": false,
      "stateMutability": "nonpayable",
      "type": "function"
    },
    {
      "constant": false,
      "inputs": [
        {
          "name": "_name",
          "type": "string"
        },
        {
          "name": "_birthDate",
          "type": "uint256"
        }
      ],
      "name": "AddAuthor",
      "outputs": [],
      "payable": false,
      "stateMutability": "nonpayable",
      "type": "function"
    },
    {
      "constant": false,
      "inputs": [
        {
          "name": "_name",
          "type": "string"
        },
        {
          "name": "_countryId",
          "type": "uint16"
        }
      ],
      "name": "AddHolder",
      "outputs": [],
      "payable": false,
      "stateMutability": "nonpayable",
      "type": "function"
    },
    {
      "constant": false,
      "inputs": [
        {
          "name": "_itemId",
          "type": "uint256"
        },
        {
          "name": "_newHolderId",
          "type": "uint256"
        }
      ],
      "name": "ChangeItemHolder",
      "outputs": [],
      "payable": false,
      "stateMutability": "nonpayable",
      "type": "function"
    }
  ],
  "bytecode": "0x606060405233600560006101000a81548173ffffffffffffffffffffffffffffffffffffffff021916908373ffffffffffffffffffffffffffffffffffffffff16021790555061137a806100546000396000f300606060405260043610610112576000357c0100000000000000000000000000000000000000000000000000000000900463ffffffff168063058d8fe71461011757806311d5d1041461015657806313d385f81461018d5780631d3cd08314610229578063233f06e714610252578063390a7ced146102895780633fde0f53146102c057806345e1a2da146102e95780634f0b4e7a1461031557806353946e5d146103b15780635755b252146103ec57806359d60247146104235780636cd227e31461044c57806381bda3fe146104955780638da5cb5b146104cc5780639730a9e11461052157806398d7b8d714610558578063cbe476931461058f578063f2fde38b1461062b578063f4b4006c14610664575b600080fd5b341561012257600080fd5b61013860048080359060200190919050506106c7565b604051808261ffff1661ffff16815260200191505060405180910390f35b341561016157600080fd5b61017760048080359060200190919050506106ff565b6040518082815260200191505060405180910390f35b341561019857600080fd5b6101ae6004808035906020019091905050610728565b6040518080602001828103825283818151815260200191508051906020019080838360005b838110156101ee5780820151818401526020810190506101d3565b50505050905090810190601f16801561021b5780820380516001836020036101000a031916815260200191505b509250505060405180910390f35b341561023457600080fd5b61023c6107f0565b6040518082815260200191505060405180910390f35b341561025d57600080fd5b61027360048080359060200190919050506107fd565b6040518082815260200191505060405180910390f35b341561029457600080fd5b6102aa6004808035906020019091905050610826565b6040518082815260200191505060405180910390f35b34156102cb57600080fd5b6102d3610850565b6040518082815260200191505060405180910390f35b34156102f457600080fd5b610313600480803590602001909190803590602001909190505061085c565b005b341561032057600080fd5b61033660048080359060200190919050506108e1565b6040518080602001828103825283818151815260200191508051906020019080838360005b8381101561037657808201518184015260208101905061035b565b50505050905090810190601f1680156103a35780820380516001836020036101000a031916815260200191505b509250505060405180910390f35b34156103bc57600080fd5b6103ea6004808035906020019082018035906020019190919290803561ffff169060200190919050506109a9565b005b34156103f757600080fd5b61040d6004808035906020019091905050610ac1565b6040518082815260200191505060405180910390f35b341561042e57600080fd5b610436610aea565b6040518082815260200191505060405180910390f35b341561045757600080fd5b61049360048080359060200190820180359060200191909192908035906020019091908035906020019091908035906020019091905050610af7565b005b34156104a057600080fd5b6104b66004808035906020019091905050610cda565b6040518082815260200191505060405180910390f35b34156104d757600080fd5b6104df610d03565b604051808273ffffffffffffffffffffffffffffffffffffffff1673ffffffffffffffffffffffffffffffffffffffff16815260200191505060405180910390f35b341561052c57600080fd5b61055660048080359060200190820180359060200191909192908035906020019091905050610d29565b005b341561056357600080fd5b6105796004808035906020019091905050610e24565b6040518082815260200191505060405180910390f35b341561059a57600080fd5b6105b06004808035906020019091905050610e4d565b6040518080602001828103825283818151815260200191508051906020019080838360005b838110156105f05780820151818401526020810190506105d5565b50505050905090810190601f16801561061d5780820380516001836020036101000a031916815260200191505b509250505060405180910390f35b341561063657600080fd5b610662600480803573ffffffffffffffffffffffffffffffffffffffff16906020019091905050610f15565b005b341561066f57600080fd5b610685600480803590602001909190505061106d565b604051808273ffffffffffffffffffffffffffffffffffffffff1673ffffffffffffffffffffffffffffffffffffffff16815260200191505060405180910390f35b60006002828154811015156106d857fe5b906000526020600020906002020160010160009054906101000a900461ffff169050919050565b6000808281548110151561070f57fe5b9060005260206000209060080201600101549050919050565b6107306110b6565b60018281548110151561073f57fe5b90600052602060002090600202016000018054600181600116156101000203166002900480601f0160208091040260200160405190810160405280929190818152602001828054600181600116156101000203166002900480156107e45780601f106107b9576101008083540402835291602001916107e4565b820191906000526020600020905b8154815290600101906020018083116107c757829003601f168201915b50505050509050919050565b6000600180549050905090565b6000808281548110151561080d57fe5b9060005260206000209060080201600301549050919050565b600060018281548110151561083757fe5b9060005260206000209060020201600101549050919050565b60008080549050905090565b600560009054906101000a900473ffffffffffffffffffffffffffffffffffffffff1673ffffffffffffffffffffffffffffffffffffffff163373ffffffffffffffffffffffffffffffffffffffff161415156108b857600080fd5b806000838154811015156108c857fe5b9060005260206000209060080201600201819055505050565b6108e96110b6565b6002828154811015156108f857fe5b90600052602060002090600202016000018054600181600116156101000203166002900480601f01602080910402602001604051908101604052809291908181526020018280546001816001161561010002031660029004801561099d5780601f106109725761010080835404028352916020019161099d565b820191906000526020600020905b81548152906001019060200180831161098057829003601f168201915b50505050509050919050565b600560009054906101000a900473ffffffffffffffffffffffffffffffffffffffff1673ffffffffffffffffffffffffffffffffffffffff163373ffffffffffffffffffffffffffffffffffffffff16141515610a0557600080fd5b60028054806001018281610a1991906110ca565b91600052602060002090600202016000604080519081016040528087878080601f01602080910402602001604051908101604052809392919081815260200183838082843782019150505050505081526020018561ffff1681525090919091506000820151816000019080519060200190610a959291906110fc565b5060208201518160010160006101000a81548161ffff021916908361ffff160217905550505050505050565b60008082815481101515610ad157fe5b9060005260206000209060080201600401549050919050565b6000600280549050905090565b600560009054906101000a900473ffffffffffffffffffffffffffffffffffffffff1673ffffffffffffffffffffffffffffffffffffffff163373ffffffffffffffffffffffffffffffffffffffff16141515610b5357600080fd5b81600180549050111515610b6657600080fd5b80600280549050111515610b7957600080fd5b60008054806001018281610b8d919061117c565b916000526020600020906008020160006101006040519081016040528089898080601f0160208091040260200160405190810160405280939291908181526020018383808284378201915050505050508152602001868152602001858152602001878152602001670de0b6b3a764000081526020016000815260200160008152602001600073ffffffffffffffffffffffffffffffffffffffff1681525090919091506000820151816000019080519060200190610c4c9291906110fc565b506020820151816001015560408201518160020155606082015181600301556080820151816004015560a0820151816005015560c0820151816006015560e08201518160070160006101000a81548173ffffffffffffffffffffffffffffffffffffffff021916908373ffffffffffffffffffffffffffffffffffffffff1602179055505050505050505050565b60008082815481101515610cea57fe5b9060005260206000209060080201600601549050919050565b600560009054906101000a900473ffffffffffffffffffffffffffffffffffffffff1681565b600560009054906101000a900473ffffffffffffffffffffffffffffffffffffffff1673ffffffffffffffffffffffffffffffffffffffff163373ffffffffffffffffffffffffffffffffffffffff16141515610d8557600080fd5b60018054806001018281610d9991906111ae565b91600052602060002090600202016000604080519081016040528087878080601f01602080910402602001604051908101604052809392919081815260200183838082843782019150505050505081526020018581525090919091506000820151816000019080519060200190610e119291906110fc565b5060208201518160010155505050505050565b60008082815481101515610e3457fe5b9060005260206000209060080201600201549050919050565b610e556110b6565b600082815481101515610e6457fe5b90600052602060002090600802016000018054600181600116156101000203166002900480601f016020809104026020016040519081016040528092919081815260200182805460018160011615610100020316600290048015610f095780601f10610ede57610100808354040283529160200191610f09565b820191906000526020600020905b815481529060010190602001808311610eec57829003601f168201915b50505050509050919050565b600560009054906101000a900473ffffffffffffffffffffffffffffffffffffffff1673ffffffffffffffffffffffffffffffffffffffff163373ffffffffffffffffffffffffffffffffffffffff16141515610f7157600080fd5b600073ffffffffffffffffffffffffffffffffffffffff168173ffffffffffffffffffffffffffffffffffffffff1614151515610fad57600080fd5b8073ffffffffffffffffffffffffffffffffffffffff16600560009054906101000a900473ffffffffffffffffffffffffffffffffffffffff1673ffffffffffffffffffffffffffffffffffffffff167f8be0079c531659141344cd1fd0a4f28419497f9722a3daafe3b4186f6b6457e060405160405180910390a380600560006101000a81548173ffffffffffffffffffffffffffffffffffffffff021916908373ffffffffffffffffffffffffffffffffffffffff16021790555050565b6000808281548110151561107d57fe5b906000526020600020906008020160070160009054906101000a900473ffffffffffffffffffffffffffffffffffffffff169050919050565b602060405190810160405280600081525090565b8154818355818115116110f7576002028160020283600052602060002091820191016110f691906111e0565b5b505050565b828054600181600116156101000203166002900490600052602060002090601f016020900481019282601f1061113d57805160ff191683800117855561116b565b8280016001018555821561116b579182015b8281111561116a57825182559160200191906001019061114f565b5b5090506111789190611224565b5090565b8154818355818115116111a9576008028160080283600052602060002091820191016111a89190611249565b5b505050565b8154818355818115116111db576002028160020283600052602060002091820191016111da91906112cf565b5b505050565b61122191905b8082111561121d57600080820160006111ff9190611306565b6001820160006101000a81549061ffff0219169055506002016111e6565b5090565b90565b61124691905b8082111561124257600081600090555060010161122a565b5090565b90565b6112cc91905b808211156112c857600080820160006112689190611306565b6001820160009055600282016000905560038201600090556004820160009055600582016000905560068201600090556007820160006101000a81549073ffffffffffffffffffffffffffffffffffffffff02191690555060080161124f565b5090565b90565b61130391905b808211156112ff57600080820160006112ee9190611306565b6001820160009055506002016112d5565b5090565b90565b50805460018160011615610100020316600290046000825580601f1061132c575061134b565b601f01602090049060005260206000209081019061134a9190611224565b5b505600a165627a7a72305820e09d58a85a25d5afc7abb753bbdd92b8011464de88514a9daf2306831083a9530029",
  "source": "pragma solidity ^0.4.18;\n\nimport \"./ArtPatronDataAccess.sol\";\nimport \"../../node_modules/zeppelin-solidity/contracts/ownership/Ownable.sol\";\n\ncontract ArtPatronManagement is ArtPatronDataAccess, Ownable {\n    function AddItem(\n        string _name,\n        uint _creationDate,\n        uint _authorId,\n        uint _holderId\n    )\n        external onlyOwner\n    {\n        require(authors.length > _authorId);\n        require(holders.length > _holderId);\n\n        items.push(Item(\n            _name,\n            _authorId,\n            _holderId,\n            _creationDate,\n            1 ether,\n            0,\n            0,\n            0\n        ));\n    }\n\n    function AddAuthor(string _name, uint _birthDate)\n        external onlyOwner\n    {\n        authors.push(Author(_name, _birthDate));\n    }\n\n    function AddHolder(string _name, uint16 _countryId)\n        external onlyOwner\n    {\n        holders.push(Holder(_name, _countryId));\n    }\n\n    function ChangeItemHolder(uint _itemId, uint _newHolderId)\n        external onlyOwner\n    {\n        items[_itemId].holderId = _newHolderId;\n    }\n}\n",
  "sourcePath": "/home/shamsfk/projects/artpatron/ethereum/contracts/ArtPatronManagement.sol",
  "compiler": {
    "name": "solc",
    "version": "0.4.21+commit.dfe3193c.Emscripten.clang"
  },
  "schemaVersion": "2.0.0",
  "updatedAt": "2018-04-23T08:09:59.939Z"
}