{
  "contractName": "ArtPatronDataAccess",
  "abi": [
    {
      "constant": true,
      "inputs": [
        {
          "name": "_itemId",
          "type": "uint256"
        }
      ],
      "name": "GetItemData",
      "outputs": [
        {
          "name": "title",
          "type": "string"
        },
        {
          "name": "authorId",
          "type": "uint256"
        },
        {
          "name": "holderId",
          "type": "uint256"
        },
        {
          "name": "creationDate",
          "type": "uint256"
        },
        {
          "name": "currentBid",
          "type": "uint256"
        },
        {
          "name": "tabletDueDate",
          "type": "uint256"
        },
        {
          "name": "patronAddress",
          "type": "address"
        }
      ],
      "payable": false,
      "stateMutability": "view",
      "type": "function"
    },
    {
      "constant": true,
      "inputs": [
        {
          "name": "_authorId",
          "type": "uint256"
        }
      ],
      "name": "GetAuthorData",
      "outputs": [
        {
          "name": "name",
          "type": "string"
        },
        {
          "name": "birthDate",
          "type": "uint256"
        }
      ],
      "payable": false,
      "stateMutability": "view",
      "type": "function"
    },
    {
      "constant": true,
      "inputs": [
        {
          "name": "_holderId",
          "type": "uint256"
        }
      ],
      "name": "GetHolderData",
      "outputs": [
        {
          "name": "name",
          "type": "string"
        },
        {
          "name": "countryId",
          "type": "uint256"
        }
      ],
      "payable": false,
      "stateMutability": "view",
      "type": "function"
    },
    {
      "constant": true,
      "inputs": [],
      "name": "GetItemsLength",
      "outputs": [
        {
          "name": "",
          "type": "uint256"
        }
      ],
      "payable": false,
      "stateMutability": "view",
      "type": "function"
    },
    {
      "constant": true,
      "inputs": [
        {
          "name": "_id",
          "type": "uint256"
        }
      ],
      "name": "GetItemTitle",
      "outputs": [
        {
          "name": "",
          "type": "string"
        }
      ],
      "payable": false,
      "stateMutability": "view",
      "type": "function"
    },
    {
      "constant": true,
      "inputs": [
        {
          "name": "_id",
          "type": "uint256"
        }
      ],
      "name": "GetItemAuthorId",
      "outputs": [
        {
          "name": "",
          "type": "uint256"
        }
      ],
      "payable": false,
      "stateMutability": "view",
      "type": "function"
    },
    {
      "constant": true,
      "inputs": [
        {
          "name": "_id",
          "type": "uint256"
        }
      ],
      "name": "GetItemHolderId",
      "outputs": [
        {
          "name": "",
          "type": "uint256"
        }
      ],
      "payable": false,
      "stateMutability": "view",
      "type": "function"
    },
    {
      "constant": true,
      "inputs": [
        {
          "name": "_id",
          "type": "uint256"
        }
      ],
      "name": "GetItemCreationDate",
      "outputs": [
        {
          "name": "",
          "type": "uint256"
        }
      ],
      "payable": false,
      "stateMutability": "view",
      "type": "function"
    },
    {
      "constant": true,
      "inputs": [
        {
          "name": "_id",
          "type": "uint256"
        }
      ],
      "name": "GetItemCurrentBid",
      "outputs": [
        {
          "name": "",
          "type": "uint256"
        }
      ],
      "payable": false,
      "stateMutability": "view",
      "type": "function"
    },
    {
      "constant": true,
      "inputs": [
        {
          "name": "_id",
          "type": "uint256"
        }
      ],
      "name": "GetItemTabletDueDate",
      "outputs": [
        {
          "name": "",
          "type": "uint256"
        }
      ],
      "payable": false,
      "stateMutability": "view",
      "type": "function"
    },
    {
      "constant": true,
      "inputs": [
        {
          "name": "_id",
          "type": "uint256"
        }
      ],
      "name": "GetItemPatronAddress",
      "outputs": [
        {
          "name": "",
          "type": "address"
        }
      ],
      "payable": false,
      "stateMutability": "view",
      "type": "function"
    },
    {
      "constant": true,
      "inputs": [],
      "name": "GetAuthorsLength",
      "outputs": [
        {
          "name": "",
          "type": "uint256"
        }
      ],
      "payable": false,
      "stateMutability": "view",
      "type": "function"
    },
    {
      "constant": true,
      "inputs": [
        {
          "name": "_id",
          "type": "uint256"
        }
      ],
      "name": "GetAuthorName",
      "outputs": [
        {
          "name": "",
          "type": "string"
        }
      ],
      "payable": false,
      "stateMutability": "view",
      "type": "function"
    },
    {
      "constant": true,
      "inputs": [
        {
          "name": "_id",
          "type": "uint256"
        }
      ],
      "name": "GetAuthorBirthDate",
      "outputs": [
        {
          "name": "",
          "type": "uint256"
        }
      ],
      "payable": false,
      "stateMutability": "view",
      "type": "function"
    },
    {
      "constant": true,
      "inputs": [],
      "name": "GetHoldersLength",
      "outputs": [
        {
          "name": "",
          "type": "uint256"
        }
      ],
      "payable": false,
      "stateMutability": "view",
      "type": "function"
    },
    {
      "constant": true,
      "inputs": [
        {
          "name": "_id",
          "type": "uint256"
        }
      ],
      "name": "GetHolderName",
      "outputs": [
        {
          "name": "",
          "type": "string"
        }
      ],
      "payable": false,
      "stateMutability": "view",
      "type": "function"
    },
    {
      "constant": true,
      "inputs": [
        {
          "name": "_id",
          "type": "uint256"
        }
      ],
      "name": "GetHolderCountryId",
      "outputs": [
        {
          "name": "",
          "type": "uint16"
        }
      ],
      "payable": false,
      "stateMutability": "view",
      "type": "function"
    }
  ],
  "bytecode": "0x6060604052341561000f57600080fd5b610ebd8061001e6000396000f3006060604052600436106100f1576000357c0100000000000000000000000000000000000000000000000000000000900463ffffffff168063058d8fe7146100f657806311d5d1041461013557806313d385f81461016c5780631d3cd083146102085780631f54855614610231578063233f06e714610323578063390a7ced1461035a5780633fde0f53146103915780634f0b4e7a146103ba5780635755b2521461045657806359d602471461048d57806381bda3fe146104b657806398d7b8d7146104ed578063cbe4769314610524578063e5ee34f7146105c0578063eec4f7c914610663578063f4b4006c14610706575b600080fd5b341561010157600080fd5b6101176004808035906020019091905050610769565b604051808261ffff1661ffff16815260200191505060405180910390f35b341561014057600080fd5b61015660048080359060200190919050506107a1565b6040518082815260200191505060405180910390f35b341561017757600080fd5b61018d60048080359060200190919050506107ca565b6040518080602001828103825283818151815260200191508051906020019080838360005b838110156101cd5780820151818401526020810190506101b2565b50505050905090810190601f1680156101fa5780820380516001836020036101000a031916815260200191505b509250505060405180910390f35b341561021357600080fd5b61021b610892565b6040518082815260200191505060405180910390f35b341561023c57600080fd5b610252600480803590602001909190505061089f565b60405180806020018881526020018781526020018681526020018581526020018481526020018373ffffffffffffffffffffffffffffffffffffffff1673ffffffffffffffffffffffffffffffffffffffff168152602001828103825289818151815260200191508051906020019080838360005b838110156102e25780820151818401526020810190506102c7565b50505050905090810190601f16801561030f5780820380516001836020036101000a031916815260200191505b509850505050505050505060405180910390f35b341561032e57600080fd5b61034460048080359060200190919050506109d9565b6040518082815260200191505060405180910390f35b341561036557600080fd5b61037b6004808035906020019091905050610a02565b6040518082815260200191505060405180910390f35b341561039c57600080fd5b6103a4610a2c565b6040518082815260200191505060405180910390f35b34156103c557600080fd5b6103db6004808035906020019091905050610a38565b6040518080602001828103825283818151815260200191508051906020019080838360005b8381101561041b578082015181840152602081019050610400565b50505050905090810190601f1680156104485780820380516001836020036101000a031916815260200191505b509250505060405180910390f35b341561046157600080fd5b6104776004808035906020019091905050610b00565b6040518082815260200191505060405180910390f35b341561049857600080fd5b6104a0610b29565b6040518082815260200191505060405180910390f35b34156104c157600080fd5b6104d76004808035906020019091905050610b36565b6040518082815260200191505060405180910390f35b34156104f857600080fd5b61050e6004808035906020019091905050610b5f565b6040518082815260200191505060405180910390f35b341561052f57600080fd5b6105456004808035906020019091905050610b88565b6040518080602001828103825283818151815260200191508051906020019080838360005b8381101561058557808201518184015260208101905061056a565b50505050905090810190601f1680156105b25780820380516001836020036101000a031916815260200191505b509250505060405180910390f35b34156105cb57600080fd5b6105e16004808035906020019091905050610c50565b6040518080602001838152602001828103825284818151815260200191508051906020019080838360005b8381101561062757808201518184015260208101905061060c565b50505050905090810190601f1680156106545780820380516001836020036101000a031916815260200191505b50935050505060405180910390f35b341561066e57600080fd5b6106846004808035906020019091905050610d39565b6040518080602001838152602001828103825284818151815260200191508051906020019080838360005b838110156106ca5780820151818401526020810190506106af565b50505050905090810190601f1680156106f75780820380516001836020036101000a031916815260200191505b50935050505060405180910390f35b341561071157600080fd5b6107276004808035906020019091905050610e34565b604051808273ffffffffffffffffffffffffffffffffffffffff1673ffffffffffffffffffffffffffffffffffffffff16815260200191505060405180910390f35b600060028281548110151561077a57fe5b906000526020600020906002020160010160009054906101000a900461ffff169050919050565b600080828154811015156107b157fe5b9060005260206000209060070201600101549050919050565b6107d2610e7d565b6001828154811015156107e157fe5b90600052602060002090600202016000018054600181600116156101000203166002900480601f0160208091040260200160405190810160405280929190818152602001828054600181600116156101000203166002900480156108865780601f1061085b57610100808354040283529160200191610886565b820191906000526020600020905b81548152906001019060200180831161086957829003601f168201915b50505050509050919050565b6000600180549050905090565b6108a7610e7d565b6000806000806000806000886000805490501115156108c557600080fd5b6000898154811015156108d457fe5b90600052602060002090600702019050806000018054600181600116156101000203166002900480601f01602080910402602001604051908101604052809291908181526020018280546001816001161561010002031660029004801561097c5780601f106109515761010080835404028352916020019161097c565b820191906000526020600020905b81548152906001019060200180831161095f57829003601f168201915b5050505050975080600101549650806002015495508060030154945080600401549350806005015492508060060160009054906101000a900473ffffffffffffffffffffffffffffffffffffffff16915050919395979092949650565b600080828154811015156109e957fe5b9060005260206000209060070201600301549050919050565b6000600182815481101515610a1357fe5b9060005260206000209060020201600101549050919050565b60008080549050905090565b610a40610e7d565b600282815481101515610a4f57fe5b90600052602060002090600202016000018054600181600116156101000203166002900480601f016020809104026020016040519081016040528092919081815260200182805460018160011615610100020316600290048015610af45780601f10610ac957610100808354040283529160200191610af4565b820191906000526020600020905b815481529060010190602001808311610ad757829003601f168201915b50505050509050919050565b60008082815481101515610b1057fe5b9060005260206000209060070201600401549050919050565b6000600280549050905090565b60008082815481101515610b4657fe5b9060005260206000209060070201600501549050919050565b60008082815481101515610b6f57fe5b9060005260206000209060070201600201549050919050565b610b90610e7d565b600082815481101515610b9f57fe5b90600052602060002090600702016000018054600181600116156101000203166002900480601f016020809104026020016040519081016040528092919081815260200182805460018160011615610100020316600290048015610c445780601f10610c1957610100808354040283529160200191610c44565b820191906000526020600020905b815481529060010190602001808311610c2757829003601f168201915b50505050509050919050565b610c58610e7d565b60008083600180549050111515610c6e57600080fd5b600184815481101515610c7d57fe5b90600052602060002090600202019050806000018054600181600116156101000203166002900480601f016020809104026020016040519081016040528092919081815260200182805460018160011615610100020316600290048015610d255780601f10610cfa57610100808354040283529160200191610d25565b820191906000526020600020905b815481529060010190602001808311610d0857829003601f168201915b505050505092508060010154915050915091565b610d41610e7d565b60008083600280549050111515610d5757600080fd5b600284815481101515610d6657fe5b90600052602060002090600202019050806000018054600181600116156101000203166002900480601f016020809104026020016040519081016040528092919081815260200182805460018160011615610100020316600290048015610e0e5780601f10610de357610100808354040283529160200191610e0e565b820191906000526020600020905b815481529060010190602001808311610df157829003601f168201915b505050505092508060010160009054906101000a900461ffff1661ffff16915050915091565b60008082815481101515610e4457fe5b906000526020600020906007020160060160009054906101000a900473ffffffffffffffffffffffffffffffffffffffff169050919050565b6020604051908101604052806000815250905600a165627a7a7230582059e2a7c50d8521992a3c779768f3d179070c8d664910ef1d2ebccd1d16dec27c0029",
  "source": "pragma solidity ^0.4.18;\n\nimport \"./ArtPatronData.sol\";\n\ncontract ArtPatronDataAccess is ArtPatronData {\n    // Items\n\n    function GetItemsLength() external view returns (uint) {\n        return items.length;\n    }\n\n    function GetItemTitle(uint _id) external view returns(string) {\n        return items[_id].title;\n    }\n\n    function GetItemAuthorId(uint _id) external view returns(uint) {\n        return items[_id].authorId;\n    }\n\n    function GetItemHolderId(uint _id) external view returns(uint) {\n        return items[_id].holderId;\n    }\n\n    function GetItemCreationDate(uint _id) external view returns(uint) {\n        return items[_id].creationDate;\n    }\n\n    function GetItemCurrentBid(uint _id) external view returns(uint) {\n        return items[_id].currentBid;\n    }\n\n    function GetItemTabletDueDate(uint _id) external view returns(uint) {\n        return items[_id].tabletDueDate;\n    }\n\n    function GetItemPatronAddress(uint _id) external view returns(address) {\n        return items[_id].patronAddress;\n    }\n\n    // Authors\n\n    function GetAuthorsLength() external view returns(uint) {\n        return authors.length;\n    }\n\n    function GetAuthorName(uint _id) external view returns(string) {\n        return authors[_id].name;\n    }\n\n    function GetAuthorBirthDate(uint _id) external view returns(uint) {\n        return authors[_id].birthDate;\n    }\n\n    // Holders\n\n    function GetHoldersLength() external view returns(uint) {\n        return holders.length;\n    }\n\n    function GetHolderName(uint _id) external view returns(string) {\n        return holders[_id].name;\n    }\n\n    function GetHolderCountryId(uint _id) external view returns(uint16) {\n        return holders[_id].countryId;\n    }\n}\n",
  "sourcePath": "/home/shamsfk/projects/artpatron/ethereum/contracts/ArtPatronDataAccess.sol",
  "compiler": {
    "name": "solc",
    "version": "0.4.21+commit.dfe3193c.Emscripten.clang"
  },
  "schemaVersion": "2.0.0",
  "updatedAt": "2018-04-23T18:43:58.123Z"
}