{
  "contractName": "ArtPatron",
  "abi": [
    {
      "constant": true,
      "inputs": [
        {
          "name": "_id",
          "type": "uint256"
        }
      ],
      "name": "GetHolderCountryId",
      "outputs": [
        {
          "name": "",
          "type": "uint16"
        }
      ],
      "payable": false,
      "stateMutability": "view",
      "type": "function"
    },
    {
      "constant": true,
      "inputs": [
        {
          "name": "_id",
          "type": "uint256"
        }
      ],
      "name": "GetItemAuthorId",
      "outputs": [
        {
          "name": "",
          "type": "uint256"
        }
      ],
      "payable": false,
      "stateMutability": "view",
      "type": "function"
    },
    {
      "constant": true,
      "inputs": [
        {
          "name": "_id",
          "type": "uint256"
        }
      ],
      "name": "GetAuthorName",
      "outputs": [
        {
          "name": "",
          "type": "string"
        }
      ],
      "payable": false,
      "stateMutability": "view",
      "type": "function"
    },
    {
      "constant": true,
      "inputs": [],
      "name": "GetAuthorsLength",
      "outputs": [
        {
          "name": "",
          "type": "uint256"
        }
      ],
      "payable": false,
      "stateMutability": "view",
      "type": "function"
    },
    {
      "constant": true,
      "inputs": [
        {
          "name": "_id",
          "type": "uint256"
        }
      ],
      "name": "GetItemCreationDate",
      "outputs": [
        {
          "name": "",
          "type": "uint256"
        }
      ],
      "payable": false,
      "stateMutability": "view",
      "type": "function"
    },
    {
      "constant": true,
      "inputs": [
        {
          "name": "_id",
          "type": "uint256"
        }
      ],
      "name": "GetAuthorBirthDate",
      "outputs": [
        {
          "name": "",
          "type": "uint256"
        }
      ],
      "payable": false,
      "stateMutability": "view",
      "type": "function"
    },
    {
      "constant": true,
      "inputs": [],
      "name": "GetItemsLength",
      "outputs": [
        {
          "name": "",
          "type": "uint256"
        }
      ],
      "payable": false,
      "stateMutability": "view",
      "type": "function"
    },
    {
      "constant": false,
      "inputs": [
        {
          "name": "_itemId",
          "type": "uint256"
        },
        {
          "name": "_newHolderId",
          "type": "uint256"
        }
      ],
      "name": "ChangeItemHolder",
      "outputs": [],
      "payable": false,
      "stateMutability": "nonpayable",
      "type": "function"
    },
    {
      "constant": true,
      "inputs": [
        {
          "name": "_id",
          "type": "uint256"
        }
      ],
      "name": "GetHolderName",
      "outputs": [
        {
          "name": "",
          "type": "string"
        }
      ],
      "payable": false,
      "stateMutability": "view",
      "type": "function"
    },
    {
      "constant": false,
      "inputs": [
        {
          "name": "_name",
          "type": "string"
        },
        {
          "name": "_countryId",
          "type": "uint16"
        }
      ],
      "name": "AddHolder",
      "outputs": [],
      "payable": false,
      "stateMutability": "nonpayable",
      "type": "function"
    },
    {
      "constant": true,
      "inputs": [
        {
          "name": "_id",
          "type": "uint256"
        }
      ],
      "name": "GetItemCurrentBid",
      "outputs": [
        {
          "name": "",
          "type": "uint256"
        }
      ],
      "payable": false,
      "stateMutability": "view",
      "type": "function"
    },
    {
      "constant": true,
      "inputs": [],
      "name": "GetHoldersLength",
      "outputs": [
        {
          "name": "",
          "type": "uint256"
        }
      ],
      "payable": false,
      "stateMutability": "view",
      "type": "function"
    },
    {
      "constant": false,
      "inputs": [
        {
          "name": "_name",
          "type": "string"
        },
        {
          "name": "_creationDate",
          "type": "uint256"
        },
        {
          "name": "_authorId",
          "type": "uint256"
        },
        {
          "name": "_holderId",
          "type": "uint256"
        }
      ],
      "name": "AddItem",
      "outputs": [],
      "payable": false,
      "stateMutability": "nonpayable",
      "type": "function"
    },
    {
      "constant": true,
      "inputs": [
        {
          "name": "_id",
          "type": "uint256"
        }
      ],
      "name": "GetItemTabletDueDate",
      "outputs": [
        {
          "name": "",
          "type": "uint256"
        }
      ],
      "payable": false,
      "stateMutability": "view",
      "type": "function"
    },
    {
      "constant": true,
      "inputs": [],
      "name": "owner",
      "outputs": [
        {
          "name": "",
          "type": "address"
        }
      ],
      "payable": false,
      "stateMutability": "view",
      "type": "function"
    },
    {
      "constant": false,
      "inputs": [
        {
          "name": "_name",
          "type": "string"
        },
        {
          "name": "_birthDate",
          "type": "uint256"
        }
      ],
      "name": "AddAuthor",
      "outputs": [],
      "payable": false,
      "stateMutability": "nonpayable",
      "type": "function"
    },
    {
      "constant": true,
      "inputs": [
        {
          "name": "_id",
          "type": "uint256"
        }
      ],
      "name": "GetItemHolderId",
      "outputs": [
        {
          "name": "",
          "type": "uint256"
        }
      ],
      "payable": false,
      "stateMutability": "view",
      "type": "function"
    },
    {
      "constant": true,
      "inputs": [
        {
          "name": "_id",
          "type": "uint256"
        }
      ],
      "name": "GetItemTitle",
      "outputs": [
        {
          "name": "",
          "type": "string"
        }
      ],
      "payable": false,
      "stateMutability": "view",
      "type": "function"
    },
    {
      "constant": false,
      "inputs": [
        {
          "name": "newOwner",
          "type": "address"
        }
      ],
      "name": "transferOwnership",
      "outputs": [],
      "payable": false,
      "stateMutability": "nonpayable",
      "type": "function"
    },
    {
      "constant": true,
      "inputs": [
        {
          "name": "_id",
          "type": "uint256"
        }
      ],
      "name": "GetItemPatronAddress",
      "outputs": [
        {
          "name": "",
          "type": "address"
        }
      ],
      "payable": false,
      "stateMutability": "view",
      "type": "function"
    },
    {
      "inputs": [],
      "payable": false,
      "stateMutability": "nonpayable",
      "type": "constructor"
    },
    {
      "anonymous": false,
      "inputs": [
        {
          "indexed": true,
          "name": "previousOwner",
          "type": "address"
        },
        {
          "indexed": true,
          "name": "newOwner",
          "type": "address"
        }
      ],
      "name": "OwnershipTransferred",
      "type": "event"
    }
  ],
  "bytecode": "0x606060405234156200001057600080fd5b33600560006101000a81548173ffffffffffffffffffffffffffffffffffffffff021916908373ffffffffffffffffffffffffffffffffffffffff16021790555060018054806001018281620000679190620005e4565b9160005260206000209060020201600060408051908101604052806040805190810160405280600581526020017f4d6f6e65740000000000000000000000000000000000000000000000000000008152508152602001600081525090919091506000820151816000019080519060200190620000e592919062000619565b506020820151816001015550505060028054806001018281620001099190620006a0565b9160005260206000209060020201600060408051908101604052806040805190810160405280601581526020017f54726574796b6f76736b6179612047616c6c65727900000000000000000000008152508152602001600761ffff16815250909190915060008201518160000190805190602001906200018b92919062000619565b5060208201518160010160006101000a81548161ffff021916908361ffff16021790555050505060008054806001018281620001c89190620006d5565b91600052602060002090600802016000610100604051908101604052806040805190810160405280600681526020017f4974656d203100000000000000000000000000000000000000000000000000008152508152602001600081526020016000815260200160008152602001670de0b6b3a764000081526020016000815260200160008152602001600073ffffffffffffffffffffffffffffffffffffffff16815250909190915060008201518160000190805190602001906200028f92919062000619565b506020820151816001015560408201518160020155606082015181600301556080820151816004015560a0820151816005015560c0820151816006015560e08201518160070160006101000a81548173ffffffffffffffffffffffffffffffffffffffff021916908373ffffffffffffffffffffffffffffffffffffffff160217905550505050600080548060010182816200032c9190620006d5565b91600052602060002090600802016000610100604051908101604052806040805190810160405280600681526020017f4974656d203200000000000000000000000000000000000000000000000000008152508152602001600081526020016000815260200160008152602001670de0b6b3a764000081526020016000815260200160008152602001600073ffffffffffffffffffffffffffffffffffffffff1681525090919091506000820151816000019080519060200190620003f392919062000619565b506020820151816001015560408201518160020155606082015181600301556080820151816004015560a0820151816005015560c0820151816006015560e08201518160070160006101000a81548173ffffffffffffffffffffffffffffffffffffffff021916908373ffffffffffffffffffffffffffffffffffffffff16021790555050505060008054806001018281620004909190620006d5565b91600052602060002090600802016000610100604051908101604052806040805190810160405280600681526020017f4974656d203300000000000000000000000000000000000000000000000000008152508152602001600081526020016000815260200160008152602001670de0b6b3a764000081526020016000815260200160008152602001600073ffffffffffffffffffffffffffffffffffffffff16815250909190915060008201518160000190805190602001906200055792919062000619565b506020820151816001015560408201518160020155606082015181600301556080820151816004015560a0820151816005015560c0820151816006015560e08201518160070160006101000a81548173ffffffffffffffffffffffffffffffffffffffff021916908373ffffffffffffffffffffffffffffffffffffffff1602179055505050506200088e565b81548183558181151162000614576002028160020283600052602060002091820191016200061391906200070a565b5b505050565b828054600181600116156101000203166002900490600052602060002090601f016020900481019282601f106200065c57805160ff19168380011785556200068d565b828001600101855582156200068d579182015b828111156200068c5782518255916020019190600101906200066f565b5b5090506200069c919062000746565b5090565b815481835581811511620006d057600202816002028360005260206000209182019101620006cf91906200076e565b5b505050565b8154818355818115116200070557600802816008028360005260206000209182019101620007049190620007b7565b5b505050565b6200074391905b808211156200073f57600080820160006200072d919062000842565b60018201600090555060020162000711565b5090565b90565b6200076b91905b80821115620007675760008160009055506001016200074d565b5090565b90565b620007b491905b80821115620007b0576000808201600062000791919062000842565b6001820160006101000a81549061ffff02191690555060020162000775565b5090565b90565b6200083f91905b808211156200083b5760008082016000620007da919062000842565b6001820160009055600282016000905560038201600090556004820160009055600582016000905560068201600090556007820160006101000a81549073ffffffffffffffffffffffffffffffffffffffff021916905550600801620007be565b5090565b90565b50805460018160011615610100020316600290046000825580601f106200086a57506200088b565b601f0160209004906000526020600020908101906200088a919062000746565b5b50565b61137a806200089e6000396000f300606060405260043610610112576000357c0100000000000000000000000000000000000000000000000000000000900463ffffffff168063058d8fe71461011757806311d5d1041461015657806313d385f81461018d5780631d3cd08314610229578063233f06e714610252578063390a7ced146102895780633fde0f53146102c057806345e1a2da146102e95780634f0b4e7a1461031557806353946e5d146103b15780635755b252146103ec57806359d60247146104235780636cd227e31461044c57806381bda3fe146104955780638da5cb5b146104cc5780639730a9e11461052157806398d7b8d714610558578063cbe476931461058f578063f2fde38b1461062b578063f4b4006c14610664575b600080fd5b341561012257600080fd5b61013860048080359060200190919050506106c7565b604051808261ffff1661ffff16815260200191505060405180910390f35b341561016157600080fd5b61017760048080359060200190919050506106ff565b6040518082815260200191505060405180910390f35b341561019857600080fd5b6101ae6004808035906020019091905050610728565b6040518080602001828103825283818151815260200191508051906020019080838360005b838110156101ee5780820151818401526020810190506101d3565b50505050905090810190601f16801561021b5780820380516001836020036101000a031916815260200191505b509250505060405180910390f35b341561023457600080fd5b61023c6107f0565b6040518082815260200191505060405180910390f35b341561025d57600080fd5b61027360048080359060200190919050506107fd565b6040518082815260200191505060405180910390f35b341561029457600080fd5b6102aa6004808035906020019091905050610826565b6040518082815260200191505060405180910390f35b34156102cb57600080fd5b6102d3610850565b6040518082815260200191505060405180910390f35b34156102f457600080fd5b610313600480803590602001909190803590602001909190505061085c565b005b341561032057600080fd5b61033660048080359060200190919050506108e1565b6040518080602001828103825283818151815260200191508051906020019080838360005b8381101561037657808201518184015260208101905061035b565b50505050905090810190601f1680156103a35780820380516001836020036101000a031916815260200191505b509250505060405180910390f35b34156103bc57600080fd5b6103ea6004808035906020019082018035906020019190919290803561ffff169060200190919050506109a9565b005b34156103f757600080fd5b61040d6004808035906020019091905050610ac1565b6040518082815260200191505060405180910390f35b341561042e57600080fd5b610436610aea565b6040518082815260200191505060405180910390f35b341561045757600080fd5b61049360048080359060200190820180359060200191909192908035906020019091908035906020019091908035906020019091905050610af7565b005b34156104a057600080fd5b6104b66004808035906020019091905050610cda565b6040518082815260200191505060405180910390f35b34156104d757600080fd5b6104df610d03565b604051808273ffffffffffffffffffffffffffffffffffffffff1673ffffffffffffffffffffffffffffffffffffffff16815260200191505060405180910390f35b341561052c57600080fd5b61055660048080359060200190820180359060200191909192908035906020019091905050610d29565b005b341561056357600080fd5b6105796004808035906020019091905050610e24565b6040518082815260200191505060405180910390f35b341561059a57600080fd5b6105b06004808035906020019091905050610e4d565b6040518080602001828103825283818151815260200191508051906020019080838360005b838110156105f05780820151818401526020810190506105d5565b50505050905090810190601f16801561061d5780820380516001836020036101000a031916815260200191505b509250505060405180910390f35b341561063657600080fd5b610662600480803573ffffffffffffffffffffffffffffffffffffffff16906020019091905050610f15565b005b341561066f57600080fd5b610685600480803590602001909190505061106d565b604051808273ffffffffffffffffffffffffffffffffffffffff1673ffffffffffffffffffffffffffffffffffffffff16815260200191505060405180910390f35b60006002828154811015156106d857fe5b906000526020600020906002020160010160009054906101000a900461ffff169050919050565b6000808281548110151561070f57fe5b9060005260206000209060080201600101549050919050565b6107306110b6565b60018281548110151561073f57fe5b90600052602060002090600202016000018054600181600116156101000203166002900480601f0160208091040260200160405190810160405280929190818152602001828054600181600116156101000203166002900480156107e45780601f106107b9576101008083540402835291602001916107e4565b820191906000526020600020905b8154815290600101906020018083116107c757829003601f168201915b50505050509050919050565b6000600180549050905090565b6000808281548110151561080d57fe5b9060005260206000209060080201600301549050919050565b600060018281548110151561083757fe5b9060005260206000209060020201600101549050919050565b60008080549050905090565b600560009054906101000a900473ffffffffffffffffffffffffffffffffffffffff1673ffffffffffffffffffffffffffffffffffffffff163373ffffffffffffffffffffffffffffffffffffffff161415156108b857600080fd5b806000838154811015156108c857fe5b9060005260206000209060080201600201819055505050565b6108e96110b6565b6002828154811015156108f857fe5b90600052602060002090600202016000018054600181600116156101000203166002900480601f01602080910402602001604051908101604052809291908181526020018280546001816001161561010002031660029004801561099d5780601f106109725761010080835404028352916020019161099d565b820191906000526020600020905b81548152906001019060200180831161098057829003601f168201915b50505050509050919050565b600560009054906101000a900473ffffffffffffffffffffffffffffffffffffffff1673ffffffffffffffffffffffffffffffffffffffff163373ffffffffffffffffffffffffffffffffffffffff16141515610a0557600080fd5b60028054806001018281610a1991906110ca565b91600052602060002090600202016000604080519081016040528087878080601f01602080910402602001604051908101604052809392919081815260200183838082843782019150505050505081526020018561ffff1681525090919091506000820151816000019080519060200190610a959291906110fc565b5060208201518160010160006101000a81548161ffff021916908361ffff160217905550505050505050565b60008082815481101515610ad157fe5b9060005260206000209060080201600401549050919050565b6000600280549050905090565b600560009054906101000a900473ffffffffffffffffffffffffffffffffffffffff1673ffffffffffffffffffffffffffffffffffffffff163373ffffffffffffffffffffffffffffffffffffffff16141515610b5357600080fd5b81600180549050111515610b6657600080fd5b80600280549050111515610b7957600080fd5b60008054806001018281610b8d919061117c565b916000526020600020906008020160006101006040519081016040528089898080601f0160208091040260200160405190810160405280939291908181526020018383808284378201915050505050508152602001868152602001858152602001878152602001670de0b6b3a764000081526020016000815260200160008152602001600073ffffffffffffffffffffffffffffffffffffffff1681525090919091506000820151816000019080519060200190610c4c9291906110fc565b506020820151816001015560408201518160020155606082015181600301556080820151816004015560a0820151816005015560c0820151816006015560e08201518160070160006101000a81548173ffffffffffffffffffffffffffffffffffffffff021916908373ffffffffffffffffffffffffffffffffffffffff1602179055505050505050505050565b60008082815481101515610cea57fe5b9060005260206000209060080201600601549050919050565b600560009054906101000a900473ffffffffffffffffffffffffffffffffffffffff1681565b600560009054906101000a900473ffffffffffffffffffffffffffffffffffffffff1673ffffffffffffffffffffffffffffffffffffffff163373ffffffffffffffffffffffffffffffffffffffff16141515610d8557600080fd5b60018054806001018281610d9991906111ae565b91600052602060002090600202016000604080519081016040528087878080601f01602080910402602001604051908101604052809392919081815260200183838082843782019150505050505081526020018581525090919091506000820151816000019080519060200190610e119291906110fc565b5060208201518160010155505050505050565b60008082815481101515610e3457fe5b9060005260206000209060080201600201549050919050565b610e556110b6565b600082815481101515610e6457fe5b90600052602060002090600802016000018054600181600116156101000203166002900480601f016020809104026020016040519081016040528092919081815260200182805460018160011615610100020316600290048015610f095780601f10610ede57610100808354040283529160200191610f09565b820191906000526020600020905b815481529060010190602001808311610eec57829003601f168201915b50505050509050919050565b600560009054906101000a900473ffffffffffffffffffffffffffffffffffffffff1673ffffffffffffffffffffffffffffffffffffffff163373ffffffffffffffffffffffffffffffffffffffff16141515610f7157600080fd5b600073ffffffffffffffffffffffffffffffffffffffff168173ffffffffffffffffffffffffffffffffffffffff1614151515610fad57600080fd5b8073ffffffffffffffffffffffffffffffffffffffff16600560009054906101000a900473ffffffffffffffffffffffffffffffffffffffff1673ffffffffffffffffffffffffffffffffffffffff167f8be0079c531659141344cd1fd0a4f28419497f9722a3daafe3b4186f6b6457e060405160405180910390a380600560006101000a81548173ffffffffffffffffffffffffffffffffffffffff021916908373ffffffffffffffffffffffffffffffffffffffff16021790555050565b6000808281548110151561107d57fe5b906000526020600020906008020160070160009054906101000a900473ffffffffffffffffffffffffffffffffffffffff169050919050565b602060405190810160405280600081525090565b8154818355818115116110f7576002028160020283600052602060002091820191016110f691906111e0565b5b505050565b828054600181600116156101000203166002900490600052602060002090601f016020900481019282601f1061113d57805160ff191683800117855561116b565b8280016001018555821561116b579182015b8281111561116a57825182559160200191906001019061114f565b5b5090506111789190611224565b5090565b8154818355818115116111a9576008028160080283600052602060002091820191016111a89190611249565b5b505050565b8154818355818115116111db576002028160020283600052602060002091820191016111da91906112cf565b5b505050565b61122191905b8082111561121d57600080820160006111ff9190611306565b6001820160006101000a81549061ffff0219169055506002016111e6565b5090565b90565b61124691905b8082111561124257600081600090555060010161122a565b5090565b90565b6112cc91905b808211156112c857600080820160006112689190611306565b6001820160009055600282016000905560038201600090556004820160009055600582016000905560068201600090556007820160006101000a81549073ffffffffffffffffffffffffffffffffffffffff02191690555060080161124f565b5090565b90565b61130391905b808211156112ff57600080820160006112ee9190611306565b6001820160009055506002016112d5565b5090565b90565b50805460018160011615610100020316600290046000825580601f1061132c575061134b565b601f01602090049060005260206000209081019061134a9190611224565b5b505600a165627a7a7230582069ac5ef127eb5fad6499ca19c62bfcf8c79f84618e9c40ed79cbc49f4a9375220029",
  "source": "pragma solidity ^0.4.18;\n\nimport \"./ArtPatronManagement.sol\";\n\ncontract ArtPatron is ArtPatronManagement {\n    function ArtPatron() public {\n\n        // TODO: remove this code as it is intended for test only\n        authors.push(Author(\"Monet\", 0));\n        holders.push(Holder(\"Tretykovskaya Gallery\", 7));\n        items.push(Item(\"Item 1\", 0, 0, 0, 1 ether, 0, 0, 0));\n        items.push(Item(\"Item 2\", 0, 0, 0, 1 ether, 0, 0, 0));\n        items.push(Item(\"Item 3\", 0, 0, 0, 1 ether, 0, 0, 0));\n    }\n}\n",
  "sourcePath": "/home/shamsfk/projects/artpatron/ethereum/contracts/ArtPatron.sol",
  "compiler": {
    "name": "solc",
    "version": "0.4.21+commit.dfe3193c.Emscripten.clang"
  },
  "schemaVersion": "2.0.0",
  "updatedAt": "2018-04-19T07:42:42.168Z"
}