{
  "contractName": "ArtPatronManagement",
  "abi": [
    {
      "constant": true,
      "inputs": [],
      "name": "GetAuthorsLength",
      "outputs": [
        {
          "name": "",
          "type": "uint256"
        }
      ],
      "payable": false,
      "stateMutability": "view",
      "type": "function"
    },
    {
      "constant": true,
      "inputs": [
        {
          "name": "_itemId",
          "type": "uint256"
        }
      ],
      "name": "GetItemData",
      "outputs": [
        {
          "name": "name",
          "type": "string"
        },
        {
          "name": "id",
          "type": "uint256"
        },
        {
          "name": "authorId",
          "type": "uint256"
        },
        {
          "name": "holderId",
          "type": "uint256"
        },
        {
          "name": "creationDate",
          "type": "uint256"
        },
        {
          "name": "currentBid",
          "type": "uint256"
        },
        {
          "name": "tabletDueDate",
          "type": "uint256"
        },
        {
          "name": "patronAddress",
          "type": "address"
        }
      ],
      "payable": false,
      "stateMutability": "view",
      "type": "function"
    },
    {
      "constant": true,
      "inputs": [],
      "name": "GetItemsLength",
      "outputs": [
        {
          "name": "",
          "type": "uint256"
        }
      ],
      "payable": false,
      "stateMutability": "view",
      "type": "function"
    },
    {
      "constant": true,
      "inputs": [],
      "name": "GetHoldersLength",
      "outputs": [
        {
          "name": "",
          "type": "uint256"
        }
      ],
      "payable": false,
      "stateMutability": "view",
      "type": "function"
    },
    {
      "constant": true,
      "inputs": [],
      "name": "owner",
      "outputs": [
        {
          "name": "",
          "type": "address"
        }
      ],
      "payable": false,
      "stateMutability": "view",
      "type": "function"
    },
    {
      "constant": true,
      "inputs": [
        {
          "name": "_authorId",
          "type": "uint256"
        }
      ],
      "name": "GetAuthorData",
      "outputs": [
        {
          "name": "name",
          "type": "string"
        },
        {
          "name": "id",
          "type": "uint256"
        },
        {
          "name": "birthDate",
          "type": "uint256"
        }
      ],
      "payable": false,
      "stateMutability": "view",
      "type": "function"
    },
    {
      "constant": true,
      "inputs": [
        {
          "name": "_holderId",
          "type": "uint256"
        }
      ],
      "name": "GetHolderData",
      "outputs": [
        {
          "name": "name",
          "type": "string"
        },
        {
          "name": "id",
          "type": "uint256"
        },
        {
          "name": "countryId",
          "type": "uint256"
        }
      ],
      "payable": false,
      "stateMutability": "view",
      "type": "function"
    },
    {
      "constant": false,
      "inputs": [
        {
          "name": "newOwner",
          "type": "address"
        }
      ],
      "name": "transferOwnership",
      "outputs": [],
      "payable": false,
      "stateMutability": "nonpayable",
      "type": "function"
    },
    {
      "anonymous": false,
      "inputs": [
        {
          "indexed": false,
          "name": "itemId",
          "type": "uint256"
        }
      ],
      "name": "ItemAdded",
      "type": "event"
    },
    {
      "anonymous": false,
      "inputs": [
        {
          "indexed": false,
          "name": "authroId",
          "type": "uint256"
        }
      ],
      "name": "AuthorAdded",
      "type": "event"
    },
    {
      "anonymous": false,
      "inputs": [
        {
          "indexed": false,
          "name": "holderId",
          "type": "uint256"
        }
      ],
      "name": "HolderAdded",
      "type": "event"
    },
    {
      "anonymous": false,
      "inputs": [
        {
          "indexed": false,
          "name": "itemId",
          "type": "uint256"
        }
      ],
      "name": "ItemHolderChanged",
      "type": "event"
    },
    {
      "anonymous": false,
      "inputs": [
        {
          "indexed": true,
          "name": "previousOwner",
          "type": "address"
        },
        {
          "indexed": true,
          "name": "newOwner",
          "type": "address"
        }
      ],
      "name": "OwnershipTransferred",
      "type": "event"
    },
    {
      "constant": false,
      "inputs": [
        {
          "name": "_name",
          "type": "string"
        },
        {
          "name": "_creationDate",
          "type": "uint256"
        },
        {
          "name": "_authorId",
          "type": "uint256"
        },
        {
          "name": "_holderId",
          "type": "uint256"
        }
      ],
      "name": "AddItem",
      "outputs": [],
      "payable": false,
      "stateMutability": "nonpayable",
      "type": "function"
    },
    {
      "constant": false,
      "inputs": [
        {
          "name": "_name",
          "type": "string"
        },
        {
          "name": "_birthDate",
          "type": "uint256"
        }
      ],
      "name": "AddAuthor",
      "outputs": [],
      "payable": false,
      "stateMutability": "nonpayable",
      "type": "function"
    },
    {
      "constant": false,
      "inputs": [
        {
          "name": "_name",
          "type": "string"
        },
        {
          "name": "_countryId",
          "type": "uint16"
        }
      ],
      "name": "AddHolder",
      "outputs": [],
      "payable": false,
      "stateMutability": "nonpayable",
      "type": "function"
    },
    {
      "constant": false,
      "inputs": [
        {
          "name": "_itemId",
          "type": "uint256"
        },
        {
          "name": "_newHolderId",
          "type": "uint256"
        }
      ],
      "name": "ChangeItemHolder",
      "outputs": [],
      "payable": false,
      "stateMutability": "nonpayable",
      "type": "function"
    }
  ],
  "bytecode": "0x606060405233600560006101000a81548173ffffffffffffffffffffffffffffffffffffffff021916908373ffffffffffffffffffffffffffffffffffffffff16021790555061128c806100546000396000f3006060604052600436106100ba576000357c0100000000000000000000000000000000000000000000000000000000900463ffffffff1680631d3cd083146100bf5780631f548556146100e85780633fde0f53146101e157806345e1a2da1461020a57806353946e5d1461023657806359d60247146102715780636cd227e31461029a5780638da5cb5b146102e35780639730a9e114610338578063e5ee34f71461036f578063eec4f7c914610419578063f2fde38b146104c3575b600080fd5b34156100ca57600080fd5b6100d26104fc565b6040518082815260200191505060405180910390f35b34156100f357600080fd5b6101096004808035906020019091905050610509565b60405180806020018981526020018881526020018781526020018681526020018581526020018481526020018373ffffffffffffffffffffffffffffffffffffffff1673ffffffffffffffffffffffffffffffffffffffff16815260200182810382528a818151815260200191508051906020019080838360005b8381101561019f578082015181840152602081019050610184565b50505050905090810190601f1680156101cc5780820380516001836020036101000a031916815260200191505b50995050505050505050505060405180910390f35b34156101ec57600080fd5b6101f461064b565b6040518082815260200191505060405180910390f35b341561021557600080fd5b6102346004808035906020019091908035906020019091905050610657565b005b341561024157600080fd5b61026f6004808035906020019082018035906020019190919290803561ffff16906020019091905050610713565b005b341561027c57600080fd5b610284610895565b6040518082815260200191505060405180910390f35b34156102a557600080fd5b6102e1600480803590602001908201803590602001919091929080359060200190919080359060200190919080359060200190919050506108a2565b005b34156102ee57600080fd5b6102f6610add565b604051808273ffffffffffffffffffffffffffffffffffffffff1673ffffffffffffffffffffffffffffffffffffffff16815260200191505060405180910390f35b341561034357600080fd5b61036d60048080359060200190820180359060200191909192908035906020019091905050610b03565b005b341561037a57600080fd5b6103906004808035906020019091905050610c66565b6040518080602001848152602001838152602001828103825285818151815260200191508051906020019080838360005b838110156103dc5780820151818401526020810190506103c1565b50505050905090810190601f1680156104095780820380516001836020036101000a031916815260200191505b5094505050505060405180910390f35b341561042457600080fd5b61043a6004808035906020019091905050610d5a565b6040518080602001848152602001838152602001828103825285818151815260200191508051906020019080838360005b8381101561048657808201518184015260208101905061046b565b50505050905090810190601f1680156104b35780820380516001836020036101000a031916815260200191505b5094505050505060405180910390f35b34156104ce57600080fd5b6104fa600480803573ffffffffffffffffffffffffffffffffffffffff16906020019091905050610e60565b005b6000600180549050905090565b610511610fb8565b6000806000806000806000808960008054905011151561053057600080fd5b60008a81548110151561053f57fe5b90600052602060002090600802019050806000018054600181600116156101000203166002900480601f0160208091040260200160405190810160405280929190818152602001828054600181600116156101000203166002900480156105e75780601f106105bc576101008083540402835291602001916105e7565b820191906000526020600020905b8154815290600101906020018083116105ca57829003601f168201915b505050505098508060010154975080600201549650806003015495508060040154945080600501549350806006015492508060070160009054906101000a900473ffffffffffffffffffffffffffffffffffffffff16915050919395975091939597565b60008080549050905090565b600560009054906101000a900473ffffffffffffffffffffffffffffffffffffffff1673ffffffffffffffffffffffffffffffffffffffff163373ffffffffffffffffffffffffffffffffffffffff161415156106b357600080fd5b806000838154811015156106c357fe5b9060005260206000209060080201600301819055507fc80b2a507461bdf13f90d6e4cabec254fea31d19046a6ab6aaae2006586ee6f1826040518082815260200191505060405180910390a15050565b600560009054906101000a900473ffffffffffffffffffffffffffffffffffffffff1673ffffffffffffffffffffffffffffffffffffffff163373ffffffffffffffffffffffffffffffffffffffff1614151561076f57600080fd5b60008383905011151561078157600080fd5b600280548060010182816107959190610fcc565b9160005260206000209060030201600060606040519081016040528087878080601f016020809104026020016040519081016040528093929190818152602001838380828437820191505050505050815260200160016002805490500381526020018561ffff1681525090919091506000820151816000019080519060200190610820929190610ffe565b506020820151816001015560408201518160020160006101000a81548161ffff021916908361ffff1602179055505050507fe3b761f18b620ece6fcdb14fa29a98a03ee065f25358cae0c3eddd0d26e7850d6001600280549050036040518082815260200191505060405180910390a1505050565b6000600280549050905090565b600560009054906101000a900473ffffffffffffffffffffffffffffffffffffffff1673ffffffffffffffffffffffffffffffffffffffff163373ffffffffffffffffffffffffffffffffffffffff161415156108fe57600080fd5b8160018054905011151561091157600080fd5b8060028054905011151561092457600080fd5b60008585905011151561093657600080fd5b6000805480600101828161094a919061107e565b916000526020600020906008020160006101006040519081016040528089898080601f01602080910402602001604051908101604052809392919081815260200183838082843782019150505050505081526020016001600080549050038152602001868152602001858152602001878152602001670de0b6b3a7640000815260200160008152602001600073ffffffffffffffffffffffffffffffffffffffff1681525090919091506000820151816000019080519060200190610a10929190610ffe565b506020820151816001015560408201518160020155606082015181600301556080820151816004015560a0820151816005015560c0820151816006015560e08201518160070160006101000a81548173ffffffffffffffffffffffffffffffffffffffff021916908373ffffffffffffffffffffffffffffffffffffffff1602179055505050507f186760a37e06b130959978c68b5c592841caf4f64de1dc960b2c54cf454ca9dd6001600080549050036040518082815260200191505060405180910390a15050505050565b600560009054906101000a900473ffffffffffffffffffffffffffffffffffffffff1681565b600560009054906101000a900473ffffffffffffffffffffffffffffffffffffffff1673ffffffffffffffffffffffffffffffffffffffff163373ffffffffffffffffffffffffffffffffffffffff16141515610b5f57600080fd5b600083839050111515610b7157600080fd5b60018054806001018281610b8591906110b0565b9160005260206000209060030201600060606040519081016040528087878080601f0160208091040260200160405190810160405280939291908181526020018383808284378201915050505050508152602001600180805490500381526020018581525090919091506000820151816000019080519060200190610c0b929190610ffe565b5060208201518160010155604082015181600201555050507f893b6c60166e13bdcaac5ed8b58be564952549481dc61e31e3ae20c1d0d7e29260018080549050036040518082815260200191505060405180910390a1505050565b610c6e610fb8565b600080600084600180549050111515610c8657600080fd5b600185815481101515610c9557fe5b90600052602060002090600302019050806000018054600181600116156101000203166002900480601f016020809104026020016040519081016040528092919081815260200182805460018160011615610100020316600290048015610d3d5780601f10610d1257610100808354040283529160200191610d3d565b820191906000526020600020905b815481529060010190602001808311610d2057829003601f168201915b505050505093508060010154925080600201549150509193909250565b610d62610fb8565b600080600084600280549050111515610d7a57600080fd5b600285815481101515610d8957fe5b90600052602060002090600302019050806000018054600181600116156101000203166002900480601f016020809104026020016040519081016040528092919081815260200182805460018160011615610100020316600290048015610e315780601f10610e0657610100808354040283529160200191610e31565b820191906000526020600020905b815481529060010190602001808311610e1457829003601f168201915b50505050509350806001015492508060020160009054906101000a900461ffff1661ffff169150509193909250565b600560009054906101000a900473ffffffffffffffffffffffffffffffffffffffff1673ffffffffffffffffffffffffffffffffffffffff163373ffffffffffffffffffffffffffffffffffffffff16141515610ebc57600080fd5b600073ffffffffffffffffffffffffffffffffffffffff168173ffffffffffffffffffffffffffffffffffffffff1614151515610ef857600080fd5b8073ffffffffffffffffffffffffffffffffffffffff16600560009054906101000a900473ffffffffffffffffffffffffffffffffffffffff1673ffffffffffffffffffffffffffffffffffffffff167f8be0079c531659141344cd1fd0a4f28419497f9722a3daafe3b4186f6b6457e060405160405180910390a380600560006101000a81548173ffffffffffffffffffffffffffffffffffffffff021916908373ffffffffffffffffffffffffffffffffffffffff16021790555050565b602060405190810160405280600081525090565b815481835581811511610ff957600302816003028360005260206000209182019101610ff891906110e2565b5b505050565b828054600181600116156101000203166002900490600052602060002090601f016020900481019282601f1061103f57805160ff191683800117855561106d565b8280016001018555821561106d579182015b8281111561106c578251825591602001919060010190611051565b5b50905061107a919061112e565b5090565b8154818355818115116110ab576008028160080283600052602060002091820191016110aa9190611153565b5b505050565b8154818355818115116110dd576003028160030283600052602060002091820191016110dc91906111d9565b5b505050565b61112b91905b8082111561112757600080820160006111019190611218565b60018201600090556002820160006101000a81549061ffff0219169055506003016110e8565b5090565b90565b61115091905b8082111561114c576000816000905550600101611134565b5090565b90565b6111d691905b808211156111d257600080820160006111729190611218565b6001820160009055600282016000905560038201600090556004820160009055600582016000905560068201600090556007820160006101000a81549073ffffffffffffffffffffffffffffffffffffffff021916905550600801611159565b5090565b90565b61121591905b8082111561121157600080820160006111f89190611218565b60018201600090556002820160009055506003016111df565b5090565b90565b50805460018160011615610100020316600290046000825580601f1061123e575061125d565b601f01602090049060005260206000209081019061125c919061112e565b5b505600a165627a7a72305820ad68d87bb9ba3121868c151c9a717d74ad630cff32ad3d8967525abfc3c3839c0029",
  "source": "pragma solidity ^0.4.18;\n\nimport \"./ArtPatronData.sol\";\nimport \"../../node_modules/zeppelin-solidity/contracts/ownership/Ownable.sol\";\n\ncontract ArtPatronManagement is ArtPatronData, Ownable {\n    event ItemAdded(uint itemId);\n    event AuthorAdded(uint authroId);\n    event HolderAdded(uint holderId);\n    event ItemHolderChanged(uint itemId);\n\n    function AddItem(\n        string _name,\n        uint _creationDate,\n        uint _authorId,\n        uint _holderId\n    )\n        external onlyOwner\n    {\n        require(authors.length > _authorId);\n        require(holders.length > _holderId);\n\n        require(bytes(_name).length > 0);\n\n        items.push(Item(\n            _name,\n            items.length - 1,\n            _authorId,\n            _holderId,\n            _creationDate,\n            1 ether,\n            0,\n            0\n        ));\n\n        emit ItemAdded(items.length - 1);\n    }\n\n    function AddAuthor(string _name, uint _birthDate)\n        external onlyOwner\n    {\n        require(bytes(_name).length > 0);\n        authors.push(Author(_name, authors.length - 1, _birthDate));\n\n        emit AuthorAdded(authors.length - 1);\n    }\n\n    function AddHolder(string _name, uint16 _countryId)\n        external onlyOwner\n    {\n        require(bytes(_name).length > 0);\n        holders.push(Holder(_name, holders.length - 1, _countryId));\n\n        emit HolderAdded(holders.length - 1);\n    }\n\n    function ChangeItemHolder(uint _itemId, uint _newHolderId)\n        external onlyOwner\n    {\n        items[_itemId].holderId = _newHolderId;\n\n        emit ItemHolderChanged(_itemId);\n    }\n}\n",
  "sourcePath": "/home/shamsfk/projects/artpatron/ethereum/contracts/ArtPatronManagement.sol",
  "compiler": {
    "name": "solc",
    "version": "0.4.21+commit.dfe3193c.Emscripten.clang"
  },
  "schemaVersion": "2.0.0",
  "updatedAt": "2018-04-25T10:22:03.287Z"
}