{
  "contractName": "ArtPatronManagement",
  "abi": [
    {
      "constant": true,
      "inputs": [
        {
          "name": "_id",
          "type": "uint256"
        }
      ],
      "name": "GetItemCreationDate",
      "outputs": [
        {
          "name": "",
          "type": "uint256"
        }
      ],
      "payable": false,
      "stateMutability": "view",
      "type": "function"
    },
    {
      "constant": true,
      "inputs": [],
      "name": "GetItemsLength",
      "outputs": [
        {
          "name": "",
          "type": "uint256"
        }
      ],
      "payable": false,
      "stateMutability": "view",
      "type": "function"
    },
    {
      "constant": true,
      "inputs": [
        {
          "name": "_id",
          "type": "uint256"
        }
      ],
      "name": "GetItemPatronshipDate",
      "outputs": [
        {
          "name": "",
          "type": "uint256"
        }
      ],
      "payable": false,
      "stateMutability": "view",
      "type": "function"
    },
    {
      "constant": true,
      "inputs": [
        {
          "name": "_id",
          "type": "uint256"
        }
      ],
      "name": "GetItemCurrentBid",
      "outputs": [
        {
          "name": "",
          "type": "uint256"
        }
      ],
      "payable": false,
      "stateMutability": "view",
      "type": "function"
    },
    {
      "constant": true,
      "inputs": [
        {
          "name": "_id",
          "type": "uint256"
        }
      ],
      "name": "GetItemName",
      "outputs": [
        {
          "name": "",
          "type": "string"
        }
      ],
      "payable": false,
      "stateMutability": "view",
      "type": "function"
    },
    {
      "constant": true,
      "inputs": [
        {
          "name": "_id",
          "type": "uint256"
        }
      ],
      "name": "GetItemPatronAddress",
      "outputs": [
        {
          "name": "",
          "type": "address"
        }
      ],
      "payable": false,
      "stateMutability": "view",
      "type": "function"
    },
    {
      "constant": false,
      "inputs": [
        {
          "name": "_name",
          "type": "string"
        },
        {
          "name": "_creationDate",
          "type": "uint256"
        },
        {
          "name": "_authorId",
          "type": "uint256"
        },
        {
          "name": "_holderId",
          "type": "uint256"
        }
      ],
      "name": "AddItem",
      "outputs": [],
      "payable": false,
      "stateMutability": "nonpayable",
      "type": "function"
    },
    {
      "constant": false,
      "inputs": [
        {
          "name": "_name",
          "type": "string"
        },
        {
          "name": "_birthDate",
          "type": "uint256"
        }
      ],
      "name": "AddAuthor",
      "outputs": [],
      "payable": false,
      "stateMutability": "nonpayable",
      "type": "function"
    },
    {
      "constant": false,
      "inputs": [
        {
          "name": "_name",
          "type": "string"
        },
        {
          "name": "_countryId",
          "type": "uint16"
        }
      ],
      "name": "AddHolder",
      "outputs": [],
      "payable": false,
      "stateMutability": "nonpayable",
      "type": "function"
    }
  ],
  "bytecode": "0x606060405233600560006101000a81548173ffffffffffffffffffffffffffffffffffffffff021916908373ffffffffffffffffffffffffffffffffffffffff160217905550610b85806100546000396000f300606060405260043610610099576000357c0100000000000000000000000000000000000000000000000000000000900463ffffffff168063233f06e71461009e5780633fde0f53146100d557806342b48e54146100fe57806353946e5d146101355780635755b252146101705780636cd227e3146101a75780638114a861146101f05780639730a9e11461028c578063f4b4006c146102c3575b600080fd5b34156100a957600080fd5b6100bf6004808035906020019091905050610326565b6040518082815260200191505060405180910390f35b34156100e057600080fd5b6100e861034f565b6040518082815260200191505060405180910390f35b341561010957600080fd5b61011f600480803590602001909190505061035b565b6040518082815260200191505060405180910390f35b341561014057600080fd5b61016e6004808035906020019082018035906020019190919290803561ffff16906020019091905050610384565b005b341561017b57600080fd5b610191600480803590602001909190505061049c565b6040518082815260200191505060405180910390f35b34156101b257600080fd5b6101ee600480803590602001908201803590602001919091929080359060200190919080359060200190919080359060200190919050506104c5565b005b34156101fb57600080fd5b61021160048080359060200190919050506106c5565b6040518080602001828103825283818151815260200191508051906020019080838360005b83811015610251578082015181840152602081019050610236565b50505050905090810190601f16801561027e5780820380516001836020036101000a031916815260200191505b509250505060405180910390f35b341561029757600080fd5b6102c16004808035906020019082018035906020019190919290803590602001909190505061078d565b005b34156102ce57600080fd5b6102e46004808035906020019091905050610888565b604051808273ffffffffffffffffffffffffffffffffffffffff1673ffffffffffffffffffffffffffffffffffffffff16815260200191505060405180910390f35b6000808281548110151561033657fe5b9060005260206000209060060201600101549050919050565b60008080549050905090565b6000808281548110151561036b57fe5b9060005260206000209060060201600301549050919050565b600560009054906101000a900473ffffffffffffffffffffffffffffffffffffffff1673ffffffffffffffffffffffffffffffffffffffff163373ffffffffffffffffffffffffffffffffffffffff161415156103e057600080fd5b600280548060010182816103f491906108d1565b91600052602060002090600202016000604080519081016040528087878080601f01602080910402602001604051908101604052809392919081815260200183838082843782019150505050505081526020018561ffff1681525090919091506000820151816000019080519060200190610470929190610903565b5060208201518160010160006101000a81548161ffff021916908361ffff160217905550505050505050565b600080828154811015156104ac57fe5b9060005260206000209060060201600201549050919050565b6000600560009054906101000a900473ffffffffffffffffffffffffffffffffffffffff1673ffffffffffffffffffffffffffffffffffffffff163373ffffffffffffffffffffffffffffffffffffffff1614151561052357600080fd5b8260018054905011151561053657600080fd5b8160028054905011151561054957600080fd5b6000805480600101828161055d9190610983565b9160005260206000209060060201600060c0604051908101604052808a8a8080601f0160208091040260200160405190810160405280939291908181526020018383808284378201915050505050508152602001888152602001670de0b6b3a764000081526020016000815260200160008152602001600073ffffffffffffffffffffffffffffffffffffffff168152509091909150600082015181600001908051906020019061060f929190610903565b506020820151816001015560408201518160020155606082015181600301556080820151816004015560a08201518160050160006101000a81548173ffffffffffffffffffffffffffffffffffffffff021916908373ffffffffffffffffffffffffffffffffffffffff1602179055505050506001600080549050039050826003600083815260200190815260200160002081905550816004600083815260200190815260200160002081905550505050505050565b6106cd6109b5565b6000828154811015156106dc57fe5b90600052602060002090600602016000018054600181600116156101000203166002900480601f0160208091040260200160405190810160405280929190818152602001828054600181600116156101000203166002900480156107815780601f1061075657610100808354040283529160200191610781565b820191906000526020600020905b81548152906001019060200180831161076457829003601f168201915b50505050509050919050565b600560009054906101000a900473ffffffffffffffffffffffffffffffffffffffff1673ffffffffffffffffffffffffffffffffffffffff163373ffffffffffffffffffffffffffffffffffffffff161415156107e957600080fd5b600180548060010182816107fd91906109c9565b91600052602060002090600202016000604080519081016040528087878080601f01602080910402602001604051908101604052809392919081815260200183838082843782019150505050505081526020018581525090919091506000820151816000019080519060200190610875929190610903565b5060208201518160010155505050505050565b6000808281548110151561089857fe5b906000526020600020906006020160050160009054906101000a900473ffffffffffffffffffffffffffffffffffffffff169050919050565b8154818355818115116108fe576002028160020283600052602060002091820191016108fd91906109fb565b5b505050565b828054600181600116156101000203166002900490600052602060002090601f016020900481019282601f1061094457805160ff1916838001178555610972565b82800160010185558215610972579182015b82811115610971578251825591602001919060010190610956565b5b50905061097f9190610a3f565b5090565b8154818355818115116109b0576006028160060283600052602060002091820191016109af9190610a64565b5b505050565b602060405190810160405280600081525090565b8154818355818115116109f6576002028160020283600052602060002091820191016109f59190610ada565b5b505050565b610a3c91905b80821115610a385760008082016000610a1a9190610b11565b6001820160006101000a81549061ffff021916905550600201610a01565b5090565b90565b610a6191905b80821115610a5d576000816000905550600101610a45565b5090565b90565b610ad791905b80821115610ad35760008082016000610a839190610b11565b60018201600090556002820160009055600382016000905560048201600090556005820160006101000a81549073ffffffffffffffffffffffffffffffffffffffff021916905550600601610a6a565b5090565b90565b610b0e91905b80821115610b0a5760008082016000610af99190610b11565b600182016000905550600201610ae0565b5090565b90565b50805460018160011615610100020316600290046000825580601f10610b375750610b56565b601f016020900490600052602060002090810190610b559190610a3f565b5b505600a165627a7a72305820ff580b3b23c24a39a42543a74f9c903ee40a60851d09c78f7e289defe6813c670029",
  "source": "pragma solidity ^0.4.18;\n\nimport \"./ArtPatronDataAccess.sol\";\nimport \"./Ownable.sol\";\n\ncontract ArtPatronManagement is ArtPatronDataAccess, Ownable {\n    function AddItem(\n        string _name,\n        uint _creationDate,\n        uint _authorId,\n        uint _holderId\n    )\n        external onlyManager\n    {\n        require(authors.length > _authorId);\n        require(holders.length > _holderId);\n\n        items.push(Item(\n            _name,\n            _creationDate,\n            1 ether,\n            0,\n            0,\n            0\n        ));\n\n        uint id = items.length - 1;\n\n        itemToAuthor[id] = _authorId;\n        itemToHolder[id] = _holderId;\n    }\n\n    function AddAuthor(\n        string _name,\n        uint _birthDate\n    )\n        external onlyManager\n    {\n        authors.push(Author(_name, _birthDate));\n    }\n\n    function AddHolder(\n        string _name,\n        uint16 _countryId\n    )\n        external onlyManager\n    {\n        holders.push(Holder(_name, _countryId));\n    }\n}\n",
  "sourcePath": "/home/shamsfk/projects/artpatron/ethereum/contracts/ArtPatronManagement.sol",
  "compiler": {
    "name": "solc",
    "version": "0.4.21+commit.dfe3193c.Emscripten.clang"
  },
  "schemaVersion": "2.0.0",
  "updatedAt": "2018-04-17T02:25:59.744Z"
}