{
  "contractName": "ArtPatronManagement",
  "abi": [
    {
      "constant": true,
      "inputs": [],
      "name": "GetAuthorsLength",
      "outputs": [
        {
          "name": "",
          "type": "uint256"
        }
      ],
      "payable": false,
      "stateMutability": "view",
      "type": "function"
    },
    {
      "constant": true,
      "inputs": [
        {
          "name": "_itemId",
          "type": "uint256"
        }
      ],
      "name": "GetItemData",
      "outputs": [
        {
          "name": "name",
          "type": "string"
        },
        {
          "name": "id",
          "type": "uint256"
        },
        {
          "name": "authorId",
          "type": "uint256"
        },
        {
          "name": "holderId",
          "type": "uint256"
        },
        {
          "name": "creationDate",
          "type": "uint256"
        },
        {
          "name": "currentBid",
          "type": "uint256"
        },
        {
          "name": "marketDate",
          "type": "uint256"
        },
        {
          "name": "patronAddress",
          "type": "address"
        }
      ],
      "payable": false,
      "stateMutability": "view",
      "type": "function"
    },
    {
      "constant": true,
      "inputs": [],
      "name": "GetItemsLength",
      "outputs": [
        {
          "name": "",
          "type": "uint256"
        }
      ],
      "payable": false,
      "stateMutability": "view",
      "type": "function"
    },
    {
      "constant": true,
      "inputs": [],
      "name": "GetHoldersLength",
      "outputs": [
        {
          "name": "",
          "type": "uint256"
        }
      ],
      "payable": false,
      "stateMutability": "view",
      "type": "function"
    },
    {
      "constant": true,
      "inputs": [],
      "name": "owner",
      "outputs": [
        {
          "name": "",
          "type": "address"
        }
      ],
      "payable": false,
      "stateMutability": "view",
      "type": "function"
    },
    {
      "constant": true,
      "inputs": [],
      "name": "collectorAddress",
      "outputs": [
        {
          "name": "",
          "type": "address"
        }
      ],
      "payable": false,
      "stateMutability": "view",
      "type": "function"
    },
    {
      "constant": true,
      "inputs": [
        {
          "name": "_authorId",
          "type": "uint256"
        }
      ],
      "name": "GetAuthorData",
      "outputs": [
        {
          "name": "name",
          "type": "string"
        },
        {
          "name": "id",
          "type": "uint256"
        },
        {
          "name": "birthDate",
          "type": "uint256"
        }
      ],
      "payable": false,
      "stateMutability": "view",
      "type": "function"
    },
    {
      "constant": true,
      "inputs": [
        {
          "name": "_holderId",
          "type": "uint256"
        }
      ],
      "name": "GetHolderData",
      "outputs": [
        {
          "name": "name",
          "type": "string"
        },
        {
          "name": "id",
          "type": "uint256"
        },
        {
          "name": "countryId",
          "type": "uint256"
        }
      ],
      "payable": false,
      "stateMutability": "view",
      "type": "function"
    },
    {
      "constant": false,
      "inputs": [
        {
          "name": "newOwner",
          "type": "address"
        }
      ],
      "name": "transferOwnership",
      "outputs": [],
      "payable": false,
      "stateMutability": "nonpayable",
      "type": "function"
    },
    {
      "anonymous": false,
      "inputs": [
        {
          "indexed": false,
          "name": "itemId",
          "type": "uint256"
        }
      ],
      "name": "ItemAdded",
      "type": "event"
    },
    {
      "anonymous": false,
      "inputs": [
        {
          "indexed": false,
          "name": "authorId",
          "type": "uint256"
        }
      ],
      "name": "AuthorAdded",
      "type": "event"
    },
    {
      "anonymous": false,
      "inputs": [
        {
          "indexed": false,
          "name": "holderId",
          "type": "uint256"
        }
      ],
      "name": "HolderAdded",
      "type": "event"
    },
    {
      "anonymous": false,
      "inputs": [
        {
          "indexed": false,
          "name": "itemId",
          "type": "uint256"
        }
      ],
      "name": "ItemHolderChanged",
      "type": "event"
    },
    {
      "anonymous": false,
      "inputs": [
        {
          "indexed": true,
          "name": "previousOwner",
          "type": "address"
        },
        {
          "indexed": true,
          "name": "newOwner",
          "type": "address"
        }
      ],
      "name": "OwnershipTransferred",
      "type": "event"
    },
    {
      "constant": false,
      "inputs": [
        {
          "name": "ca",
          "type": "address"
        }
      ],
      "name": "SetCollectorAddress",
      "outputs": [],
      "payable": false,
      "stateMutability": "nonpayable",
      "type": "function"
    },
    {
      "constant": false,
      "inputs": [
        {
          "name": "_name",
          "type": "string"
        },
        {
          "name": "_creationDate",
          "type": "uint256"
        },
        {
          "name": "_marketDate",
          "type": "uint256"
        },
        {
          "name": "_authorId",
          "type": "uint256"
        },
        {
          "name": "_holderId",
          "type": "uint256"
        }
      ],
      "name": "AddItem",
      "outputs": [],
      "payable": false,
      "stateMutability": "nonpayable",
      "type": "function"
    },
    {
      "constant": false,
      "inputs": [
        {
          "name": "_name",
          "type": "string"
        },
        {
          "name": "_birthDate",
          "type": "uint256"
        }
      ],
      "name": "AddAuthor",
      "outputs": [],
      "payable": false,
      "stateMutability": "nonpayable",
      "type": "function"
    },
    {
      "constant": false,
      "inputs": [
        {
          "name": "_name",
          "type": "string"
        },
        {
          "name": "_countryId",
          "type": "uint16"
        }
      ],
      "name": "AddHolder",
      "outputs": [],
      "payable": false,
      "stateMutability": "nonpayable",
      "type": "function"
    },
    {
      "constant": false,
      "inputs": [
        {
          "name": "_itemId",
          "type": "uint256"
        },
        {
          "name": "_newHolderId",
          "type": "uint256"
        }
      ],
      "name": "ChangeItemHolder",
      "outputs": [],
      "payable": false,
      "stateMutability": "nonpayable",
      "type": "function"
    }
  ],
  "bytecode": "0x606060405233600360006101000a81548173ffffffffffffffffffffffffffffffffffffffff021916908373ffffffffffffffffffffffffffffffffffffffff160217905550611413806100546000396000f3006060604052600436106100d0576000357c0100000000000000000000000000000000000000000000000000000000900463ffffffff1680631d3cd083146100d55780631f548556146100fe5780633b9424a7146101f75780633fde0f531461023057806345e1a2da1461025957806353946e5d1461028557806359d60247146102ef5780638da5cb5b146103185780639730a9e11461036d578063c973c2e3146103d3578063d7d42e8b14610428578063e5ee34f7146104a9578063eec4f7c914610553578063f2fde38b146105fd575b600080fd5b34156100e057600080fd5b6100e8610636565b6040518082815260200191505060405180910390f35b341561010957600080fd5b61011f6004808035906020019091905050610643565b60405180806020018981526020018881526020018781526020018681526020018581526020018481526020018373ffffffffffffffffffffffffffffffffffffffff1673ffffffffffffffffffffffffffffffffffffffff16815260200182810382528a818151815260200191508051906020019080838360005b838110156101b557808201518184015260208101905061019a565b50505050905090810190601f1680156101e25780820380516001836020036101000a031916815260200191505b50995050505050505050505060405180910390f35b341561020257600080fd5b61022e600480803573ffffffffffffffffffffffffffffffffffffffff16906020019091905050610785565b005b341561023b57600080fd5b61024361084b565b6040518082815260200191505060405180910390f35b341561026457600080fd5b6102836004808035906020019091908035906020019091905050610857565b005b341561029057600080fd5b6102ed600480803590602001908201803590602001908080601f0160208091040260200160405190810160405280939291908181526020018383808284378201915050505050509190803561ffff16906020019091905050610913565b005b34156102fa57600080fd5b610302610a60565b6040518082815260200191505060405180910390f35b341561032357600080fd5b61032b610a6d565b604051808273ffffffffffffffffffffffffffffffffffffffff1673ffffffffffffffffffffffffffffffffffffffff16815260200191505060405180910390f35b341561037857600080fd5b6103d1600480803590602001908201803590602001908080601f01602080910402602001604051908101604052809392919081815260200183838082843782019150505050505091908035906020019091905050610a93565b005b34156103de57600080fd5b6103e6610bc1565b604051808273ffffffffffffffffffffffffffffffffffffffff1673ffffffffffffffffffffffffffffffffffffffff16815260200191505060405180910390f35b341561043357600080fd5b6104a7600480803590602001908201803590602001908080601f01602080910402602001604051908101604052809392919081815260200183838082843782019150505050505091908035906020019091908035906020019091908035906020019091908035906020019091905050610be7565b005b34156104b457600080fd5b6104ca6004808035906020019091905050610ded565b6040518080602001848152602001838152602001828103825285818151815260200191508051906020019080838360005b838110156105165780820151818401526020810190506104fb565b50505050905090810190601f1680156105435780820380516001836020036101000a031916815260200191505b5094505050505060405180910390f35b341561055e57600080fd5b6105746004808035906020019091905050610ee1565b6040518080602001848152602001838152602001828103825285818151815260200191508051906020019080838360005b838110156105c05780820151818401526020810190506105a5565b50505050905090810190601f1680156105ed5780820380516001836020036101000a031916815260200191505b5094505050505060405180910390f35b341561060857600080fd5b610634600480803573ffffffffffffffffffffffffffffffffffffffff16906020019091905050610fe7565b005b6000600180549050905090565b61064b61113f565b6000806000806000806000808960008054905011151561066a57600080fd5b60008a81548110151561067957fe5b90600052602060002090600802019050806000018054600181600116156101000203166002900480601f0160208091040260200160405190810160405280929190818152602001828054600181600116156101000203166002900480156107215780601f106106f657610100808354040283529160200191610721565b820191906000526020600020905b81548152906001019060200180831161070457829003601f168201915b505050505098508060010154975080600201549650806003015495508060040154945080600501549350806006015492508060070160009054906101000a900473ffffffffffffffffffffffffffffffffffffffff16915050919395975091939597565b600360009054906101000a900473ffffffffffffffffffffffffffffffffffffffff1673ffffffffffffffffffffffffffffffffffffffff163373ffffffffffffffffffffffffffffffffffffffff161415156107e157600080fd5b60008173ffffffffffffffffffffffffffffffffffffffff161415151561080757600080fd5b80600460006101000a81548173ffffffffffffffffffffffffffffffffffffffff021916908373ffffffffffffffffffffffffffffffffffffffff16021790555050565b60008080549050905090565b600360009054906101000a900473ffffffffffffffffffffffffffffffffffffffff1673ffffffffffffffffffffffffffffffffffffffff163373ffffffffffffffffffffffffffffffffffffffff161415156108b357600080fd5b806000838154811015156108c357fe5b9060005260206000209060080201600301819055507fc80b2a507461bdf13f90d6e4cabec254fea31d19046a6ab6aaae2006586ee6f1826040518082815260200191505060405180910390a15050565b600360009054906101000a900473ffffffffffffffffffffffffffffffffffffffff1673ffffffffffffffffffffffffffffffffffffffff163373ffffffffffffffffffffffffffffffffffffffff1614151561096f57600080fd5b6000825111151561097f57600080fd5b600280548060010182816109939190611153565b9160005260206000209060030201600060606040519081016040528086815260200160016002805490500381526020018561ffff16815250909190915060008201518160000190805190602001906109ec929190611185565b506020820151816001015560408201518160020160006101000a81548161ffff021916908361ffff1602179055505050507fe3b761f18b620ece6fcdb14fa29a98a03ee065f25358cae0c3eddd0d26e7850d6001600280549050036040518082815260200191505060405180910390a15050565b6000600280549050905090565b600360009054906101000a900473ffffffffffffffffffffffffffffffffffffffff1681565b600360009054906101000a900473ffffffffffffffffffffffffffffffffffffffff1673ffffffffffffffffffffffffffffffffffffffff163373ffffffffffffffffffffffffffffffffffffffff16141515610aef57600080fd5b60008251111515610aff57600080fd5b60018054806001018281610b139190611205565b91600052602060002090600302016000606060405190810160405280868152602001600180805490500381526020018581525090919091506000820151816000019080519060200190610b67929190611185565b5060208201518160010155604082015181600201555050507f893b6c60166e13bdcaac5ed8b58be564952549481dc61e31e3ae20c1d0d7e29260018080549050036040518082815260200191505060405180910390a15050565b600460009054906101000a900473ffffffffffffffffffffffffffffffffffffffff1681565b600360009054906101000a900473ffffffffffffffffffffffffffffffffffffffff1673ffffffffffffffffffffffffffffffffffffffff163373ffffffffffffffffffffffffffffffffffffffff16141515610c4357600080fd5b81600180549050111515610c5657600080fd5b80600280549050111515610c6957600080fd5b60008551111515610c7957600080fd5b60008054806001018281610c8d9190611237565b91600052602060002090600802016000610100604051908101604052808981526020016001600080549050038152602001868152602001858152602001888152602001670de0b6b3a76400008152602001878152602001600073ffffffffffffffffffffffffffffffffffffffff1681525090919091506000820151816000019080519060200190610d20929190611185565b506020820151816001015560408201518160020155606082015181600301556080820151816004015560a0820151816005015560c0820151816006015560e08201518160070160006101000a81548173ffffffffffffffffffffffffffffffffffffffff021916908373ffffffffffffffffffffffffffffffffffffffff1602179055505050507f186760a37e06b130959978c68b5c592841caf4f64de1dc960b2c54cf454ca9dd6001600080549050036040518082815260200191505060405180910390a15050505050565b610df561113f565b600080600084600180549050111515610e0d57600080fd5b600185815481101515610e1c57fe5b90600052602060002090600302019050806000018054600181600116156101000203166002900480601f016020809104026020016040519081016040528092919081815260200182805460018160011615610100020316600290048015610ec45780601f10610e9957610100808354040283529160200191610ec4565b820191906000526020600020905b815481529060010190602001808311610ea757829003601f168201915b505050505093508060010154925080600201549150509193909250565b610ee961113f565b600080600084600280549050111515610f0157600080fd5b600285815481101515610f1057fe5b90600052602060002090600302019050806000018054600181600116156101000203166002900480601f016020809104026020016040519081016040528092919081815260200182805460018160011615610100020316600290048015610fb85780601f10610f8d57610100808354040283529160200191610fb8565b820191906000526020600020905b815481529060010190602001808311610f9b57829003601f168201915b50505050509350806001015492508060020160009054906101000a900461ffff1661ffff169150509193909250565b600360009054906101000a900473ffffffffffffffffffffffffffffffffffffffff1673ffffffffffffffffffffffffffffffffffffffff163373ffffffffffffffffffffffffffffffffffffffff1614151561104357600080fd5b600073ffffffffffffffffffffffffffffffffffffffff168173ffffffffffffffffffffffffffffffffffffffff161415151561107f57600080fd5b8073ffffffffffffffffffffffffffffffffffffffff16600360009054906101000a900473ffffffffffffffffffffffffffffffffffffffff1673ffffffffffffffffffffffffffffffffffffffff167f8be0079c531659141344cd1fd0a4f28419497f9722a3daafe3b4186f6b6457e060405160405180910390a380600360006101000a81548173ffffffffffffffffffffffffffffffffffffffff021916908373ffffffffffffffffffffffffffffffffffffffff16021790555050565b602060405190810160405280600081525090565b8154818355818115116111805760030281600302836000526020600020918201910161117f9190611269565b5b505050565b828054600181600116156101000203166002900490600052602060002090601f016020900481019282601f106111c657805160ff19168380011785556111f4565b828001600101855582156111f4579182015b828111156111f35782518255916020019190600101906111d8565b5b50905061120191906112b5565b5090565b8154818355818115116112325760030281600302836000526020600020918201910161123191906112da565b5b505050565b815481835581811511611264576008028160080283600052602060002091820191016112639190611319565b5b505050565b6112b291905b808211156112ae5760008082016000611288919061139f565b60018201600090556002820160006101000a81549061ffff02191690555060030161126f565b5090565b90565b6112d791905b808211156112d35760008160009055506001016112bb565b5090565b90565b61131691905b8082111561131257600080820160006112f9919061139f565b60018201600090556002820160009055506003016112e0565b5090565b90565b61139c91905b808211156113985760008082016000611338919061139f565b6001820160009055600282016000905560038201600090556004820160009055600582016000905560068201600090556007820160006101000a81549073ffffffffffffffffffffffffffffffffffffffff02191690555060080161131f565b5090565b90565b50805460018160011615610100020316600290046000825580601f106113c557506113e4565b601f0160209004906000526020600020908101906113e391906112b5565b5b505600a165627a7a723058207abde197d0c12515d29498f7950eba8e8b98c755e6277b8026a08d03a67cd0270029",
  "source": "pragma solidity ^0.4.21;\n\nimport \"./ArtPatronData.sol\";\nimport \"../../node_modules/zeppelin-solidity/contracts/ownership/Ownable.sol\";\n\ncontract ArtPatronManagement is ArtPatronData, Ownable {\n    address public collectorAddress; // address that collects fees and museum rewards\n\n    event ItemAdded(uint itemId);\n    event AuthorAdded(uint authorId);\n    event HolderAdded(uint holderId);\n    event ItemHolderChanged(uint itemId);\n\n    function SetCollectorAddress(address ca) public onlyOwner {\n        require(ca != 0);\n        collectorAddress = ca;\n    }\n\n    function AddItem(\n        string _name,\n        uint _creationDate,\n        uint _marketDate,\n        uint _authorId,\n        uint _holderId\n    )\n        public onlyOwner\n    {\n        require(authors.length > _authorId);\n        require(holders.length > _holderId);\n\n        require(bytes(_name).length > 0);\n\n        items.push(Item(\n            _name,\n            items.length - 1,\n            _authorId,\n            _holderId,\n            _creationDate,\n            1 ether,\n            _marketDate,\n            0\n        ));\n\n        emit ItemAdded(items.length - 1);\n    }\n\n    function AddAuthor(string _name, uint _birthDate)\n        public onlyOwner\n    {\n        require(bytes(_name).length > 0);\n        authors.push(Author(_name, authors.length - 1, _birthDate));\n\n        emit AuthorAdded(authors.length - 1);\n    }\n\n    function AddHolder(string _name, uint16 _countryId)\n        public onlyOwner\n    {\n        require(bytes(_name).length > 0);\n        holders.push(Holder(_name, holders.length - 1, _countryId));\n\n        emit HolderAdded(holders.length - 1);\n    }\n\n    function ChangeItemHolder(uint _itemId, uint _newHolderId)\n        external onlyOwner\n    {\n        items[_itemId].holderId = _newHolderId;\n\n        emit ItemHolderChanged(_itemId);\n    }\n}\n",
  "sourcePath": "/home/shamsfk/projects/artpatron/ethereum/contracts/ArtPatronManagement.sol",
  "compiler": {
    "name": "solc",
    "version": "0.4.21+commit.dfe3193c.Emscripten.clang"
  },
  "schemaVersion": "2.0.0",
  "updatedAt": "2018-05-17T14:53:55.567Z"
}