{
  "contractName": "ArtPatronData",
  "abi": [
    {
      "constant": true,
      "inputs": [],
      "name": "GetItemsLength",
      "outputs": [
        {
          "name": "",
          "type": "uint256"
        }
      ],
      "payable": false,
      "stateMutability": "view",
      "type": "function"
    },
    {
      "constant": true,
      "inputs": [],
      "name": "GetAuthorsLength",
      "outputs": [
        {
          "name": "",
          "type": "uint256"
        }
      ],
      "payable": false,
      "stateMutability": "view",
      "type": "function"
    },
    {
      "constant": true,
      "inputs": [],
      "name": "GetHoldersLength",
      "outputs": [
        {
          "name": "",
          "type": "uint256"
        }
      ],
      "payable": false,
      "stateMutability": "view",
      "type": "function"
    },
    {
      "constant": true,
      "inputs": [
        {
          "name": "_itemId",
          "type": "uint256"
        }
      ],
      "name": "GetItemData",
      "outputs": [
        {
          "name": "name",
          "type": "string"
        },
        {
          "name": "authorId",
          "type": "uint256"
        },
        {
          "name": "holderId",
          "type": "uint256"
        },
        {
          "name": "creationDate",
          "type": "uint256"
        },
        {
          "name": "currentBid",
          "type": "uint256"
        },
        {
          "name": "tabletDueDate",
          "type": "uint256"
        },
        {
          "name": "patronAddress",
          "type": "address"
        }
      ],
      "payable": false,
      "stateMutability": "view",
      "type": "function"
    },
    {
      "constant": true,
      "inputs": [
        {
          "name": "_authorId",
          "type": "uint256"
        }
      ],
      "name": "GetAuthorData",
      "outputs": [
        {
          "name": "name",
          "type": "string"
        },
        {
          "name": "birthDate",
          "type": "uint256"
        }
      ],
      "payable": false,
      "stateMutability": "view",
      "type": "function"
    },
    {
      "constant": true,
      "inputs": [
        {
          "name": "_holderId",
          "type": "uint256"
        }
      ],
      "name": "GetHolderData",
      "outputs": [
        {
          "name": "name",
          "type": "string"
        },
        {
          "name": "countryId",
          "type": "uint256"
        }
      ],
      "payable": false,
      "stateMutability": "view",
      "type": "function"
    }
  ],
  "bytecode": "0x6060604052341561000f57600080fd5b6106b48061001e6000396000f300606060405260043610610078576000357c0100000000000000000000000000000000000000000000000000000000900463ffffffff1680631d3cd0831461007d5780631f548556146100a65780633fde0f531461019857806359d60247146101c1578063e5ee34f7146101ea578063eec4f7c91461028d575b600080fd5b341561008857600080fd5b610090610330565b6040518082815260200191505060405180910390f35b34156100b157600080fd5b6100c7600480803590602001909190505061033d565b60405180806020018881526020018781526020018681526020018581526020018481526020018373ffffffffffffffffffffffffffffffffffffffff1673ffffffffffffffffffffffffffffffffffffffff168152602001828103825289818151815260200191508051906020019080838360005b8381101561015757808201518184015260208101905061013c565b50505050905090810190601f1680156101845780820380516001836020036101000a031916815260200191505b509850505050505050505060405180910390f35b34156101a357600080fd5b6101ab610477565b6040518082815260200191505060405180910390f35b34156101cc57600080fd5b6101d4610483565b6040518082815260200191505060405180910390f35b34156101f557600080fd5b61020b6004808035906020019091905050610490565b6040518080602001838152602001828103825284818151815260200191508051906020019080838360005b83811015610251578082015181840152602081019050610236565b50505050905090810190601f16801561027e5780820380516001836020036101000a031916815260200191505b50935050505060405180910390f35b341561029857600080fd5b6102ae6004808035906020019091905050610579565b6040518080602001838152602001828103825284818151815260200191508051906020019080838360005b838110156102f45780820151818401526020810190506102d9565b50505050905090810190601f1680156103215780820380516001836020036101000a031916815260200191505b50935050505060405180910390f35b6000600180549050905090565b610345610674565b60008060008060008060008860008054905011151561036357600080fd5b60008981548110151561037257fe5b90600052602060002090600702019050806000018054600181600116156101000203166002900480601f01602080910402602001604051908101604052809291908181526020018280546001816001161561010002031660029004801561041a5780601f106103ef5761010080835404028352916020019161041a565b820191906000526020600020905b8154815290600101906020018083116103fd57829003601f168201915b5050505050975080600101549650806002015495508060030154945080600401549350806005015492508060060160009054906101000a900473ffffffffffffffffffffffffffffffffffffffff16915050919395979092949650565b60008080549050905090565b6000600280549050905090565b610498610674565b600080836001805490501115156104ae57600080fd5b6001848154811015156104bd57fe5b90600052602060002090600202019050806000018054600181600116156101000203166002900480601f0160208091040260200160405190810160405280929190818152602001828054600181600116156101000203166002900480156105655780601f1061053a57610100808354040283529160200191610565565b820191906000526020600020905b81548152906001019060200180831161054857829003601f168201915b505050505092508060010154915050915091565b610581610674565b6000808360028054905011151561059757600080fd5b6002848154811015156105a657fe5b90600052602060002090600202019050806000018054600181600116156101000203166002900480601f01602080910402602001604051908101604052809291908181526020018280546001816001161561010002031660029004801561064e5780601f106106235761010080835404028352916020019161064e565b820191906000526020600020905b81548152906001019060200180831161063157829003601f168201915b505050505092508060010160009054906101000a900461ffff1661ffff16915050915091565b6020604051908101604052806000815250905600a165627a7a72305820a41e1fe9419875b1f40931907c5b95fa48c7e6fb86bdfdfcef720bc2fd7053290029",
  "source": "pragma solidity ^0.4.18;\n\n/// @title Art Patron Data constract\n/// Holds data of all Items, Authors and Holders\n/// @dev Data is stored in arrays\n/// @dev There is no write access in this contract\n/// @dev Read access\ncontract ArtPatronData {\n    struct Item {\n        string name;\n        uint authorId;\n        uint holderId;\n        uint creationDate;\n        uint currentBid;\n        uint tabletDueDate;\n        address patronAddress;\n    }\n\n    struct Author {\n        string name;\n        uint birthDate;\n    }\n\n    struct Holder {\n        string name;\n        uint16 countryId;\n    }\n\n    Item[] internal items;\n    Author[] internal authors;\n    Holder[] internal holders;\n\n    mapping (uint => uint) internal itemToAuthor;\n    mapping (uint => uint) internal itemToHolder;\n\n    function GetItemsLength() external view returns (uint) {\n        return items.length;\n    }\n\n    function GetAuthorsLength() external view returns(uint) {\n        return authors.length;\n    }\n\n    function GetHoldersLength() external view returns(uint) {\n        return holders.length;\n    }\n\n    function GetItemData(uint _itemId) external view\n        returns (\n            string name,\n            uint authorId,\n            uint holderId,\n            uint creationDate,\n            uint currentBid,\n            uint tabletDueDate,\n            address patronAddress\n        )\n    {\n        require(items.length > _itemId);\n        Item storage item = items[_itemId];\n\n        name = item.name;\n        authorId = item.authorId;\n        holderId = item.holderId;\n        creationDate = item.creationDate;\n        currentBid = item.currentBid;\n        tabletDueDate = item.tabletDueDate;\n        patronAddress = item.patronAddress;\n    }\n\n    function GetAuthorData(uint _authorId) external view\n        returns (\n            string name,\n            uint birthDate\n        )\n    {\n        require(authors.length > _authorId);\n        Author storage author = authors[_authorId];\n\n        name = author.name;\n        birthDate = author.birthDate;\n    }\n\n    function GetHolderData(uint _holderId) external view\n        returns (\n            string name,\n            uint countryId\n        )\n    {\n        require(holders.length > _holderId);\n        Holder storage holder = holders[_holderId];\n\n        name = holder.name;\n        countryId = holder.countryId;\n    }\n}\n",
  "sourcePath": "/home/shamsfk/projects/artpatron/ethereum/contracts/ArtPatronData.sol",
  "compiler": {
    "name": "solc",
    "version": "0.4.21+commit.dfe3193c.Emscripten.clang"
  },
  "schemaVersion": "2.0.0",
  "updatedAt": "2018-04-24T14:09:10.392Z"
}