{
  "contractName": "ArtPatronMarket",
  "abi": [
    {
      "constant": true,
      "inputs": [],
      "name": "totalPayments",
      "outputs": [
        {
          "name": "",
          "type": "uint256"
        }
      ],
      "payable": false,
      "stateMutability": "view",
      "type": "function"
    },
    {
      "constant": true,
      "inputs": [],
      "name": "GetAuthorsLength",
      "outputs": [
        {
          "name": "",
          "type": "uint256"
        }
      ],
      "payable": false,
      "stateMutability": "view",
      "type": "function"
    },
    {
      "constant": true,
      "inputs": [
        {
          "name": "_itemId",
          "type": "uint256"
        }
      ],
      "name": "GetItemData",
      "outputs": [
        {
          "name": "name",
          "type": "string"
        },
        {
          "name": "id",
          "type": "uint256"
        },
        {
          "name": "authorId",
          "type": "uint256"
        },
        {
          "name": "museumId",
          "type": "uint256"
        },
        {
          "name": "creationDate",
          "type": "uint256"
        },
        {
          "name": "currentBid",
          "type": "uint256"
        },
        {
          "name": "marketDate",
          "type": "uint256"
        },
        {
          "name": "patronAddress",
          "type": "address"
        }
      ],
      "payable": false,
      "stateMutability": "view",
      "type": "function"
    },
    {
      "constant": false,
      "inputs": [
        {
          "name": "_itemId",
          "type": "uint256"
        },
        {
          "name": "_newMuseumId",
          "type": "uint256"
        }
      ],
      "name": "ChangeItemMuseum",
      "outputs": [],
      "payable": false,
      "stateMutability": "nonpayable",
      "type": "function"
    },
    {
      "constant": false,
      "inputs": [
        {
          "name": "ca",
          "type": "address"
        }
      ],
      "name": "SetCollectorAddress",
      "outputs": [],
      "payable": false,
      "stateMutability": "nonpayable",
      "type": "function"
    },
    {
      "constant": true,
      "inputs": [],
      "name": "GetItemsLength",
      "outputs": [
        {
          "name": "",
          "type": "uint256"
        }
      ],
      "payable": false,
      "stateMutability": "view",
      "type": "function"
    },
    {
      "constant": false,
      "inputs": [
        {
          "name": "_name",
          "type": "string"
        },
        {
          "name": "_countryId",
          "type": "uint16"
        }
      ],
      "name": "AddMuseum",
      "outputs": [],
      "payable": false,
      "stateMutability": "nonpayable",
      "type": "function"
    },
    {
      "constant": false,
      "inputs": [],
      "name": "withdrawPayments",
      "outputs": [],
      "payable": false,
      "stateMutability": "nonpayable",
      "type": "function"
    },
    {
      "constant": true,
      "inputs": [],
      "name": "owner",
      "outputs": [
        {
          "name": "",
          "type": "address"
        }
      ],
      "payable": false,
      "stateMutability": "view",
      "type": "function"
    },
    {
      "constant": true,
      "inputs": [],
      "name": "GetMuseumsLength",
      "outputs": [
        {
          "name": "",
          "type": "uint256"
        }
      ],
      "payable": false,
      "stateMutability": "view",
      "type": "function"
    },
    {
      "constant": false,
      "inputs": [
        {
          "name": "_name",
          "type": "string"
        },
        {
          "name": "_birthDate",
          "type": "uint256"
        }
      ],
      "name": "AddAuthor",
      "outputs": [],
      "payable": false,
      "stateMutability": "nonpayable",
      "type": "function"
    },
    {
      "constant": true,
      "inputs": [
        {
          "name": "",
          "type": "address"
        }
      ],
      "name": "ownedItemsCount",
      "outputs": [
        {
          "name": "",
          "type": "uint256"
        }
      ],
      "payable": false,
      "stateMutability": "view",
      "type": "function"
    },
    {
      "constant": true,
      "inputs": [
        {
          "name": "_museumId",
          "type": "uint256"
        }
      ],
      "name": "GetMuseumData",
      "outputs": [
        {
          "name": "name",
          "type": "string"
        },
        {
          "name": "id",
          "type": "uint256"
        },
        {
          "name": "countryId",
          "type": "uint256"
        }
      ],
      "payable": false,
      "stateMutability": "view",
      "type": "function"
    },
    {
      "constant": true,
      "inputs": [],
      "name": "collectorAddress",
      "outputs": [
        {
          "name": "",
          "type": "address"
        }
      ],
      "payable": false,
      "stateMutability": "view",
      "type": "function"
    },
    {
      "constant": false,
      "inputs": [
        {
          "name": "_name",
          "type": "string"
        },
        {
          "name": "_creationDate",
          "type": "uint256"
        },
        {
          "name": "_marketDate",
          "type": "uint256"
        },
        {
          "name": "_authorId",
          "type": "uint256"
        },
        {
          "name": "_museumId",
          "type": "uint256"
        }
      ],
      "name": "AddItem",
      "outputs": [],
      "payable": false,
      "stateMutability": "nonpayable",
      "type": "function"
    },
    {
      "constant": true,
      "inputs": [
        {
          "name": "",
          "type": "address"
        }
      ],
      "name": "payments",
      "outputs": [
        {
          "name": "",
          "type": "uint256"
        }
      ],
      "payable": false,
      "stateMutability": "view",
      "type": "function"
    },
    {
      "constant": true,
      "inputs": [
        {
          "name": "_authorId",
          "type": "uint256"
        }
      ],
      "name": "GetAuthorData",
      "outputs": [
        {
          "name": "name",
          "type": "string"
        },
        {
          "name": "id",
          "type": "uint256"
        },
        {
          "name": "birthDate",
          "type": "uint256"
        }
      ],
      "payable": false,
      "stateMutability": "view",
      "type": "function"
    },
    {
      "constant": false,
      "inputs": [
        {
          "name": "newOwner",
          "type": "address"
        }
      ],
      "name": "transferOwnership",
      "outputs": [],
      "payable": false,
      "stateMutability": "nonpayable",
      "type": "function"
    },
    {
      "anonymous": false,
      "inputs": [
        {
          "indexed": false,
          "name": "itemId",
          "type": "uint256"
        }
      ],
      "name": "PatronshipBought",
      "type": "event"
    },
    {
      "anonymous": false,
      "inputs": [
        {
          "indexed": false,
          "name": "itemId",
          "type": "uint256"
        }
      ],
      "name": "ItemAdded",
      "type": "event"
    },
    {
      "anonymous": false,
      "inputs": [
        {
          "indexed": false,
          "name": "authorId",
          "type": "uint256"
        }
      ],
      "name": "AuthorAdded",
      "type": "event"
    },
    {
      "anonymous": false,
      "inputs": [
        {
          "indexed": false,
          "name": "museumId",
          "type": "uint256"
        }
      ],
      "name": "MuseumAdded",
      "type": "event"
    },
    {
      "anonymous": false,
      "inputs": [
        {
          "indexed": false,
          "name": "itemId",
          "type": "uint256"
        }
      ],
      "name": "ItemMuseumChanged",
      "type": "event"
    },
    {
      "anonymous": false,
      "inputs": [
        {
          "indexed": true,
          "name": "previousOwner",
          "type": "address"
        },
        {
          "indexed": true,
          "name": "newOwner",
          "type": "address"
        }
      ],
      "name": "OwnershipTransferred",
      "type": "event"
    },
    {
      "constant": true,
      "inputs": [
        {
          "name": "_itemId",
          "type": "uint256"
        }
      ],
      "name": "GetPatronshipPrice",
      "outputs": [
        {
          "name": "",
          "type": "uint256"
        }
      ],
      "payable": false,
      "stateMutability": "view",
      "type": "function"
    },
    {
      "constant": true,
      "inputs": [
        {
          "name": "_itemId",
          "type": "uint256"
        }
      ],
      "name": "GetPatronshipReward",
      "outputs": [
        {
          "name": "",
          "type": "uint256"
        }
      ],
      "payable": false,
      "stateMutability": "view",
      "type": "function"
    },
    {
      "constant": true,
      "inputs": [
        {
          "name": "_itemId",
          "type": "uint256"
        }
      ],
      "name": "GetPatronshipFee",
      "outputs": [
        {
          "name": "",
          "type": "uint256"
        }
      ],
      "payable": false,
      "stateMutability": "view",
      "type": "function"
    },
    {
      "constant": false,
      "inputs": [
        {
          "name": "_itemId",
          "type": "uint256"
        }
      ],
      "name": "BuyPatronship",
      "outputs": [],
      "payable": true,
      "stateMutability": "payable",
      "type": "function"
    }
  ],
  "bytecode": "0x608060405233600460006101000a81548173ffffffffffffffffffffffffffffffffffffffff021916908373ffffffffffffffffffffffffffffffffffffffff160217905550611cdf806100546000396000f300608060405260043610610127576000357c0100000000000000000000000000000000000000000000000000000000900463ffffffff1680625b44871461012c5780631d3cd083146101575780631f5485561461018257806321f634f51461028557806322bda10c146102c65780632cb9061a146103075780633b9424a71461033e5780633fde0f5314610381578063554c2369146103ac5780636103d70b146104235780638da5cb5b1461043a5780639147be0f146104915780639730a9e1146104bc57806399ace50c1461052f578063c4d4c15014610586578063c973c2e31461063a578063d042ba0414610691578063d7d42e8b146106d2578063e2982c2114610763578063e5ee34f7146107ba578063ec4e70f11461086e578063f2fde38b1461088e575b600080fd5b34801561013857600080fd5b506101416108d1565b6040518082815260200191505060405180910390f35b34801561016357600080fd5b5061016c6108d7565b6040518082815260200191505060405180910390f35b34801561018e57600080fd5b506101ad600480360381019080803590602001909291905050506108e4565b60405180806020018981526020018881526020018781526020018681526020018581526020018481526020018373ffffffffffffffffffffffffffffffffffffffff1673ffffffffffffffffffffffffffffffffffffffff16815260200182810382528a818151815260200191508051906020019080838360005b83811015610243578082015181840152602081019050610228565b50505050905090810190601f1680156102705780820380516001836020036101000a031916815260200191505b50995050505050505050505060405180910390f35b34801561029157600080fd5b506102b060048036038101908080359060200190929190505050610a20565b6040518082815260200191505060405180910390f35b3480156102d257600080fd5b506102f160048036038101908080359060200190929190505050610b7e565b6040518082815260200191505060405180910390f35b34801561031357600080fd5b5061033c6004803603810190808035906020019092919080359060200190929190505050610bb9565b005b34801561034a57600080fd5b5061037f600480360381019080803573ffffffffffffffffffffffffffffffffffffffff169060200190929190505050610c75565b005b34801561038d57600080fd5b50610396610d15565b6040518082815260200191505060405180910390f35b3480156103b857600080fd5b50610421600480360381019080803590602001908201803590602001908080601f0160208091040260200160405190810160405280939291908181526020018383808284378201915050505050509192919290803561ffff169060200190929190505050610d21565b005b34801561042f57600080fd5b50610438610e6f565b005b34801561044657600080fd5b5061044f610f98565b604051808273ffffffffffffffffffffffffffffffffffffffff1673ffffffffffffffffffffffffffffffffffffffff16815260200191505060405180910390f35b34801561049d57600080fd5b506104a6610fbe565b6040518082815260200191505060405180910390f35b3480156104c857600080fd5b5061052d600480360381019080803590602001908201803590602001908080601f016020809104026020016040519081016040528093929190818152602001838380828437820191505050505050919291929080359060200190929190505050610fcb565b005b34801561053b57600080fd5b50610570600480360381019080803573ffffffffffffffffffffffffffffffffffffffff1690602001909291905050506110fb565b6040518082815260200191505060405180910390f35b34801561059257600080fd5b506105b160048036038101908080359060200190929190505050611113565b6040518080602001848152602001838152602001828103825285818151815260200191508051906020019080838360005b838110156105fd5780820151818401526020810190506105e2565b50505050905090810190601f16801561062a5780820380516001836020036101000a031916815260200191505b5094505050505060405180910390f35b34801561064657600080fd5b5061064f611213565b604051808273ffffffffffffffffffffffffffffffffffffffff1673ffffffffffffffffffffffffffffffffffffffff16815260200191505060405180910390f35b34801561069d57600080fd5b506106bc60048036038101908080359060200190929190505050611239565b6040518082815260200191505060405180910390f35b3480156106de57600080fd5b50610761600480360381019080803590602001908201803590602001908080601f016020809104026020016040519081016040528093929190818152602001838380828437820191505050505050919291929080359060200190929190803590602001909291908035906020019092919080359060200190929190505050611274565b005b34801561076f57600080fd5b506107a4600480360381019080803573ffffffffffffffffffffffffffffffffffffffff16906020019092919050505061147b565b6040518082815260200191505060405180910390f35b3480156107c657600080fd5b506107e560048036038101908080359060200190929190505050611493565b6040518080602001848152602001838152602001828103825285818151815260200191508051906020019080838360005b83811015610831578082015181840152602081019050610816565b50505050905090810190601f16801561085e5780820380516001836020036101000a031916815260200191505b5094505050505060405180910390f35b61088c60048036038101908080359060200190929190505050611581565b005b34801561089a57600080fd5b506108cf600480360381019080803573ffffffffffffffffffffffffffffffffffffffff1690602001909291905050506119cd565b005b60075481565b6000600180549050905090565b60606000806000806000806000808960008054905011151561090557600080fd5b60008a81548110151561091457fe5b90600052602060002090600802019050806000018054600181600116156101000203166002900480601f0160208091040260200160405190810160405280929190818152602001828054600181600116156101000203166002900480156109bc5780601f10610991576101008083540402835291602001916109bc565b820191906000526020600020905b81548152906001019060200180831161099f57829003601f168201915b505050505098508060010154975080600201549650806003015495508060040154945080600501549350806006015492508060070160009054906101000a900473ffffffffffffffffffffffffffffffffffffffff16915050919395975091939597565b60003073ffffffffffffffffffffffffffffffffffffffff1663d042ba04836040518263ffffffff167c010000000000000000000000000000000000000000000000000000000002815260040180828152602001915050602060405180830381600087803b158015610a9157600080fd5b505af1158015610aa5573d6000803e3d6000fd5b505050506040513d6020811015610abb57600080fd5b81019080805190602001909291905050503073ffffffffffffffffffffffffffffffffffffffff166322bda10c846040518263ffffffff167c010000000000000000000000000000000000000000000000000000000002815260040180828152602001915050602060405180830381600087803b158015610b3b57600080fd5b505af1158015610b4f573d6000803e3d6000fd5b505050506040513d6020811015610b6557600080fd5b8101908080519060200190929190505050039050919050565b6000612710613a98600084815481101515610b9557fe5b90600052602060002090600802016005015402811515610bb157fe5b049050919050565b600460009054906101000a900473ffffffffffffffffffffffffffffffffffffffff1673ffffffffffffffffffffffffffffffffffffffff163373ffffffffffffffffffffffffffffffffffffffff16141515610c1557600080fd5b80600083815481101515610c2557fe5b9060005260206000209060080201600301819055507f27bd6917188fdebc18cf54e6776ef22e85b53fd5bfbd6c3902fdf4cec0d4d4ca826040518082815260200191505060405180910390a15050565b600460009054906101000a900473ffffffffffffffffffffffffffffffffffffffff1673ffffffffffffffffffffffffffffffffffffffff163373ffffffffffffffffffffffffffffffffffffffff16141515610cd157600080fd5b80600560006101000a81548173ffffffffffffffffffffffffffffffffffffffff021916908373ffffffffffffffffffffffffffffffffffffffff16021790555050565b60008080549050905090565b600460009054906101000a900473ffffffffffffffffffffffffffffffffffffffff1673ffffffffffffffffffffffffffffffffffffffff163373ffffffffffffffffffffffffffffffffffffffff16141515610d7d57600080fd5b60008251111515610d8d57600080fd5b600260606040519081016040528084815260200160028054905081526020018361ffff16815250908060018154018082558091505090600182039060005260206000209060030201600090919290919091506000820151816000019080519060200190610dfb929190611c0e565b506020820151816001015560408201518160020160006101000a81548161ffff021916908361ffff1602179055505050507f298fe12d220fd4b23fa5d9392cd7284252579633b9b2ddb0e32b13832e1835c56001600280549050036040518082815260200191505060405180910390a15050565b600080339150600660008373ffffffffffffffffffffffffffffffffffffffff1673ffffffffffffffffffffffffffffffffffffffff16815260200190815260200160002054905060008114151515610ec757600080fd5b803073ffffffffffffffffffffffffffffffffffffffff163110151515610eed57600080fd5b610f0281600754611b2590919063ffffffff16565b6007819055506000600660008473ffffffffffffffffffffffffffffffffffffffff1673ffffffffffffffffffffffffffffffffffffffff168152602001908152602001600020819055508173ffffffffffffffffffffffffffffffffffffffff166108fc829081150290604051600060405180830381858888f19350505050158015610f93573d6000803e3d6000fd5b505050565b600460009054906101000a900473ffffffffffffffffffffffffffffffffffffffff1681565b6000600280549050905090565b600460009054906101000a900473ffffffffffffffffffffffffffffffffffffffff1673ffffffffffffffffffffffffffffffffffffffff163373ffffffffffffffffffffffffffffffffffffffff1614151561102757600080fd5b6000825111151561103757600080fd5b60016060604051908101604052808481526020016001805490508152602001838152509080600181540180825580915050906001820390600052602060002090600302016000909192909190915060008201518160000190805190602001906110a1929190611c0e565b5060208201518160010155604082015181600201555050507f893b6c60166e13bdcaac5ed8b58be564952549481dc61e31e3ae20c1d0d7e29260018080549050036040518082815260200191505060405180910390a15050565b60036020528060005260406000206000915090505481565b606060008060008460028054905011151561112d57600080fd5b60028581548110151561113c57fe5b90600052602060002090600302019050806000018054600181600116156101000203166002900480601f0160208091040260200160405190810160405280929190818152602001828054600181600116156101000203166002900480156111e45780601f106111b9576101008083540402835291602001916111e4565b820191906000526020600020905b8154815290600101906020018083116111c757829003601f168201915b50505050509350806001015492508060020160009054906101000a900461ffff1661ffff169150509193909250565b600560009054906101000a900473ffffffffffffffffffffffffffffffffffffffff1681565b60006127106136b060008481548110151561125057fe5b9060005260206000209060080201600501540281151561126c57fe5b049050919050565b600460009054906101000a900473ffffffffffffffffffffffffffffffffffffffff1673ffffffffffffffffffffffffffffffffffffffff163373ffffffffffffffffffffffffffffffffffffffff161415156112d057600080fd5b816001805490501115156112e357600080fd5b806002805490501115156112f657600080fd5b6000855111151561130657600080fd5b6000610100604051908101604052808781526020016000805490508152602001848152602001838152602001868152602001670de0b6b3a76400008152602001858152602001600073ffffffffffffffffffffffffffffffffffffffff168152509080600181540180825580915050906001820390600052602060002090600802016000909192909190915060008201518160000190805190602001906113ae929190611c0e565b506020820151816001015560408201518160020155606082015181600301556080820151816004015560a0820151816005015560c0820151816006015560e08201518160070160006101000a81548173ffffffffffffffffffffffffffffffffffffffff021916908373ffffffffffffffffffffffffffffffffffffffff1602179055505050507f186760a37e06b130959978c68b5c592841caf4f64de1dc960b2c54cf454ca9dd6001600080549050036040518082815260200191505060405180910390a15050505050565b60066020528060005260406000206000915090505481565b60606000806000846001805490501115156114ad57600080fd5b6001858154811015156114bc57fe5b90600052602060002090600302019050806000018054600181600116156101000203166002900480601f0160208091040260200160405190810160405280929190818152602001828054600181600116156101000203166002900480156115645780601f1061153957610100808354040283529160200191611564565b820191906000526020600020905b81548152906001019060200180831161154757829003601f168201915b505050505093508060010154925080600201549150509193909250565b6000806000806000600560009054906101000a900473ffffffffffffffffffffffffffffffffffffffff1673ffffffffffffffffffffffffffffffffffffffff16141515156115cf57600080fd5b600080549050851015156115e257600080fd5b6000858154811015156115f157fe5b906000526020600020906008020193503073ffffffffffffffffffffffffffffffffffffffff166322bda10c866040518263ffffffff167c010000000000000000000000000000000000000000000000000000000002815260040180828152602001915050602060405180830381600087803b15801561167057600080fd5b505af1158015611684573d6000803e3d6000fd5b505050506040513d602081101561169a57600080fd5b810190808051906020019092919050505092503073ffffffffffffffffffffffffffffffffffffffff1663d042ba04866040518263ffffffff167c010000000000000000000000000000000000000000000000000000000002815260040180828152602001915050602060405180830381600087803b15801561171c57600080fd5b505af1158015611730573d6000803e3d6000fd5b505050506040513d602081101561174657600080fd5b810190808051906020019092919050505091503073ffffffffffffffffffffffffffffffffffffffff166321f634f5866040518263ffffffff167c010000000000000000000000000000000000000000000000000000000002815260040180828152602001915050602060405180830381600087803b1580156117c857600080fd5b505af11580156117dc573d6000803e3d6000fd5b505050506040513d60208110156117f257600080fd5b8101908080519060200190929190505050905082341015151561181457600080fd5b8360070160009054906101000a900473ffffffffffffffffffffffffffffffffffffffff1673ffffffffffffffffffffffffffffffffffffffff163373ffffffffffffffffffffffffffffffffffffffff161415151561187357600080fd5b60008460070160009054906101000a900473ffffffffffffffffffffffffffffffffffffffff1673ffffffffffffffffffffffffffffffffffffffff16141515611916576118e58460070160009054906101000a900473ffffffffffffffffffffffffffffffffffffffff1683611b3e565b611911600560009054906101000a900473ffffffffffffffffffffffffffffffffffffffff1682611b3e565b611943565b611942600560009054906101000a900473ffffffffffffffffffffffffffffffffffffffff1634611b3e565b5b348460050181905550338460070160006101000a81548173ffffffffffffffffffffffffffffffffffffffff021916908373ffffffffffffffffffffffffffffffffffffffff1602179055507f95567913a139a9810a3eb0de6a4244ece143e6b527268952cd3800672d93158d856040518082815260200191505060405180910390a15050505050565b600460009054906101000a900473ffffffffffffffffffffffffffffffffffffffff1673ffffffffffffffffffffffffffffffffffffffff163373ffffffffffffffffffffffffffffffffffffffff16141515611a2957600080fd5b600073ffffffffffffffffffffffffffffffffffffffff168173ffffffffffffffffffffffffffffffffffffffff1614151515611a6557600080fd5b8073ffffffffffffffffffffffffffffffffffffffff16600460009054906101000a900473ffffffffffffffffffffffffffffffffffffffff1673ffffffffffffffffffffffffffffffffffffffff167f8be0079c531659141344cd1fd0a4f28419497f9722a3daafe3b4186f6b6457e060405160405180910390a380600460006101000a81548173ffffffffffffffffffffffffffffffffffffffff021916908373ffffffffffffffffffffffffffffffffffffffff16021790555050565b6000828211151515611b3357fe5b818303905092915050565b611b9081600660008573ffffffffffffffffffffffffffffffffffffffff1673ffffffffffffffffffffffffffffffffffffffff16815260200190815260200160002054611bf290919063ffffffff16565b600660008473ffffffffffffffffffffffffffffffffffffffff1673ffffffffffffffffffffffffffffffffffffffff16815260200190815260200160002081905550611be881600754611bf290919063ffffffff16565b6007819055505050565b60008183019050828110151515611c0557fe5b80905092915050565b828054600181600116156101000203166002900490600052602060002090601f016020900481019282601f10611c4f57805160ff1916838001178555611c7d565b82800160010185558215611c7d579182015b82811115611c7c578251825591602001919060010190611c61565b5b509050611c8a9190611c8e565b5090565b611cb091905b80821115611cac576000816000905550600101611c94565b5090565b905600a165627a7a72305820a080d9694e098731e100e981f43ca7d36cb7e2f986a4aa6e7ab648833c1b5d500029",
  "source": "pragma solidity ^0.4.21;\n\nimport \"./ArtPatronManagement.sol\";\nimport \"../../node_modules/zeppelin-solidity/contracts/payment/PullPayment.sol\";\n\ncontract ArtPatronMarket is ArtPatronManagement, PullPayment {\n    event PatronshipBought(uint itemId);\n\n    /**\n    * @dev Get a price to buy a patronship pf a given item (onlyOwner)\n    * @param _itemId Index of an item to get patronship price of\n    * @return Returns a price to buy a patronship (in Wei)\n    */\n    function GetPatronshipPrice(uint _itemId) external view returns(uint) {\n        return items[_itemId].currentBid * 15000 / 10000; // 150%\n    }\n\n    /**\n    * @dev Get an amount of reward to current patron if item is bougth (onlyOwner)\n    * @param _itemId Index of an item to get reward amount of\n    * @return Returns a reward amount (in Wei)\n    */\n    function GetPatronshipReward(uint _itemId) external view returns(uint) {\n        return items[_itemId].currentBid * 14000 / 10000; // 140%\n    }\n\n    /**\n    * @dev Get a fee amount that will be collected if item is bought (onlyOwner)\n    * @param _itemId Index of an item to get a fee amount of\n    * @return Returns a fee amount (in Wei)\n    */\n    function GetPatronshipFee(uint _itemId) external view returns(uint) {\n        return this.GetPatronshipPrice(_itemId) - this.GetPatronshipReward(_itemId);\n    }\n\n    /**\n    * @dev Attempts to buy an item\n    * @dev value sent must be >= GetPatronshipPrice\n    * @param _itemId Index of an item to buy patronship\n    */\n    function BuyPatronship (uint _itemId) external payable {\n        require(collectorAddress != 0);\n        require(_itemId < items.length);\n\n        Item storage item = items[_itemId];\n\n        uint price = this.GetPatronshipPrice(_itemId);\n        uint reward = this.GetPatronshipReward(_itemId);\n        uint fee = this.GetPatronshipFee(_itemId);\n\n        require(msg.value >= price);\n        require(msg.sender != item.patronAddress); // lets not buy from ourselves\n\n        if (item.patronAddress != 0) {\n            // if there is a patron send him reward and fee to collector\n            asyncSend(item.patronAddress, reward);\n            asyncSend(collectorAddress, fee);\n        } else {\n            // if there is no patron (first purchase) send all to collector\n            asyncSend(collectorAddress, msg.value);\n        }\n\n        item.currentBid = msg.value;\n        item.patronAddress = msg.sender;\n\n        emit PatronshipBought(_itemId);\n    }\n}\n",
  "sourcePath": "/mnt/c/projects/artpatron/ethereum/contracts/ArtPatronMarket.sol",
  "compiler": {
    "name": "solc",
    "version": "0.4.23+commit.124ca40d.Emscripten.clang"
  },
  "schemaVersion": "2.0.0",
  "updatedAt": "2018-05-21T06:09:18.297Z"
}