{
  "contractName": "ArtPatronDataAccess",
  "abi": [
    {
      "constant": true,
      "inputs": [],
      "name": "GetItemsLength",
      "outputs": [
        {
          "name": "",
          "type": "uint256"
        }
      ],
      "payable": false,
      "stateMutability": "view",
      "type": "function"
    },
    {
      "constant": true,
      "inputs": [
        {
          "name": "_id",
          "type": "uint256"
        }
      ],
      "name": "GetItemTitle",
      "outputs": [
        {
          "name": "",
          "type": "string"
        }
      ],
      "payable": false,
      "stateMutability": "view",
      "type": "function"
    },
    {
      "constant": true,
      "inputs": [
        {
          "name": "_id",
          "type": "uint256"
        }
      ],
      "name": "GetItemAuthorId",
      "outputs": [
        {
          "name": "",
          "type": "uint256"
        }
      ],
      "payable": false,
      "stateMutability": "view",
      "type": "function"
    },
    {
      "constant": true,
      "inputs": [
        {
          "name": "_id",
          "type": "uint256"
        }
      ],
      "name": "GetItemHolderId",
      "outputs": [
        {
          "name": "",
          "type": "uint256"
        }
      ],
      "payable": false,
      "stateMutability": "view",
      "type": "function"
    },
    {
      "constant": true,
      "inputs": [
        {
          "name": "_id",
          "type": "uint256"
        }
      ],
      "name": "GetItemCreationDate",
      "outputs": [
        {
          "name": "",
          "type": "uint256"
        }
      ],
      "payable": false,
      "stateMutability": "view",
      "type": "function"
    },
    {
      "constant": true,
      "inputs": [
        {
          "name": "_id",
          "type": "uint256"
        }
      ],
      "name": "GetItemCurrentBid",
      "outputs": [
        {
          "name": "",
          "type": "uint256"
        }
      ],
      "payable": false,
      "stateMutability": "view",
      "type": "function"
    },
    {
      "constant": true,
      "inputs": [
        {
          "name": "_id",
          "type": "uint256"
        }
      ],
      "name": "GetItemTabletDueDate",
      "outputs": [
        {
          "name": "",
          "type": "uint256"
        }
      ],
      "payable": false,
      "stateMutability": "view",
      "type": "function"
    },
    {
      "constant": true,
      "inputs": [
        {
          "name": "_id",
          "type": "uint256"
        }
      ],
      "name": "GetItemPatronAddress",
      "outputs": [
        {
          "name": "",
          "type": "address"
        }
      ],
      "payable": false,
      "stateMutability": "view",
      "type": "function"
    },
    {
      "constant": true,
      "inputs": [],
      "name": "GetAuthorsLength",
      "outputs": [
        {
          "name": "",
          "type": "uint256"
        }
      ],
      "payable": false,
      "stateMutability": "view",
      "type": "function"
    },
    {
      "constant": true,
      "inputs": [
        {
          "name": "_id",
          "type": "uint256"
        }
      ],
      "name": "GetAuthorName",
      "outputs": [
        {
          "name": "",
          "type": "string"
        }
      ],
      "payable": false,
      "stateMutability": "view",
      "type": "function"
    },
    {
      "constant": true,
      "inputs": [
        {
          "name": "_id",
          "type": "uint256"
        }
      ],
      "name": "GetAuthorBirthDate",
      "outputs": [
        {
          "name": "",
          "type": "uint256"
        }
      ],
      "payable": false,
      "stateMutability": "view",
      "type": "function"
    },
    {
      "constant": true,
      "inputs": [],
      "name": "GetHoldersLength",
      "outputs": [
        {
          "name": "",
          "type": "uint256"
        }
      ],
      "payable": false,
      "stateMutability": "view",
      "type": "function"
    },
    {
      "constant": true,
      "inputs": [
        {
          "name": "_id",
          "type": "uint256"
        }
      ],
      "name": "GetHolderName",
      "outputs": [
        {
          "name": "",
          "type": "string"
        }
      ],
      "payable": false,
      "stateMutability": "view",
      "type": "function"
    },
    {
      "constant": true,
      "inputs": [
        {
          "name": "_id",
          "type": "uint256"
        }
      ],
      "name": "GetHolderCountryId",
      "outputs": [
        {
          "name": "",
          "type": "uint16"
        }
      ],
      "payable": false,
      "stateMutability": "view",
      "type": "function"
    }
  ],
  "bytecode": "0x6060604052341561000f57600080fd5b6109468061001e6000396000f3006060604052600436106100d0576000357c0100000000000000000000000000000000000000000000000000000000900463ffffffff168063058d8fe7146100d557806311d5d1041461011457806313d385f81461014b5780631d3cd083146101e7578063233f06e714610210578063390a7ced146102475780633fde0f531461027e5780634f0b4e7a146102a75780635755b2521461034357806359d602471461037a57806381bda3fe146103a357806398d7b8d7146103da578063cbe4769314610411578063f4b4006c146104ad575b600080fd5b34156100e057600080fd5b6100f66004808035906020019091905050610510565b604051808261ffff1661ffff16815260200191505060405180910390f35b341561011f57600080fd5b6101356004808035906020019091905050610548565b6040518082815260200191505060405180910390f35b341561015657600080fd5b61016c6004808035906020019091905050610571565b6040518080602001828103825283818151815260200191508051906020019080838360005b838110156101ac578082015181840152602081019050610191565b50505050905090810190601f1680156101d95780820380516001836020036101000a031916815260200191505b509250505060405180910390f35b34156101f257600080fd5b6101fa610639565b6040518082815260200191505060405180910390f35b341561021b57600080fd5b6102316004808035906020019091905050610646565b6040518082815260200191505060405180910390f35b341561025257600080fd5b610268600480803590602001909190505061066f565b6040518082815260200191505060405180910390f35b341561028957600080fd5b610291610699565b6040518082815260200191505060405180910390f35b34156102b257600080fd5b6102c860048080359060200190919050506106a5565b6040518080602001828103825283818151815260200191508051906020019080838360005b838110156103085780820151818401526020810190506102ed565b50505050905090810190601f1680156103355780820380516001836020036101000a031916815260200191505b509250505060405180910390f35b341561034e57600080fd5b610364600480803590602001909190505061076d565b6040518082815260200191505060405180910390f35b341561038557600080fd5b61038d610796565b6040518082815260200191505060405180910390f35b34156103ae57600080fd5b6103c460048080359060200190919050506107a3565b6040518082815260200191505060405180910390f35b34156103e557600080fd5b6103fb60048080359060200190919050506107cc565b6040518082815260200191505060405180910390f35b341561041c57600080fd5b61043260048080359060200190919050506107f5565b6040518080602001828103825283818151815260200191508051906020019080838360005b83811015610472578082015181840152602081019050610457565b50505050905090810190601f16801561049f5780820380516001836020036101000a031916815260200191505b509250505060405180910390f35b34156104b857600080fd5b6104ce60048080359060200190919050506108bd565b604051808273ffffffffffffffffffffffffffffffffffffffff1673ffffffffffffffffffffffffffffffffffffffff16815260200191505060405180910390f35b600060028281548110151561052157fe5b906000526020600020906002020160010160009054906101000a900461ffff169050919050565b6000808281548110151561055857fe5b9060005260206000209060080201600101549050919050565b610579610906565b60018281548110151561058857fe5b90600052602060002090600202016000018054600181600116156101000203166002900480601f01602080910402602001604051908101604052809291908181526020018280546001816001161561010002031660029004801561062d5780601f106106025761010080835404028352916020019161062d565b820191906000526020600020905b81548152906001019060200180831161061057829003601f168201915b50505050509050919050565b6000600180549050905090565b6000808281548110151561065657fe5b9060005260206000209060080201600301549050919050565b600060018281548110151561068057fe5b9060005260206000209060020201600101549050919050565b60008080549050905090565b6106ad610906565b6002828154811015156106bc57fe5b90600052602060002090600202016000018054600181600116156101000203166002900480601f0160208091040260200160405190810160405280929190818152602001828054600181600116156101000203166002900480156107615780601f1061073657610100808354040283529160200191610761565b820191906000526020600020905b81548152906001019060200180831161074457829003601f168201915b50505050509050919050565b6000808281548110151561077d57fe5b9060005260206000209060080201600401549050919050565b6000600280549050905090565b600080828154811015156107b357fe5b9060005260206000209060080201600601549050919050565b600080828154811015156107dc57fe5b9060005260206000209060080201600201549050919050565b6107fd610906565b60008281548110151561080c57fe5b90600052602060002090600802016000018054600181600116156101000203166002900480601f0160208091040260200160405190810160405280929190818152602001828054600181600116156101000203166002900480156108b15780601f10610886576101008083540402835291602001916108b1565b820191906000526020600020905b81548152906001019060200180831161089457829003601f168201915b50505050509050919050565b600080828154811015156108cd57fe5b906000526020600020906008020160070160009054906101000a900473ffffffffffffffffffffffffffffffffffffffff169050919050565b6020604051908101604052806000815250905600a165627a7a72305820f23912fe02b4241359da26348ef32aeeb8fca0f90f84d6d6978edab5fbd2303e0029",
  "source": "pragma solidity ^0.4.18;\n\nimport \"./ArtPatronData.sol\";\n\ncontract ArtPatronDataAccess is ArtPatronData {\n    // Items\n\n    function GetItemsLength() external view returns (uint) {\n        return items.length;\n    }\n\n    function GetItemTitle(uint _id) external view returns(string) {\n        return items[_id].title;\n    }\n\n    function GetItemAuthorId(uint _id) external view returns(uint) {\n        return items[_id].authorId;\n    }\n\n    function GetItemHolderId(uint _id) external view returns(uint) {\n        return items[_id].holderId;\n    }\n\n    function GetItemCreationDate(uint _id) external view returns(uint) {\n        return items[_id].creationDate;\n    }\n\n    function GetItemCurrentBid(uint _id) external view returns(uint) {\n        return items[_id].currentBid;\n    }\n\n    function GetItemTabletDueDate(uint _id) external view returns(uint) {\n        return items[_id].tabletDueDate;\n    }\n\n    function GetItemPatronAddress(uint _id) external view returns(address) {\n        return items[_id].patronAddress;\n    }\n\n    // Authors\n\n    function GetAuthorsLength() external view returns(uint) {\n        return authors.length;\n    }\n\n    function GetAuthorName(uint _id) external view returns(string) {\n        return authors[_id].name;\n    }\n\n    function GetAuthorBirthDate(uint _id) external view returns(uint) {\n        return authors[_id].birthDate;\n    }\n\n    // Holders\n\n    function GetHoldersLength() external view returns(uint) {\n        return holders.length;\n    }\n\n    function GetHolderName(uint _id) external view returns(string) {\n        return holders[_id].name;\n    }\n\n    function GetHolderCountryId(uint _id) external view returns(uint16) {\n        return holders[_id].countryId;\n    }\n}\n",
  "sourcePath": "/home/shamsfk/projects/artpatron/ethereum/contracts/ArtPatronDataAccess.sol",
  "compiler": {
    "name": "solc",
    "version": "0.4.21+commit.dfe3193c.Emscripten.clang"
  },
  "schemaVersion": "2.0.0",
  "updatedAt": "2018-04-19T07:42:42.191Z"
}