{
  "contractName": "ArtPatron",
  "abi": [
    {
      "constant": true,
      "inputs": [
        {
          "name": "_id",
          "type": "uint256"
        }
      ],
      "name": "GetHolderCountryId",
      "outputs": [
        {
          "name": "",
          "type": "uint16"
        }
      ],
      "payable": false,
      "stateMutability": "view",
      "type": "function"
    },
    {
      "constant": true,
      "inputs": [
        {
          "name": "_id",
          "type": "uint256"
        }
      ],
      "name": "GetItemAuthorId",
      "outputs": [
        {
          "name": "",
          "type": "uint256"
        }
      ],
      "payable": false,
      "stateMutability": "view",
      "type": "function"
    },
    {
      "constant": true,
      "inputs": [
        {
          "name": "_id",
          "type": "uint256"
        }
      ],
      "name": "GetAuthorName",
      "outputs": [
        {
          "name": "",
          "type": "string"
        }
      ],
      "payable": false,
      "stateMutability": "view",
      "type": "function"
    },
    {
      "constant": true,
      "inputs": [],
      "name": "GetAuthorsLength",
      "outputs": [
        {
          "name": "",
          "type": "uint256"
        }
      ],
      "payable": false,
      "stateMutability": "view",
      "type": "function"
    },
    {
      "constant": true,
      "inputs": [
        {
          "name": "_id",
          "type": "uint256"
        }
      ],
      "name": "GetItemCreationDate",
      "outputs": [
        {
          "name": "",
          "type": "uint256"
        }
      ],
      "payable": false,
      "stateMutability": "view",
      "type": "function"
    },
    {
      "constant": true,
      "inputs": [
        {
          "name": "_id",
          "type": "uint256"
        }
      ],
      "name": "GetAuthorBirthDate",
      "outputs": [
        {
          "name": "",
          "type": "uint256"
        }
      ],
      "payable": false,
      "stateMutability": "view",
      "type": "function"
    },
    {
      "constant": true,
      "inputs": [],
      "name": "GetItemsLength",
      "outputs": [
        {
          "name": "",
          "type": "uint256"
        }
      ],
      "payable": false,
      "stateMutability": "view",
      "type": "function"
    },
    {
      "constant": false,
      "inputs": [
        {
          "name": "_itemId",
          "type": "uint256"
        },
        {
          "name": "_newHolderId",
          "type": "uint256"
        }
      ],
      "name": "ChangeItemHolder",
      "outputs": [],
      "payable": false,
      "stateMutability": "nonpayable",
      "type": "function"
    },
    {
      "constant": true,
      "inputs": [
        {
          "name": "_id",
          "type": "uint256"
        }
      ],
      "name": "GetHolderName",
      "outputs": [
        {
          "name": "",
          "type": "string"
        }
      ],
      "payable": false,
      "stateMutability": "view",
      "type": "function"
    },
    {
      "constant": false,
      "inputs": [
        {
          "name": "_name",
          "type": "string"
        },
        {
          "name": "_countryId",
          "type": "uint16"
        }
      ],
      "name": "AddHolder",
      "outputs": [],
      "payable": false,
      "stateMutability": "nonpayable",
      "type": "function"
    },
    {
      "constant": true,
      "inputs": [
        {
          "name": "_id",
          "type": "uint256"
        }
      ],
      "name": "GetItemCurrentBid",
      "outputs": [
        {
          "name": "",
          "type": "uint256"
        }
      ],
      "payable": false,
      "stateMutability": "view",
      "type": "function"
    },
    {
      "constant": true,
      "inputs": [],
      "name": "GetHoldersLength",
      "outputs": [
        {
          "name": "",
          "type": "uint256"
        }
      ],
      "payable": false,
      "stateMutability": "view",
      "type": "function"
    },
    {
      "constant": false,
      "inputs": [
        {
          "name": "_name",
          "type": "string"
        },
        {
          "name": "_creationDate",
          "type": "uint256"
        },
        {
          "name": "_authorId",
          "type": "uint256"
        },
        {
          "name": "_holderId",
          "type": "uint256"
        }
      ],
      "name": "AddItem",
      "outputs": [],
      "payable": false,
      "stateMutability": "nonpayable",
      "type": "function"
    },
    {
      "constant": true,
      "inputs": [
        {
          "name": "_id",
          "type": "uint256"
        }
      ],
      "name": "GetItemTabletDueDate",
      "outputs": [
        {
          "name": "",
          "type": "uint256"
        }
      ],
      "payable": false,
      "stateMutability": "view",
      "type": "function"
    },
    {
      "constant": false,
      "inputs": [
        {
          "name": "_name",
          "type": "string"
        },
        {
          "name": "_birthDate",
          "type": "uint256"
        }
      ],
      "name": "AddAuthor",
      "outputs": [],
      "payable": false,
      "stateMutability": "nonpayable",
      "type": "function"
    },
    {
      "constant": true,
      "inputs": [
        {
          "name": "_id",
          "type": "uint256"
        }
      ],
      "name": "GetItemHolderId",
      "outputs": [
        {
          "name": "",
          "type": "uint256"
        }
      ],
      "payable": false,
      "stateMutability": "view",
      "type": "function"
    },
    {
      "constant": true,
      "inputs": [
        {
          "name": "_id",
          "type": "uint256"
        }
      ],
      "name": "GetItemTitle",
      "outputs": [
        {
          "name": "",
          "type": "string"
        }
      ],
      "payable": false,
      "stateMutability": "view",
      "type": "function"
    },
    {
      "constant": true,
      "inputs": [
        {
          "name": "_id",
          "type": "uint256"
        }
      ],
      "name": "GetItemPatronAddress",
      "outputs": [
        {
          "name": "",
          "type": "address"
        }
      ],
      "payable": false,
      "stateMutability": "view",
      "type": "function"
    },
    {
      "inputs": [],
      "payable": false,
      "stateMutability": "nonpayable",
      "type": "constructor"
    }
  ],
  "bytecode": "0x606060405234156200001057600080fd5b33600560006101000a81548173ffffffffffffffffffffffffffffffffffffffff021916908373ffffffffffffffffffffffffffffffffffffffff160217905550600180548060010182816200006791906200031c565b9160005260206000209060020201600060408051908101604052806040805190810160405280600581526020017f4d6f6e65740000000000000000000000000000000000000000000000000000008152508152602001600081525090919091506000820151816000019080519060200190620000e592919062000351565b506020820151816001015550505060028054806001018281620001099190620003d8565b9160005260206000209060020201600060408051908101604052806040805190810160405280601581526020017f54726574796b6f76736b6179612047616c6c65727900000000000000000000008152508152602001600761ffff16815250909190915060008201518160000190805190602001906200018b92919062000351565b5060208201518160010160006101000a81548161ffff021916908361ffff16021790555050505060008054806001018281620001c891906200040d565b91600052602060002090600802016000610100604051908101604052806040805190810160405280600681526020017f4974656d203100000000000000000000000000000000000000000000000000008152508152602001600081526020016000815260200160008152602001670de0b6b3a764000081526020016000815260200160008152602001600073ffffffffffffffffffffffffffffffffffffffff16815250909190915060008201518160000190805190602001906200028f92919062000351565b506020820151816001015560408201518160020155606082015181600301556080820151816004015560a0820151816005015560c0820151816006015560e08201518160070160006101000a81548173ffffffffffffffffffffffffffffffffffffffff021916908373ffffffffffffffffffffffffffffffffffffffff160217905550505050620005c6565b8154818355818115116200034c576002028160020283600052602060002091820191016200034b919062000442565b5b505050565b828054600181600116156101000203166002900490600052602060002090601f016020900481019282601f106200039457805160ff1916838001178555620003c5565b82800160010185558215620003c5579182015b82811115620003c4578251825591602001919060010190620003a7565b5b509050620003d491906200047e565b5090565b8154818355818115116200040857600202816002028360005260206000209182019101620004079190620004a6565b5b505050565b8154818355818115116200043d576008028160080283600052602060002091820191016200043c9190620004ef565b5b505050565b6200047b91905b808211156200047757600080820160006200046591906200057a565b60018201600090555060020162000449565b5090565b90565b620004a391905b808211156200049f57600081600090555060010162000485565b5090565b90565b620004ec91905b80821115620004e85760008082016000620004c991906200057a565b6001820160006101000a81549061ffff021916905550600201620004ad565b5090565b90565b6200057791905b808211156200057357600080820160006200051291906200057a565b6001820160009055600282016000905560038201600090556004820160009055600582016000905560068201600090556007820160006101000a81549073ffffffffffffffffffffffffffffffffffffffff021916905550600801620004f6565b5090565b90565b50805460018160011615610100020316600290046000825580601f10620005a25750620005c3565b601f016020900490600052602060002090810190620005c291906200047e565b5b50565b61115880620005d66000396000f3006060604052600436106100fc576000357c0100000000000000000000000000000000000000000000000000000000900463ffffffff168063058d8fe71461010157806311d5d1041461014057806313d385f8146101775780631d3cd08314610213578063233f06e71461023c578063390a7ced146102735780633fde0f53146102aa57806345e1a2da146102d35780634f0b4e7a146102ff57806353946e5d1461039b5780635755b252146103d657806359d602471461040d5780636cd227e31461043657806381bda3fe1461047f5780639730a9e1146104b657806398d7b8d7146104ed578063cbe4769314610524578063f4b4006c146105c0575b600080fd5b341561010c57600080fd5b6101226004808035906020019091905050610623565b604051808261ffff1661ffff16815260200191505060405180910390f35b341561014b57600080fd5b610161600480803590602001909190505061065b565b6040518082815260200191505060405180910390f35b341561018257600080fd5b6101986004808035906020019091905050610684565b6040518080602001828103825283818151815260200191508051906020019080838360005b838110156101d85780820151818401526020810190506101bd565b50505050905090810190601f1680156102055780820380516001836020036101000a031916815260200191505b509250505060405180910390f35b341561021e57600080fd5b61022661074c565b6040518082815260200191505060405180910390f35b341561024757600080fd5b61025d6004808035906020019091905050610759565b6040518082815260200191505060405180910390f35b341561027e57600080fd5b6102946004808035906020019091905050610782565b6040518082815260200191505060405180910390f35b34156102b557600080fd5b6102bd6107ac565b6040518082815260200191505060405180910390f35b34156102de57600080fd5b6102fd60048080359060200190919080359060200190919050506107b8565b005b341561030a57600080fd5b610320600480803590602001909190505061083d565b6040518080602001828103825283818151815260200191508051906020019080838360005b83811015610360578082015181840152602081019050610345565b50505050905090810190601f16801561038d5780820380516001836020036101000a031916815260200191505b509250505060405180910390f35b34156103a657600080fd5b6103d46004808035906020019082018035906020019190919290803561ffff16906020019091905050610905565b005b34156103e157600080fd5b6103f76004808035906020019091905050610a1d565b6040518082815260200191505060405180910390f35b341561041857600080fd5b610420610a46565b6040518082815260200191505060405180910390f35b341561044157600080fd5b61047d60048080359060200190820180359060200191909192908035906020019091908035906020019091908035906020019091905050610a53565b005b341561048a57600080fd5b6104a06004808035906020019091905050610c36565b6040518082815260200191505060405180910390f35b34156104c157600080fd5b6104eb60048080359060200190820180359060200191909192908035906020019091905050610c5f565b005b34156104f857600080fd5b61050e6004808035906020019091905050610d5a565b6040518082815260200191505060405180910390f35b341561052f57600080fd5b6105456004808035906020019091905050610d83565b6040518080602001828103825283818151815260200191508051906020019080838360005b8381101561058557808201518184015260208101905061056a565b50505050905090810190601f1680156105b25780820380516001836020036101000a031916815260200191505b509250505060405180910390f35b34156105cb57600080fd5b6105e16004808035906020019091905050610e4b565b604051808273ffffffffffffffffffffffffffffffffffffffff1673ffffffffffffffffffffffffffffffffffffffff16815260200191505060405180910390f35b600060028281548110151561063457fe5b906000526020600020906002020160010160009054906101000a900461ffff169050919050565b6000808281548110151561066b57fe5b9060005260206000209060080201600101549050919050565b61068c610e94565b60018281548110151561069b57fe5b90600052602060002090600202016000018054600181600116156101000203166002900480601f0160208091040260200160405190810160405280929190818152602001828054600181600116156101000203166002900480156107405780601f1061071557610100808354040283529160200191610740565b820191906000526020600020905b81548152906001019060200180831161072357829003601f168201915b50505050509050919050565b6000600180549050905090565b6000808281548110151561076957fe5b9060005260206000209060080201600301549050919050565b600060018281548110151561079357fe5b9060005260206000209060020201600101549050919050565b60008080549050905090565b600560009054906101000a900473ffffffffffffffffffffffffffffffffffffffff1673ffffffffffffffffffffffffffffffffffffffff163373ffffffffffffffffffffffffffffffffffffffff1614151561081457600080fd5b8060008381548110151561082457fe5b9060005260206000209060080201600201819055505050565b610845610e94565b60028281548110151561085457fe5b90600052602060002090600202016000018054600181600116156101000203166002900480601f0160208091040260200160405190810160405280929190818152602001828054600181600116156101000203166002900480156108f95780601f106108ce576101008083540402835291602001916108f9565b820191906000526020600020905b8154815290600101906020018083116108dc57829003601f168201915b50505050509050919050565b600560009054906101000a900473ffffffffffffffffffffffffffffffffffffffff1673ffffffffffffffffffffffffffffffffffffffff163373ffffffffffffffffffffffffffffffffffffffff1614151561096157600080fd5b600280548060010182816109759190610ea8565b91600052602060002090600202016000604080519081016040528087878080601f01602080910402602001604051908101604052809392919081815260200183838082843782019150505050505081526020018561ffff16815250909190915060008201518160000190805190602001906109f1929190610eda565b5060208201518160010160006101000a81548161ffff021916908361ffff160217905550505050505050565b60008082815481101515610a2d57fe5b9060005260206000209060080201600401549050919050565b6000600280549050905090565b600560009054906101000a900473ffffffffffffffffffffffffffffffffffffffff1673ffffffffffffffffffffffffffffffffffffffff163373ffffffffffffffffffffffffffffffffffffffff16141515610aaf57600080fd5b81600180549050111515610ac257600080fd5b80600280549050111515610ad557600080fd5b60008054806001018281610ae99190610f5a565b916000526020600020906008020160006101006040519081016040528089898080601f0160208091040260200160405190810160405280939291908181526020018383808284378201915050505050508152602001868152602001858152602001878152602001670de0b6b3a764000081526020016000815260200160008152602001600073ffffffffffffffffffffffffffffffffffffffff1681525090919091506000820151816000019080519060200190610ba8929190610eda565b506020820151816001015560408201518160020155606082015181600301556080820151816004015560a0820151816005015560c0820151816006015560e08201518160070160006101000a81548173ffffffffffffffffffffffffffffffffffffffff021916908373ffffffffffffffffffffffffffffffffffffffff1602179055505050505050505050565b60008082815481101515610c4657fe5b9060005260206000209060080201600601549050919050565b600560009054906101000a900473ffffffffffffffffffffffffffffffffffffffff1673ffffffffffffffffffffffffffffffffffffffff163373ffffffffffffffffffffffffffffffffffffffff16141515610cbb57600080fd5b60018054806001018281610ccf9190610f8c565b91600052602060002090600202016000604080519081016040528087878080601f01602080910402602001604051908101604052809392919081815260200183838082843782019150505050505081526020018581525090919091506000820151816000019080519060200190610d47929190610eda565b5060208201518160010155505050505050565b60008082815481101515610d6a57fe5b9060005260206000209060080201600201549050919050565b610d8b610e94565b600082815481101515610d9a57fe5b90600052602060002090600802016000018054600181600116156101000203166002900480601f016020809104026020016040519081016040528092919081815260200182805460018160011615610100020316600290048015610e3f5780601f10610e1457610100808354040283529160200191610e3f565b820191906000526020600020905b815481529060010190602001808311610e2257829003601f168201915b50505050509050919050565b60008082815481101515610e5b57fe5b906000526020600020906008020160070160009054906101000a900473ffffffffffffffffffffffffffffffffffffffff169050919050565b602060405190810160405280600081525090565b815481835581811511610ed557600202816002028360005260206000209182019101610ed49190610fbe565b5b505050565b828054600181600116156101000203166002900490600052602060002090601f016020900481019282601f10610f1b57805160ff1916838001178555610f49565b82800160010185558215610f49579182015b82811115610f48578251825591602001919060010190610f2d565b5b509050610f569190611002565b5090565b815481835581811511610f8757600802816008028360005260206000209182019101610f869190611027565b5b505050565b815481835581811511610fb957600202816002028360005260206000209182019101610fb891906110ad565b5b505050565b610fff91905b80821115610ffb5760008082016000610fdd91906110e4565b6001820160006101000a81549061ffff021916905550600201610fc4565b5090565b90565b61102491905b80821115611020576000816000905550600101611008565b5090565b90565b6110aa91905b808211156110a6576000808201600061104691906110e4565b6001820160009055600282016000905560038201600090556004820160009055600582016000905560068201600090556007820160006101000a81549073ffffffffffffffffffffffffffffffffffffffff02191690555060080161102d565b5090565b90565b6110e191905b808211156110dd57600080820160006110cc91906110e4565b6001820160009055506002016110b3565b5090565b90565b50805460018160011615610100020316600290046000825580601f1061110a5750611129565b601f0160209004906000526020600020908101906111289190611002565b5b505600a165627a7a72305820761b4bcdd5ce8b46db7984f8f349a3ba77cfeaf1995f50ecedc979a199753e700029",
  "source": "pragma solidity ^0.4.18;\n\nimport \"./ArtPatronManagement.sol\";\n\ncontract ArtPatron is ArtPatronManagement {\n    function ArtPatron() public {\n        authors.push(Author(\"Monet\", 0));\n        holders.push(Holder(\"Tretykovskaya Gallery\", 7));\n\n        items.push(Item(\"Item 1\", 0, 0, 0, 1 ether, 0, 0, 0));\n    }\n}\n",
  "sourcePath": "/home/shamsfk/projects/artpatron/ethereum/contracts/ArtPatron.sol",
  "compiler": {
    "name": "solc",
    "version": "0.4.21+commit.dfe3193c.Emscripten.clang"
  },
  "schemaVersion": "2.0.0",
  "updatedAt": "2018-04-17T17:56:33.887Z"
}