{
  "contractName": "ArtPatronDataAccess",
  "abi": [
    {
      "constant": true,
      "inputs": [],
      "name": "GetItemsLength",
      "outputs": [
        {
          "name": "",
          "type": "uint256"
        }
      ],
      "payable": false,
      "stateMutability": "view",
      "type": "function"
    },
    {
      "constant": true,
      "inputs": [
        {
          "name": "_id",
          "type": "uint256"
        }
      ],
      "name": "GetItemName",
      "outputs": [
        {
          "name": "",
          "type": "string"
        }
      ],
      "payable": false,
      "stateMutability": "view",
      "type": "function"
    },
    {
      "constant": true,
      "inputs": [
        {
          "name": "_id",
          "type": "uint256"
        }
      ],
      "name": "GetItemCreationDate",
      "outputs": [
        {
          "name": "",
          "type": "uint256"
        }
      ],
      "payable": false,
      "stateMutability": "view",
      "type": "function"
    },
    {
      "constant": true,
      "inputs": [
        {
          "name": "_id",
          "type": "uint256"
        }
      ],
      "name": "GetItemCurrentBid",
      "outputs": [
        {
          "name": "",
          "type": "uint256"
        }
      ],
      "payable": false,
      "stateMutability": "view",
      "type": "function"
    },
    {
      "constant": true,
      "inputs": [
        {
          "name": "_id",
          "type": "uint256"
        }
      ],
      "name": "GetItemPatronshipDate",
      "outputs": [
        {
          "name": "",
          "type": "uint256"
        }
      ],
      "payable": false,
      "stateMutability": "view",
      "type": "function"
    },
    {
      "constant": true,
      "inputs": [
        {
          "name": "_id",
          "type": "uint256"
        }
      ],
      "name": "GetItemPatronAddress",
      "outputs": [
        {
          "name": "",
          "type": "address"
        }
      ],
      "payable": false,
      "stateMutability": "view",
      "type": "function"
    }
  ],
  "bytecode": "0x6060604052341561000f57600080fd5b6104228061001e6000396000f300606060405260043610610078576000357c0100000000000000000000000000000000000000000000000000000000900463ffffffff168063233f06e71461007d5780633fde0f53146100b457806342b48e54146100dd5780635755b252146101145780638114a8611461014b578063f4b4006c146101e7575b600080fd5b341561008857600080fd5b61009e600480803590602001909190505061024a565b6040518082815260200191505060405180910390f35b34156100bf57600080fd5b6100c7610273565b6040518082815260200191505060405180910390f35b34156100e857600080fd5b6100fe600480803590602001909190505061027f565b6040518082815260200191505060405180910390f35b341561011f57600080fd5b61013560048080359060200190919050506102a8565b6040518082815260200191505060405180910390f35b341561015657600080fd5b61016c60048080359060200190919050506102d1565b6040518080602001828103825283818151815260200191508051906020019080838360005b838110156101ac578082015181840152602081019050610191565b50505050905090810190601f1680156101d95780820380516001836020036101000a031916815260200191505b509250505060405180910390f35b34156101f257600080fd5b6102086004808035906020019091905050610399565b604051808273ffffffffffffffffffffffffffffffffffffffff1673ffffffffffffffffffffffffffffffffffffffff16815260200191505060405180910390f35b6000808281548110151561025a57fe5b9060005260206000209060060201600101549050919050565b60008080549050905090565b6000808281548110151561028f57fe5b9060005260206000209060060201600301549050919050565b600080828154811015156102b857fe5b9060005260206000209060060201600201549050919050565b6102d96103e2565b6000828154811015156102e857fe5b90600052602060002090600602016000018054600181600116156101000203166002900480601f01602080910402602001604051908101604052809291908181526020018280546001816001161561010002031660029004801561038d5780601f106103625761010080835404028352916020019161038d565b820191906000526020600020905b81548152906001019060200180831161037057829003601f168201915b50505050509050919050565b600080828154811015156103a957fe5b906000526020600020906006020160050160009054906101000a900473ffffffffffffffffffffffffffffffffffffffff169050919050565b6020604051908101604052806000815250905600a165627a7a723058204dc85d021b4a1549f2e31c2db0a00597e9aea854f188003e333789a0d6c2efbb0029",
  "source": "pragma solidity ^0.4.18;\n\nimport \"./ArtPatronData.sol\";\n\ncontract ArtPatronDataAccess is ArtPatronData {\n    function GetItemsLength() external view returns (uint) {\n        return items.length;\n    }\n\n    function GetItemName(uint _id) external view returns(string) {\n        return items[_id].name;\n    }\n\n    function GetItemCreationDate(uint _id) external view returns(uint) {\n        return items[_id].creationDate;\n    }\n\n    function GetItemCurrentBid(uint _id) external view returns(uint) {\n        return items[_id].currentBid;\n    }\n\n    function GetItemPatronshipDate(uint _id) external view returns(uint) {\n        return items[_id].patronshipDate;\n    }\n\n    function GetItemPatronAddress(uint _id) external view returns(address) {\n        return items[_id].patronAddress;\n    }\n}\n",
  "sourcePath": "/home/shamsfk/projects/artpatron/ethereum/contracts/ArtPatronDataAccess.sol",
  "compiler": {
    "name": "solc",
    "version": "0.4.21+commit.dfe3193c.Emscripten.clang"
  },
  "schemaVersion": "2.0.0",
  "updatedAt": "2018-04-17T02:25:59.742Z"
}