{
  "contractName": "ArtPatronManagement",
  "abi": [
    {
      "constant": true,
      "inputs": [],
      "name": "GetAuthorsLength",
      "outputs": [
        {
          "name": "",
          "type": "uint256"
        }
      ],
      "payable": false,
      "stateMutability": "view",
      "type": "function"
    },
    {
      "constant": true,
      "inputs": [
        {
          "name": "_itemId",
          "type": "uint256"
        }
      ],
      "name": "GetItemData",
      "outputs": [
        {
          "name": "name",
          "type": "string"
        },
        {
          "name": "id",
          "type": "uint256"
        },
        {
          "name": "authorId",
          "type": "uint256"
        },
        {
          "name": "museumId",
          "type": "uint256"
        },
        {
          "name": "creationDate",
          "type": "uint256"
        },
        {
          "name": "currentBid",
          "type": "uint256"
        },
        {
          "name": "marketDate",
          "type": "uint256"
        },
        {
          "name": "patronAddress",
          "type": "address"
        }
      ],
      "payable": false,
      "stateMutability": "view",
      "type": "function"
    },
    {
      "constant": true,
      "inputs": [],
      "name": "GetItemsLength",
      "outputs": [
        {
          "name": "",
          "type": "uint256"
        }
      ],
      "payable": false,
      "stateMutability": "view",
      "type": "function"
    },
    {
      "constant": true,
      "inputs": [],
      "name": "owner",
      "outputs": [
        {
          "name": "",
          "type": "address"
        }
      ],
      "payable": false,
      "stateMutability": "view",
      "type": "function"
    },
    {
      "constant": true,
      "inputs": [],
      "name": "GetMuseumsLength",
      "outputs": [
        {
          "name": "",
          "type": "uint256"
        }
      ],
      "payable": false,
      "stateMutability": "view",
      "type": "function"
    },
    {
      "constant": true,
      "inputs": [
        {
          "name": "",
          "type": "address"
        }
      ],
      "name": "ownedItemsCount",
      "outputs": [
        {
          "name": "",
          "type": "uint256"
        }
      ],
      "payable": false,
      "stateMutability": "view",
      "type": "function"
    },
    {
      "constant": true,
      "inputs": [
        {
          "name": "_museumId",
          "type": "uint256"
        }
      ],
      "name": "GetMuseumData",
      "outputs": [
        {
          "name": "name",
          "type": "string"
        },
        {
          "name": "id",
          "type": "uint256"
        },
        {
          "name": "countryId",
          "type": "uint256"
        }
      ],
      "payable": false,
      "stateMutability": "view",
      "type": "function"
    },
    {
      "constant": true,
      "inputs": [],
      "name": "collectorAddress",
      "outputs": [
        {
          "name": "",
          "type": "address"
        }
      ],
      "payable": false,
      "stateMutability": "view",
      "type": "function"
    },
    {
      "constant": true,
      "inputs": [
        {
          "name": "_authorId",
          "type": "uint256"
        }
      ],
      "name": "GetAuthorData",
      "outputs": [
        {
          "name": "name",
          "type": "string"
        },
        {
          "name": "id",
          "type": "uint256"
        },
        {
          "name": "birthDate",
          "type": "uint256"
        }
      ],
      "payable": false,
      "stateMutability": "view",
      "type": "function"
    },
    {
      "constant": false,
      "inputs": [
        {
          "name": "newOwner",
          "type": "address"
        }
      ],
      "name": "transferOwnership",
      "outputs": [],
      "payable": false,
      "stateMutability": "nonpayable",
      "type": "function"
    },
    {
      "anonymous": false,
      "inputs": [
        {
          "indexed": false,
          "name": "itemId",
          "type": "uint256"
        }
      ],
      "name": "ItemAdded",
      "type": "event"
    },
    {
      "anonymous": false,
      "inputs": [
        {
          "indexed": false,
          "name": "authorId",
          "type": "uint256"
        }
      ],
      "name": "AuthorAdded",
      "type": "event"
    },
    {
      "anonymous": false,
      "inputs": [
        {
          "indexed": false,
          "name": "museumId",
          "type": "uint256"
        }
      ],
      "name": "MuseumAdded",
      "type": "event"
    },
    {
      "anonymous": false,
      "inputs": [
        {
          "indexed": false,
          "name": "itemId",
          "type": "uint256"
        }
      ],
      "name": "ItemMuseumChanged",
      "type": "event"
    },
    {
      "anonymous": false,
      "inputs": [
        {
          "indexed": true,
          "name": "previousOwner",
          "type": "address"
        },
        {
          "indexed": true,
          "name": "newOwner",
          "type": "address"
        }
      ],
      "name": "OwnershipTransferred",
      "type": "event"
    },
    {
      "constant": false,
      "inputs": [
        {
          "name": "ca",
          "type": "address"
        }
      ],
      "name": "SetCollectorAddress",
      "outputs": [],
      "payable": false,
      "stateMutability": "nonpayable",
      "type": "function"
    },
    {
      "constant": false,
      "inputs": [
        {
          "name": "_name",
          "type": "string"
        },
        {
          "name": "_creationDate",
          "type": "uint256"
        },
        {
          "name": "_marketDate",
          "type": "uint256"
        },
        {
          "name": "_authorId",
          "type": "uint256"
        },
        {
          "name": "_museumId",
          "type": "uint256"
        }
      ],
      "name": "AddItem",
      "outputs": [],
      "payable": false,
      "stateMutability": "nonpayable",
      "type": "function"
    },
    {
      "constant": false,
      "inputs": [
        {
          "name": "_name",
          "type": "string"
        },
        {
          "name": "_birthDate",
          "type": "uint256"
        }
      ],
      "name": "AddAuthor",
      "outputs": [],
      "payable": false,
      "stateMutability": "nonpayable",
      "type": "function"
    },
    {
      "constant": false,
      "inputs": [
        {
          "name": "_name",
          "type": "string"
        },
        {
          "name": "_countryId",
          "type": "uint16"
        }
      ],
      "name": "AddMuseum",
      "outputs": [],
      "payable": false,
      "stateMutability": "nonpayable",
      "type": "function"
    },
    {
      "constant": false,
      "inputs": [
        {
          "name": "_itemId",
          "type": "uint256"
        },
        {
          "name": "_newMuseumId",
          "type": "uint256"
        }
      ],
      "name": "ChangeItemMuseum",
      "outputs": [],
      "payable": false,
      "stateMutability": "nonpayable",
      "type": "function"
    }
  ],
  "bytecode": "0x608060405233600460006101000a81548173ffffffffffffffffffffffffffffffffffffffff021916908373ffffffffffffffffffffffffffffffffffffffff1602179055506112c7806100546000396000f3006080604052600436106100db576000357c0100000000000000000000000000000000000000000000000000000000900463ffffffff1680631d3cd083146100e05780631f5485561461010b5780632cb9061a1461020e5780633b9424a7146102455780633fde0f5314610288578063554c2369146102b35780638da5cb5b1461032a5780639147be0f146103815780639730a9e1146103ac57806399ace50c1461041f578063c4d4c15014610476578063c973c2e31461052a578063d7d42e8b14610581578063e5ee34f714610612578063f2fde38b146106c6575b600080fd5b3480156100ec57600080fd5b506100f5610709565b6040518082815260200191505060405180910390f35b34801561011757600080fd5b5061013660048036038101908080359060200190929190505050610716565b60405180806020018981526020018881526020018781526020018681526020018581526020018481526020018373ffffffffffffffffffffffffffffffffffffffff1673ffffffffffffffffffffffffffffffffffffffff16815260200182810382528a818151815260200191508051906020019080838360005b838110156101cc5780820151818401526020810190506101b1565b50505050905090810190601f1680156101f95780820380516001836020036101000a031916815260200191505b50995050505050505050505060405180910390f35b34801561021a57600080fd5b506102436004803603810190808035906020019092919080359060200190929190505050610852565b005b34801561025157600080fd5b50610286600480360381019080803573ffffffffffffffffffffffffffffffffffffffff16906020019092919050505061090e565b005b34801561029457600080fd5b5061029d6109ae565b6040518082815260200191505060405180910390f35b3480156102bf57600080fd5b50610328600480360381019080803590602001908201803590602001908080601f0160208091040260200160405190810160405280939291908181526020018383808284378201915050505050509192919290803561ffff1690602001909291905050506109ba565b005b34801561033657600080fd5b5061033f610b08565b604051808273ffffffffffffffffffffffffffffffffffffffff1673ffffffffffffffffffffffffffffffffffffffff16815260200191505060405180910390f35b34801561038d57600080fd5b50610396610b2e565b6040518082815260200191505060405180910390f35b3480156103b857600080fd5b5061041d600480360381019080803590602001908201803590602001908080601f016020809104026020016040519081016040528093929190818152602001838380828437820191505050505050919291929080359060200190929190505050610b3b565b005b34801561042b57600080fd5b50610460600480360381019080803573ffffffffffffffffffffffffffffffffffffffff169060200190929190505050610c6b565b6040518082815260200191505060405180910390f35b34801561048257600080fd5b506104a160048036038101908080359060200190929190505050610c83565b6040518080602001848152602001838152602001828103825285818151815260200191508051906020019080838360005b838110156104ed5780820151818401526020810190506104d2565b50505050905090810190601f16801561051a5780820380516001836020036101000a031916815260200191505b5094505050505060405180910390f35b34801561053657600080fd5b5061053f610d83565b604051808273ffffffffffffffffffffffffffffffffffffffff1673ffffffffffffffffffffffffffffffffffffffff16815260200191505060405180910390f35b34801561058d57600080fd5b50610610600480360381019080803590602001908201803590602001908080601f016020809104026020016040519081016040528093929190818152602001838380828437820191505050505050919291929080359060200190929190803590602001909291908035906020019092919080359060200190929190505050610da9565b005b34801561061e57600080fd5b5061063d60048036038101908080359060200190929190505050610fb0565b6040518080602001848152602001838152602001828103825285818151815260200191508051906020019080838360005b8381101561068957808201518184015260208101905061066e565b50505050905090810190601f1680156106b65780820380516001836020036101000a031916815260200191505b5094505050505060405180910390f35b3480156106d257600080fd5b50610707600480360381019080803573ffffffffffffffffffffffffffffffffffffffff16906020019092919050505061109e565b005b6000600180549050905090565b60606000806000806000806000808960008054905011151561073757600080fd5b60008a81548110151561074657fe5b90600052602060002090600802019050806000018054600181600116156101000203166002900480601f0160208091040260200160405190810160405280929190818152602001828054600181600116156101000203166002900480156107ee5780601f106107c3576101008083540402835291602001916107ee565b820191906000526020600020905b8154815290600101906020018083116107d157829003601f168201915b505050505098508060010154975080600201549650806003015495508060040154945080600501549350806006015492508060070160009054906101000a900473ffffffffffffffffffffffffffffffffffffffff16915050919395975091939597565b600460009054906101000a900473ffffffffffffffffffffffffffffffffffffffff1673ffffffffffffffffffffffffffffffffffffffff163373ffffffffffffffffffffffffffffffffffffffff161415156108ae57600080fd5b806000838154811015156108be57fe5b9060005260206000209060080201600301819055507f27bd6917188fdebc18cf54e6776ef22e85b53fd5bfbd6c3902fdf4cec0d4d4ca826040518082815260200191505060405180910390a15050565b600460009054906101000a900473ffffffffffffffffffffffffffffffffffffffff1673ffffffffffffffffffffffffffffffffffffffff163373ffffffffffffffffffffffffffffffffffffffff1614151561096a57600080fd5b80600560006101000a81548173ffffffffffffffffffffffffffffffffffffffff021916908373ffffffffffffffffffffffffffffffffffffffff16021790555050565b60008080549050905090565b600460009054906101000a900473ffffffffffffffffffffffffffffffffffffffff1673ffffffffffffffffffffffffffffffffffffffff163373ffffffffffffffffffffffffffffffffffffffff16141515610a1657600080fd5b60008251111515610a2657600080fd5b600260606040519081016040528084815260200160028054905081526020018361ffff16815250908060018154018082558091505090600182039060005260206000209060030201600090919290919091506000820151816000019080519060200190610a949291906111f6565b506020820151816001015560408201518160020160006101000a81548161ffff021916908361ffff1602179055505050507f298fe12d220fd4b23fa5d9392cd7284252579633b9b2ddb0e32b13832e1835c56001600280549050036040518082815260200191505060405180910390a15050565b600460009054906101000a900473ffffffffffffffffffffffffffffffffffffffff1681565b6000600280549050905090565b600460009054906101000a900473ffffffffffffffffffffffffffffffffffffffff1673ffffffffffffffffffffffffffffffffffffffff163373ffffffffffffffffffffffffffffffffffffffff16141515610b9757600080fd5b60008251111515610ba757600080fd5b6001606060405190810160405280848152602001600180549050815260200183815250908060018154018082558091505090600182039060005260206000209060030201600090919290919091506000820151816000019080519060200190610c119291906111f6565b5060208201518160010155604082015181600201555050507f893b6c60166e13bdcaac5ed8b58be564952549481dc61e31e3ae20c1d0d7e29260018080549050036040518082815260200191505060405180910390a15050565b60036020528060005260406000206000915090505481565b6060600080600084600280549050111515610c9d57600080fd5b600285815481101515610cac57fe5b90600052602060002090600302019050806000018054600181600116156101000203166002900480601f016020809104026020016040519081016040528092919081815260200182805460018160011615610100020316600290048015610d545780601f10610d2957610100808354040283529160200191610d54565b820191906000526020600020905b815481529060010190602001808311610d3757829003601f168201915b50505050509350806001015492508060020160009054906101000a900461ffff1661ffff169150509193909250565b600560009054906101000a900473ffffffffffffffffffffffffffffffffffffffff1681565b600460009054906101000a900473ffffffffffffffffffffffffffffffffffffffff1673ffffffffffffffffffffffffffffffffffffffff163373ffffffffffffffffffffffffffffffffffffffff16141515610e0557600080fd5b81600180549050111515610e1857600080fd5b80600280549050111515610e2b57600080fd5b60008551111515610e3b57600080fd5b6000610100604051908101604052808781526020016000805490508152602001848152602001838152602001868152602001670de0b6b3a76400008152602001858152602001600073ffffffffffffffffffffffffffffffffffffffff16815250908060018154018082558091505090600182039060005260206000209060080201600090919290919091506000820151816000019080519060200190610ee39291906111f6565b506020820151816001015560408201518160020155606082015181600301556080820151816004015560a0820151816005015560c0820151816006015560e08201518160070160006101000a81548173ffffffffffffffffffffffffffffffffffffffff021916908373ffffffffffffffffffffffffffffffffffffffff1602179055505050507f186760a37e06b130959978c68b5c592841caf4f64de1dc960b2c54cf454ca9dd6001600080549050036040518082815260200191505060405180910390a15050505050565b6060600080600084600180549050111515610fca57600080fd5b600185815481101515610fd957fe5b90600052602060002090600302019050806000018054600181600116156101000203166002900480601f0160208091040260200160405190810160405280929190818152602001828054600181600116156101000203166002900480156110815780601f1061105657610100808354040283529160200191611081565b820191906000526020600020905b81548152906001019060200180831161106457829003601f168201915b505050505093508060010154925080600201549150509193909250565b600460009054906101000a900473ffffffffffffffffffffffffffffffffffffffff1673ffffffffffffffffffffffffffffffffffffffff163373ffffffffffffffffffffffffffffffffffffffff161415156110fa57600080fd5b600073ffffffffffffffffffffffffffffffffffffffff168173ffffffffffffffffffffffffffffffffffffffff161415151561113657600080fd5b8073ffffffffffffffffffffffffffffffffffffffff16600460009054906101000a900473ffffffffffffffffffffffffffffffffffffffff1673ffffffffffffffffffffffffffffffffffffffff167f8be0079c531659141344cd1fd0a4f28419497f9722a3daafe3b4186f6b6457e060405160405180910390a380600460006101000a81548173ffffffffffffffffffffffffffffffffffffffff021916908373ffffffffffffffffffffffffffffffffffffffff16021790555050565b828054600181600116156101000203166002900490600052602060002090601f016020900481019282601f1061123757805160ff1916838001178555611265565b82800160010185558215611265579182015b82811115611264578251825591602001919060010190611249565b5b5090506112729190611276565b5090565b61129891905b8082111561129457600081600090555060010161127c565b5090565b905600a165627a7a723058208e80991cf07ab8e8a42a71a7fcd0f65512925c9a60efb355ee5692d861074f4e0029",
  "source": "pragma solidity ^0.4.21;\n\nimport \"./ArtPatronData.sol\";\nimport \"../../node_modules/zeppelin-solidity/contracts/ownership/Ownable.sol\";\n\ncontract ArtPatronManagement is ArtPatronData, Ownable {\n    address public collectorAddress; // address that collects fees and museum rewards\n\n    event ItemAdded(uint itemId);\n    event AuthorAdded(uint authorId);\n    event MuseumAdded(uint museumId);\n    event ItemMuseumChanged(uint itemId);\n\n    /**\n    * @dev Sets collectorAddress (to transfr fee to) onlyOwner\n    * @param ca new collector address\n    */\n    function SetCollectorAddress(address ca) public onlyOwner {\n        collectorAddress = ca;\n    }\n\n    /**\n    * @dev Add new Item (onlyOwner)\n    * @param _name Name of an item eg: \"Mona Lisa\"\n    * @param _creationDate Date of item's creation\n    * @param _marketDate Date when item will be tradeable\n    * @param _authorId Index of an author in authors array\n    * @param _museumId Index of a museum in museums array\n    */\n    function AddItem(\n        string _name,\n        uint _creationDate,\n        uint _marketDate,\n        uint _authorId,\n        uint _museumId\n    )\n        public onlyOwner\n    {\n        require(authors.length > _authorId);\n        require(museums.length > _museumId);\n\n        require(bytes(_name).length > 0);\n\n        items.push(Item(\n            _name,\n            items.length,\n            _authorId,\n            _museumId,\n            _creationDate,\n            1 ether,\n            _marketDate,\n            0\n        ));\n\n        emit ItemAdded(items.length - 1);\n    }\n\n    /**\n    * @dev Add new Author (onlyOwner)\n    * @param _name Author's name\n    * @param _birthDate Date of author's birth\n    */\n    function AddAuthor(string _name, uint _birthDate)\n        public onlyOwner\n    {\n        require(bytes(_name).length > 0);\n        authors.push(Author(_name, authors.length, _birthDate));\n\n        emit AuthorAdded(authors.length - 1);\n    }\n\n    /**\n    * @dev Add new Museum (onlyOwner)\n    * @param _name Hoder's name\n    * @param _countryId Numerical index of a country museum resides in\n    */\n    function AddMuseum(string _name, uint16 _countryId)\n        public onlyOwner\n    {\n        require(bytes(_name).length > 0);\n        museums.push(Museum(_name, museums.length, _countryId));\n\n        emit MuseumAdded(museums.length - 1);\n    }\n\n    /**\n    * @dev Change Item's Museum (onlyOwner)\n    * @param _itemId Index of an item in items array\n    * @param _newMuseumId Index of a new museum in museums array\n    */\n    function ChangeItemMuseum(uint _itemId, uint _newMuseumId)\n        external onlyOwner\n    {\n        items[_itemId].museumId = _newMuseumId;\n\n        emit ItemMuseumChanged(_itemId);\n    }\n}\n",
  "sourcePath": "/mnt/c/projects/artpatron/ethereum/contracts/ArtPatronManagement.sol",
  "compiler": {
    "name": "solc",
    "version": "0.4.23+commit.124ca40d.Emscripten.clang"
  },
  "schemaVersion": "2.0.0",
  "updatedAt": "2018-05-21T06:09:18.302Z"
}