{
  "contractName": "ArtPatronData",
  "abi": [
    {
      "constant": true,
      "inputs": [],
      "name": "GetItemsLength",
      "outputs": [
        {
          "name": "",
          "type": "uint256"
        }
      ],
      "payable": false,
      "stateMutability": "view",
      "type": "function"
    },
    {
      "constant": true,
      "inputs": [],
      "name": "GetAuthorsLength",
      "outputs": [
        {
          "name": "",
          "type": "uint256"
        }
      ],
      "payable": false,
      "stateMutability": "view",
      "type": "function"
    },
    {
      "constant": true,
      "inputs": [],
      "name": "GetHoldersLength",
      "outputs": [
        {
          "name": "",
          "type": "uint256"
        }
      ],
      "payable": false,
      "stateMutability": "view",
      "type": "function"
    },
    {
      "constant": true,
      "inputs": [
        {
          "name": "_itemId",
          "type": "uint256"
        }
      ],
      "name": "GetItemData",
      "outputs": [
        {
          "name": "name",
          "type": "string"
        },
        {
          "name": "id",
          "type": "uint256"
        },
        {
          "name": "authorId",
          "type": "uint256"
        },
        {
          "name": "holderId",
          "type": "uint256"
        },
        {
          "name": "creationDate",
          "type": "uint256"
        },
        {
          "name": "currentBid",
          "type": "uint256"
        },
        {
          "name": "tabletDueDate",
          "type": "uint256"
        },
        {
          "name": "patronAddress",
          "type": "address"
        }
      ],
      "payable": false,
      "stateMutability": "view",
      "type": "function"
    },
    {
      "constant": true,
      "inputs": [
        {
          "name": "_authorId",
          "type": "uint256"
        }
      ],
      "name": "GetAuthorData",
      "outputs": [
        {
          "name": "name",
          "type": "string"
        },
        {
          "name": "id",
          "type": "uint256"
        },
        {
          "name": "birthDate",
          "type": "uint256"
        }
      ],
      "payable": false,
      "stateMutability": "view",
      "type": "function"
    },
    {
      "constant": true,
      "inputs": [
        {
          "name": "_holderId",
          "type": "uint256"
        }
      ],
      "name": "GetHolderData",
      "outputs": [
        {
          "name": "name",
          "type": "string"
        },
        {
          "name": "id",
          "type": "uint256"
        },
        {
          "name": "countryId",
          "type": "uint256"
        }
      ],
      "payable": false,
      "stateMutability": "view",
      "type": "function"
    }
  ],
  "bytecode": "0x6060604052341561000f57600080fd5b6106e78061001e6000396000f300606060405260043610610078576000357c0100000000000000000000000000000000000000000000000000000000900463ffffffff1680631d3cd0831461007d5780631f548556146100a65780633fde0f531461019f57806359d60247146101c8578063e5ee34f7146101f1578063eec4f7c91461029b575b600080fd5b341561008857600080fd5b610090610345565b6040518082815260200191505060405180910390f35b34156100b157600080fd5b6100c76004808035906020019091905050610352565b60405180806020018981526020018881526020018781526020018681526020018581526020018481526020018373ffffffffffffffffffffffffffffffffffffffff1673ffffffffffffffffffffffffffffffffffffffff16815260200182810382528a818151815260200191508051906020019080838360005b8381101561015d578082015181840152602081019050610142565b50505050905090810190601f16801561018a5780820380516001836020036101000a031916815260200191505b50995050505050505050505060405180910390f35b34156101aa57600080fd5b6101b2610494565b6040518082815260200191505060405180910390f35b34156101d357600080fd5b6101db6104a0565b6040518082815260200191505060405180910390f35b34156101fc57600080fd5b61021260048080359060200190919050506104ad565b6040518080602001848152602001838152602001828103825285818151815260200191508051906020019080838360005b8381101561025e578082015181840152602081019050610243565b50505050905090810190601f16801561028b5780820380516001836020036101000a031916815260200191505b5094505050505060405180910390f35b34156102a657600080fd5b6102bc60048080359060200190919050506105a1565b6040518080602001848152602001838152602001828103825285818151815260200191508051906020019080838360005b838110156103085780820151818401526020810190506102ed565b50505050905090810190601f1680156103355780820380516001836020036101000a031916815260200191505b5094505050505060405180910390f35b6000600180549050905090565b61035a6106a7565b6000806000806000806000808960008054905011151561037957600080fd5b60008a81548110151561038857fe5b90600052602060002090600802019050806000018054600181600116156101000203166002900480601f0160208091040260200160405190810160405280929190818152602001828054600181600116156101000203166002900480156104305780601f1061040557610100808354040283529160200191610430565b820191906000526020600020905b81548152906001019060200180831161041357829003601f168201915b505050505098508060010154975080600201549650806003015495508060040154945080600501549350806006015492508060070160009054906101000a900473ffffffffffffffffffffffffffffffffffffffff16915050919395975091939597565b60008080549050905090565b6000600280549050905090565b6104b56106a7565b6000806000846001805490501115156104cd57600080fd5b6001858154811015156104dc57fe5b90600052602060002090600302019050806000018054600181600116156101000203166002900480601f0160208091040260200160405190810160405280929190818152602001828054600181600116156101000203166002900480156105845780601f1061055957610100808354040283529160200191610584565b820191906000526020600020905b81548152906001019060200180831161056757829003601f168201915b505050505093508060010154925080600201549150509193909250565b6105a96106a7565b6000806000846002805490501115156105c157600080fd5b6002858154811015156105d057fe5b90600052602060002090600302019050806000018054600181600116156101000203166002900480601f0160208091040260200160405190810160405280929190818152602001828054600181600116156101000203166002900480156106785780601f1061064d57610100808354040283529160200191610678565b820191906000526020600020905b81548152906001019060200180831161065b57829003601f168201915b50505050509350806001015492508060020160009054906101000a900461ffff1661ffff169150509193909250565b6020604051908101604052806000815250905600a165627a7a72305820475494bdaeb5308bd1903fd997b4c881a04f6850d0df7c311d194d7873ad44dd0029",
  "source": "pragma solidity ^0.4.21;\n\n/// @title Art Patron Data constract\n/// Holds data of all Items, Authors and Holders\n/// @dev Data is stored in arrays\n/// @dev There is no write access in this contract\n/// @dev Read access\ncontract ArtPatronData {\n    struct Item {\n        string name;\n        uint id;\n        uint authorId;\n        uint holderId;\n        uint creationDate;\n        uint currentBid;\n        uint tabletDueDate;\n        address patronAddress;\n    }\n\n    struct Author {\n        string name;\n        uint id;\n        uint birthDate;\n    }\n\n    struct Holder {\n        string name;\n        uint id;\n        uint16 countryId;\n    }\n\n    Item[] internal items;\n    Author[] internal authors;\n    Holder[] internal holders;\n\n    mapping (uint => uint) internal itemToAuthor;\n    mapping (uint => uint) internal itemToHolder;\n\n    function GetItemsLength() external view returns (uint) {\n        return items.length;\n    }\n\n    function GetAuthorsLength() external view returns(uint) {\n        return authors.length;\n    }\n\n    function GetHoldersLength() external view returns(uint) {\n        return holders.length;\n    }\n\n    function GetItemData(uint _itemId) external view\n        returns (\n            string name,\n            uint id,\n            uint authorId,\n            uint holderId,\n            uint creationDate,\n            uint currentBid,\n            uint tabletDueDate,\n            address patronAddress\n        )\n    {\n        require(items.length > _itemId);\n        Item storage item = items[_itemId];\n\n        name = item.name;\n        id = item.id;\n        authorId = item.authorId;\n        holderId = item.holderId;\n        creationDate = item.creationDate;\n        currentBid = item.currentBid;\n        tabletDueDate = item.tabletDueDate;\n        patronAddress = item.patronAddress;\n    }\n\n    function GetAuthorData(uint _authorId) external view\n        returns (\n            string name,\n            uint id,\n            uint birthDate\n        )\n    {\n        require(authors.length > _authorId);\n        Author storage author = authors[_authorId];\n\n        name = author.name;\n        id = author.id;\n        birthDate = author.birthDate;\n    }\n\n    function GetHolderData(uint _holderId) external view\n        returns (\n            string name,\n            uint id,\n            uint countryId\n        )\n    {\n        require(holders.length > _holderId);\n        Holder storage holder = holders[_holderId];\n\n        name = holder.name;\n        id = holder.id;\n        countryId = holder.countryId;\n    }\n}\n",
  "sourcePath": "/home/shamsfk/projects/artpatron/ethereum/contracts/ArtPatronData.sol",
  "compiler": {
    "name": "solc",
    "version": "0.4.21+commit.dfe3193c.Emscripten.clang"
  },
  "schemaVersion": "2.0.0",
  "updatedAt": "2018-04-27T17:13:48.432Z"
}