{
  "contractName": "ArtPatronMarket",
  "abi": [
    {
      "constant": true,
      "inputs": [],
      "name": "totalPayments",
      "outputs": [
        {
          "name": "",
          "type": "uint256"
        }
      ],
      "payable": false,
      "stateMutability": "view",
      "type": "function"
    },
    {
      "constant": true,
      "inputs": [],
      "name": "GetAuthorsLength",
      "outputs": [
        {
          "name": "",
          "type": "uint256"
        }
      ],
      "payable": false,
      "stateMutability": "view",
      "type": "function"
    },
    {
      "constant": true,
      "inputs": [
        {
          "name": "_itemId",
          "type": "uint256"
        }
      ],
      "name": "GetItemData",
      "outputs": [
        {
          "name": "name",
          "type": "string"
        },
        {
          "name": "id",
          "type": "uint256"
        },
        {
          "name": "authorId",
          "type": "uint256"
        },
        {
          "name": "holderId",
          "type": "uint256"
        },
        {
          "name": "creationDate",
          "type": "uint256"
        },
        {
          "name": "currentBid",
          "type": "uint256"
        },
        {
          "name": "marketDate",
          "type": "uint256"
        },
        {
          "name": "patronAddress",
          "type": "address"
        }
      ],
      "payable": false,
      "stateMutability": "view",
      "type": "function"
    },
    {
      "constant": false,
      "inputs": [
        {
          "name": "ca",
          "type": "address"
        }
      ],
      "name": "SetCollectorAddress",
      "outputs": [],
      "payable": false,
      "stateMutability": "nonpayable",
      "type": "function"
    },
    {
      "constant": true,
      "inputs": [],
      "name": "GetItemsLength",
      "outputs": [
        {
          "name": "",
          "type": "uint256"
        }
      ],
      "payable": false,
      "stateMutability": "view",
      "type": "function"
    },
    {
      "constant": false,
      "inputs": [
        {
          "name": "_itemId",
          "type": "uint256"
        },
        {
          "name": "_newHolderId",
          "type": "uint256"
        }
      ],
      "name": "ChangeItemHolder",
      "outputs": [],
      "payable": false,
      "stateMutability": "nonpayable",
      "type": "function"
    },
    {
      "constant": false,
      "inputs": [
        {
          "name": "_name",
          "type": "string"
        },
        {
          "name": "_countryId",
          "type": "uint16"
        }
      ],
      "name": "AddHolder",
      "outputs": [],
      "payable": false,
      "stateMutability": "nonpayable",
      "type": "function"
    },
    {
      "constant": true,
      "inputs": [],
      "name": "GetHoldersLength",
      "outputs": [
        {
          "name": "",
          "type": "uint256"
        }
      ],
      "payable": false,
      "stateMutability": "view",
      "type": "function"
    },
    {
      "constant": false,
      "inputs": [],
      "name": "withdrawPayments",
      "outputs": [],
      "payable": false,
      "stateMutability": "nonpayable",
      "type": "function"
    },
    {
      "constant": true,
      "inputs": [],
      "name": "owner",
      "outputs": [
        {
          "name": "",
          "type": "address"
        }
      ],
      "payable": false,
      "stateMutability": "view",
      "type": "function"
    },
    {
      "constant": false,
      "inputs": [
        {
          "name": "_name",
          "type": "string"
        },
        {
          "name": "_birthDate",
          "type": "uint256"
        }
      ],
      "name": "AddAuthor",
      "outputs": [],
      "payable": false,
      "stateMutability": "nonpayable",
      "type": "function"
    },
    {
      "constant": true,
      "inputs": [],
      "name": "collectorAddress",
      "outputs": [
        {
          "name": "",
          "type": "address"
        }
      ],
      "payable": false,
      "stateMutability": "view",
      "type": "function"
    },
    {
      "constant": false,
      "inputs": [
        {
          "name": "_name",
          "type": "string"
        },
        {
          "name": "_creationDate",
          "type": "uint256"
        },
        {
          "name": "_marketDate",
          "type": "uint256"
        },
        {
          "name": "_authorId",
          "type": "uint256"
        },
        {
          "name": "_holderId",
          "type": "uint256"
        }
      ],
      "name": "AddItem",
      "outputs": [],
      "payable": false,
      "stateMutability": "nonpayable",
      "type": "function"
    },
    {
      "constant": true,
      "inputs": [
        {
          "name": "",
          "type": "address"
        }
      ],
      "name": "payments",
      "outputs": [
        {
          "name": "",
          "type": "uint256"
        }
      ],
      "payable": false,
      "stateMutability": "view",
      "type": "function"
    },
    {
      "constant": true,
      "inputs": [
        {
          "name": "_authorId",
          "type": "uint256"
        }
      ],
      "name": "GetAuthorData",
      "outputs": [
        {
          "name": "name",
          "type": "string"
        },
        {
          "name": "id",
          "type": "uint256"
        },
        {
          "name": "birthDate",
          "type": "uint256"
        }
      ],
      "payable": false,
      "stateMutability": "view",
      "type": "function"
    },
    {
      "constant": true,
      "inputs": [
        {
          "name": "_holderId",
          "type": "uint256"
        }
      ],
      "name": "GetHolderData",
      "outputs": [
        {
          "name": "name",
          "type": "string"
        },
        {
          "name": "id",
          "type": "uint256"
        },
        {
          "name": "countryId",
          "type": "uint256"
        }
      ],
      "payable": false,
      "stateMutability": "view",
      "type": "function"
    },
    {
      "constant": false,
      "inputs": [
        {
          "name": "newOwner",
          "type": "address"
        }
      ],
      "name": "transferOwnership",
      "outputs": [],
      "payable": false,
      "stateMutability": "nonpayable",
      "type": "function"
    },
    {
      "anonymous": false,
      "inputs": [
        {
          "indexed": false,
          "name": "itemId",
          "type": "uint256"
        }
      ],
      "name": "PatronshipBought",
      "type": "event"
    },
    {
      "anonymous": false,
      "inputs": [
        {
          "indexed": false,
          "name": "itemId",
          "type": "uint256"
        }
      ],
      "name": "ItemAdded",
      "type": "event"
    },
    {
      "anonymous": false,
      "inputs": [
        {
          "indexed": false,
          "name": "authorId",
          "type": "uint256"
        }
      ],
      "name": "AuthorAdded",
      "type": "event"
    },
    {
      "anonymous": false,
      "inputs": [
        {
          "indexed": false,
          "name": "holderId",
          "type": "uint256"
        }
      ],
      "name": "HolderAdded",
      "type": "event"
    },
    {
      "anonymous": false,
      "inputs": [
        {
          "indexed": false,
          "name": "itemId",
          "type": "uint256"
        }
      ],
      "name": "ItemHolderChanged",
      "type": "event"
    },
    {
      "anonymous": false,
      "inputs": [
        {
          "indexed": true,
          "name": "previousOwner",
          "type": "address"
        },
        {
          "indexed": true,
          "name": "newOwner",
          "type": "address"
        }
      ],
      "name": "OwnershipTransferred",
      "type": "event"
    },
    {
      "constant": true,
      "inputs": [
        {
          "name": "_itemId",
          "type": "uint256"
        }
      ],
      "name": "GetPatronshipPrice",
      "outputs": [
        {
          "name": "",
          "type": "uint256"
        }
      ],
      "payable": false,
      "stateMutability": "view",
      "type": "function"
    },
    {
      "constant": true,
      "inputs": [
        {
          "name": "_itemId",
          "type": "uint256"
        }
      ],
      "name": "GetPatronshipReward",
      "outputs": [
        {
          "name": "",
          "type": "uint256"
        }
      ],
      "payable": false,
      "stateMutability": "view",
      "type": "function"
    },
    {
      "constant": false,
      "inputs": [
        {
          "name": "_itemId",
          "type": "uint256"
        }
      ],
      "name": "BuyPatronship",
      "outputs": [],
      "payable": true,
      "stateMutability": "payable",
      "type": "function"
    }
  ],
  "bytecode": "0x606060405233600360006101000a81548173ffffffffffffffffffffffffffffffffffffffff021916908373ffffffffffffffffffffffffffffffffffffffff160217905550611abe806100546000396000f300606060405260043610610111576000357c0100000000000000000000000000000000000000000000000000000000900463ffffffff1680625b4487146101165780631d3cd0831461013f5780631f5485561461016857806322bda10c146102615780633b9424a7146102985780633fde0f53146102d157806345e1a2da146102fa57806353946e5d1461032657806359d60247146103905780636103d70b146103b95780638da5cb5b146103ce5780639730a9e114610423578063c973c2e314610489578063d042ba04146104de578063d7d42e8b14610515578063e2982c2114610596578063e5ee34f7146105e3578063ec4e70f11461068d578063eec4f7c9146106a5578063f2fde38b1461074f575b600080fd5b341561012157600080fd5b610129610788565b6040518082815260200191505060405180910390f35b341561014a57600080fd5b61015261078e565b6040518082815260200191505060405180910390f35b341561017357600080fd5b610189600480803590602001909190505061079b565b60405180806020018981526020018881526020018781526020018681526020018581526020018481526020018373ffffffffffffffffffffffffffffffffffffffff1673ffffffffffffffffffffffffffffffffffffffff16815260200182810382528a818151815260200191508051906020019080838360005b8381101561021f578082015181840152602081019050610204565b50505050905090810190601f16801561024c5780820380516001836020036101000a031916815260200191505b50995050505050505050505060405180910390f35b341561026c57600080fd5b61028260048080359060200190919050506108dd565b6040518082815260200191505060405180910390f35b34156102a357600080fd5b6102cf600480803573ffffffffffffffffffffffffffffffffffffffff16906020019091905050610918565b005b34156102dc57600080fd5b6102e46109de565b6040518082815260200191505060405180910390f35b341561030557600080fd5b61032460048080359060200190919080359060200190919050506109ea565b005b341561033157600080fd5b61038e600480803590602001908201803590602001908080601f0160208091040260200160405190810160405280939291908181526020018383808284378201915050505050509190803561ffff16906020019091905050610aa6565b005b341561039b57600080fd5b6103a3610bf3565b6040518082815260200191505060405180910390f35b34156103c457600080fd5b6103cc610c00565b005b34156103d957600080fd5b6103e1610d22565b604051808273ffffffffffffffffffffffffffffffffffffffff1673ffffffffffffffffffffffffffffffffffffffff16815260200191505060405180910390f35b341561042e57600080fd5b610487600480803590602001908201803590602001908080601f01602080910402602001604051908101604052809392919081815260200183838082843782019150505050505091908035906020019091905050610d48565b005b341561049457600080fd5b61049c610e76565b604051808273ffffffffffffffffffffffffffffffffffffffff1673ffffffffffffffffffffffffffffffffffffffff16815260200191505060405180910390f35b34156104e957600080fd5b6104ff6004808035906020019091905050610e9c565b6040518082815260200191505060405180910390f35b341561052057600080fd5b610594600480803590602001908201803590602001908080601f01602080910402602001604051908101604052809392919081815260200183838082843782019150505050505091908035906020019091908035906020019091908035906020019091908035906020019091905050610ed7565b005b34156105a157600080fd5b6105cd600480803573ffffffffffffffffffffffffffffffffffffffff169060200190919050506110dd565b6040518082815260200191505060405180910390f35b34156105ee57600080fd5b61060460048080359060200190919050506110f5565b6040518080602001848152602001838152602001828103825285818151815260200191508051906020019080838360005b83811015610650578082015181840152602081019050610635565b50505050905090810190601f16801561067d5780820380516001836020036101000a031916815260200191505b5094505050505060405180910390f35b6106a360048080359060200190919050506111e9565b005b34156106b057600080fd5b6106c660048080359060200190919050506114a3565b6040518080602001848152602001838152602001828103825285818151815260200191508051906020019080838360005b838110156107125780820151818401526020810190506106f7565b50505050905090810190601f16801561073f5780820380516001836020036101000a031916815260200191505b5094505050505060405180910390f35b341561075a57600080fd5b610786600480803573ffffffffffffffffffffffffffffffffffffffff169060200190919050506115a9565b005b60065481565b6000600180549050905090565b6107a36117ea565b600080600080600080600080896000805490501115156107c257600080fd5b60008a8154811015156107d157fe5b90600052602060002090600802019050806000018054600181600116156101000203166002900480601f0160208091040260200160405190810160405280929190818152602001828054600181600116156101000203166002900480156108795780601f1061084e57610100808354040283529160200191610879565b820191906000526020600020905b81548152906001019060200180831161085c57829003601f168201915b505050505098508060010154975080600201549650806003015495508060040154945080600501549350806006015492508060070160009054906101000a900473ffffffffffffffffffffffffffffffffffffffff16915050919395975091939597565b6000612710613a986000848154811015156108f457fe5b9060005260206000209060080201600501540281151561091057fe5b049050919050565b600360009054906101000a900473ffffffffffffffffffffffffffffffffffffffff1673ffffffffffffffffffffffffffffffffffffffff163373ffffffffffffffffffffffffffffffffffffffff1614151561097457600080fd5b60008173ffffffffffffffffffffffffffffffffffffffff161415151561099a57600080fd5b80600460006101000a81548173ffffffffffffffffffffffffffffffffffffffff021916908373ffffffffffffffffffffffffffffffffffffffff16021790555050565b60008080549050905090565b600360009054906101000a900473ffffffffffffffffffffffffffffffffffffffff1673ffffffffffffffffffffffffffffffffffffffff163373ffffffffffffffffffffffffffffffffffffffff16141515610a4657600080fd5b80600083815481101515610a5657fe5b9060005260206000209060080201600301819055507fc80b2a507461bdf13f90d6e4cabec254fea31d19046a6ab6aaae2006586ee6f1826040518082815260200191505060405180910390a15050565b600360009054906101000a900473ffffffffffffffffffffffffffffffffffffffff1673ffffffffffffffffffffffffffffffffffffffff163373ffffffffffffffffffffffffffffffffffffffff16141515610b0257600080fd5b60008251111515610b1257600080fd5b60028054806001018281610b2691906117fe565b9160005260206000209060030201600060606040519081016040528086815260200160016002805490500381526020018561ffff1681525090919091506000820151816000019080519060200190610b7f929190611830565b506020820151816001015560408201518160020160006101000a81548161ffff021916908361ffff1602179055505050507fe3b761f18b620ece6fcdb14fa29a98a03ee065f25358cae0c3eddd0d26e7850d6001600280549050036040518082815260200191505060405180910390a15050565b6000600280549050905090565b600080339150600560008373ffffffffffffffffffffffffffffffffffffffff1673ffffffffffffffffffffffffffffffffffffffff16815260200190815260200160002054905060008114151515610c5857600080fd5b803073ffffffffffffffffffffffffffffffffffffffff163110151515610c7e57600080fd5b610c938160065461170190919063ffffffff16565b6006819055506000600560008473ffffffffffffffffffffffffffffffffffffffff1673ffffffffffffffffffffffffffffffffffffffff168152602001908152602001600020819055508173ffffffffffffffffffffffffffffffffffffffff166108fc829081150290604051600060405180830381858888f193505050501515610d1e57600080fd5b5050565b600360009054906101000a900473ffffffffffffffffffffffffffffffffffffffff1681565b600360009054906101000a900473ffffffffffffffffffffffffffffffffffffffff1673ffffffffffffffffffffffffffffffffffffffff163373ffffffffffffffffffffffffffffffffffffffff16141515610da457600080fd5b60008251111515610db457600080fd5b60018054806001018281610dc891906118b0565b91600052602060002090600302016000606060405190810160405280868152602001600180805490500381526020018581525090919091506000820151816000019080519060200190610e1c929190611830565b5060208201518160010155604082015181600201555050507f893b6c60166e13bdcaac5ed8b58be564952549481dc61e31e3ae20c1d0d7e29260018080549050036040518082815260200191505060405180910390a15050565b600460009054906101000a900473ffffffffffffffffffffffffffffffffffffffff1681565b60006127106136b0600084815481101515610eb357fe5b90600052602060002090600802016005015402811515610ecf57fe5b049050919050565b600360009054906101000a900473ffffffffffffffffffffffffffffffffffffffff1673ffffffffffffffffffffffffffffffffffffffff163373ffffffffffffffffffffffffffffffffffffffff16141515610f3357600080fd5b81600180549050111515610f4657600080fd5b80600280549050111515610f5957600080fd5b60008551111515610f6957600080fd5b60008054806001018281610f7d91906118e2565b91600052602060002090600802016000610100604051908101604052808981526020016001600080549050038152602001868152602001858152602001888152602001670de0b6b3a76400008152602001878152602001600073ffffffffffffffffffffffffffffffffffffffff1681525090919091506000820151816000019080519060200190611010929190611830565b506020820151816001015560408201518160020155606082015181600301556080820151816004015560a0820151816005015560c0820151816006015560e08201518160070160006101000a81548173ffffffffffffffffffffffffffffffffffffffff021916908373ffffffffffffffffffffffffffffffffffffffff1602179055505050507f186760a37e06b130959978c68b5c592841caf4f64de1dc960b2c54cf454ca9dd6001600080549050036040518082815260200191505060405180910390a15050505050565b60056020528060005260406000206000915090505481565b6110fd6117ea565b60008060008460018054905011151561111557600080fd5b60018581548110151561112457fe5b90600052602060002090600302019050806000018054600181600116156101000203166002900480601f0160208091040260200160405190810160405280929190818152602001828054600181600116156101000203166002900480156111cc5780601f106111a1576101008083540402835291602001916111cc565b820191906000526020600020905b8154815290600101906020018083116111af57829003601f168201915b505050505093508060010154925080600201549150509193909250565b600080600080600460009054906101000a900473ffffffffffffffffffffffffffffffffffffffff1673ffffffffffffffffffffffffffffffffffffffff161415151561123557600080fd5b6000805490508410151561124857600080fd5b60008481548110151561125757fe5b906000526020600020906008020192503073ffffffffffffffffffffffffffffffffffffffff166322bda10c856040518263ffffffff167c010000000000000000000000000000000000000000000000000000000002815260040180828152602001915050602060405180830381600087803b15156112d557600080fd5b5af115156112e257600080fd5b5050506040518051905091503073ffffffffffffffffffffffffffffffffffffffff1663d042ba04856040518263ffffffff167c010000000000000000000000000000000000000000000000000000000002815260040180828152602001915050602060405180830381600087803b151561135c57600080fd5b5af1151561136957600080fd5b505050604051805190509050813411151561138357600080fd5b8260070160009054906101000a900473ffffffffffffffffffffffffffffffffffffffff1673ffffffffffffffffffffffffffffffffffffffff163373ffffffffffffffffffffffffffffffffffffffff16141515156113e257600080fd5b6113ec338261171a565b61141a600460009054906101000a900473ffffffffffffffffffffffffffffffffffffffff1682840361171a565b348360050181905550338360070160006101000a81548173ffffffffffffffffffffffffffffffffffffffff021916908373ffffffffffffffffffffffffffffffffffffffff1602179055507f95567913a139a9810a3eb0de6a4244ece143e6b527268952cd3800672d93158d846040518082815260200191505060405180910390a150505050565b6114ab6117ea565b6000806000846002805490501115156114c357600080fd5b6002858154811015156114d257fe5b90600052602060002090600302019050806000018054600181600116156101000203166002900480601f01602080910402602001604051908101604052809291908181526020018280546001816001161561010002031660029004801561157a5780601f1061154f5761010080835404028352916020019161157a565b820191906000526020600020905b81548152906001019060200180831161155d57829003601f168201915b50505050509350806001015492508060020160009054906101000a900461ffff1661ffff169150509193909250565b600360009054906101000a900473ffffffffffffffffffffffffffffffffffffffff1673ffffffffffffffffffffffffffffffffffffffff163373ffffffffffffffffffffffffffffffffffffffff1614151561160557600080fd5b600073ffffffffffffffffffffffffffffffffffffffff168173ffffffffffffffffffffffffffffffffffffffff161415151561164157600080fd5b8073ffffffffffffffffffffffffffffffffffffffff16600360009054906101000a900473ffffffffffffffffffffffffffffffffffffffff1673ffffffffffffffffffffffffffffffffffffffff167f8be0079c531659141344cd1fd0a4f28419497f9722a3daafe3b4186f6b6457e060405160405180910390a380600360006101000a81548173ffffffffffffffffffffffffffffffffffffffff021916908373ffffffffffffffffffffffffffffffffffffffff16021790555050565b600082821115151561170f57fe5b818303905092915050565b61176c81600560008573ffffffffffffffffffffffffffffffffffffffff1673ffffffffffffffffffffffffffffffffffffffff168152602001908152602001600020546117ce90919063ffffffff16565b600560008473ffffffffffffffffffffffffffffffffffffffff1673ffffffffffffffffffffffffffffffffffffffff168152602001908152602001600020819055506117c4816006546117ce90919063ffffffff16565b6006819055505050565b600081830190508281101515156117e157fe5b80905092915050565b602060405190810160405280600081525090565b81548183558181151161182b5760030281600302836000526020600020918201910161182a9190611914565b5b505050565b828054600181600116156101000203166002900490600052602060002090601f016020900481019282601f1061187157805160ff191683800117855561189f565b8280016001018555821561189f579182015b8281111561189e578251825591602001919060010190611883565b5b5090506118ac9190611960565b5090565b8154818355818115116118dd576003028160030283600052602060002091820191016118dc9190611985565b5b505050565b81548183558181151161190f5760080281600802836000526020600020918201910161190e91906119c4565b5b505050565b61195d91905b8082111561195957600080820160006119339190611a4a565b60018201600090556002820160006101000a81549061ffff02191690555060030161191a565b5090565b90565b61198291905b8082111561197e576000816000905550600101611966565b5090565b90565b6119c191905b808211156119bd57600080820160006119a49190611a4a565b600182016000905560028201600090555060030161198b565b5090565b90565b611a4791905b80821115611a4357600080820160006119e39190611a4a565b6001820160009055600282016000905560038201600090556004820160009055600582016000905560068201600090556007820160006101000a81549073ffffffffffffffffffffffffffffffffffffffff0219169055506008016119ca565b5090565b90565b50805460018160011615610100020316600290046000825580601f10611a705750611a8f565b601f016020900490600052602060002090810190611a8e9190611960565b5b505600a165627a7a72305820e3af5dcc72bac8868056f39db2afd4f2092d3ad2ead619d4120ead96607760dc0029",
  "source": "pragma solidity ^0.4.21;\n\nimport \"./ArtPatronManagement.sol\";\nimport \"../../node_modules/zeppelin-solidity/contracts/payment/PullPayment.sol\";\n\ncontract ArtPatronMarket is ArtPatronManagement, PullPayment {\n    event PatronshipBought(uint itemId);\n\n    function GetPatronshipPrice(uint _itemId) external view returns(uint) {\n        return items[_itemId].currentBid * 15000 / 10000; // 150%\n    }\n\n    function GetPatronshipReward(uint _itemId) external view returns(uint) {\n        return items[_itemId].currentBid * 14000 / 10000; // 140%\n        // 7% left goes to a holder, 3% left goes to the foundation\n    }\n\n    function BuyPatronship (uint _itemId) external payable {\n        require(collectorAddress != 0);\n        require(_itemId < items.length);\n\n        Item storage item = items[_itemId];\n\n        uint price = this.GetPatronshipPrice(_itemId);\n        uint reward = this.GetPatronshipReward(_itemId);\n\n        require(msg.value > price);\n        require(msg.sender != item.patronAddress);\n\n        asyncSend(msg.sender, reward);\n\n        asyncSend(collectorAddress, price - reward);\n\n        item.currentBid = msg.value;\n        item.patronAddress = msg.sender;\n\n        emit PatronshipBought(_itemId);\n    }\n}\n",
  "sourcePath": "/home/shamsfk/projects/artpatron/ethereum/contracts/ArtPatronMarket.sol",
  "compiler": {
    "name": "solc",
    "version": "0.4.21+commit.dfe3193c.Emscripten.clang"
  },
  "schemaVersion": "2.0.0",
  "updatedAt": "2018-05-17T14:53:55.572Z"
}